:100000000C941F0A0C94680A0C94680A0C94680AF1
:100010000C94680A0C94680A0C94680A0C94680A98
:100020000C94680A0C94680A0C94F43A0C94CA3B39
:100030000C94212A0C94680A0C94680A0C94680A9F
:100040000C94680A0C94680A0C94680A0C94680A68
:100050000C94BA0B0C94952A0C94680A0C94680AB8
:100060000C94680A0C94680A0C94680A0C94680A48
:100070000C94680A0C94680A0C94680A0C94680A38
:100080000C94680A0C94680A0C94680A0C94680A28
:100090000C94680A0C94680A130E150E200E170EA5
:1000A000190E1B0E1D0E1F0E220E240E260E310ED3
:1000B000280E2A0E2C0E2E0E300E330E4D1F4D1F05
:1000C0007F1F7F1FBD1FDD1F722172211F20722124
:1000D000CC20CC203E21472172216B21D920D92070
:1000E000D920D920D920D920D920D920D920D92048
:1000F000D920D920D920D920D920D920EA20F82008
:10010000FF200621102101220122132213220A229C
:10011000132213221322012201220F22132213225F
:100120000F223B3C623C543D623C543DAE3CD13CD2
:10013000543D273D363D07634236B79BD8A71A3951
:10014000685618AEBAAB558C1D3CB7CC5763BD6D25
:10015000EDFD753EF6177231BF000000803F05A827
:100160004CCDB2D44EB93836A9020C50B99186881C
:10017000083CA6AAAA2ABE000000803F2900000071
:100180003A003B003C003D003E003F004000410083
:100190004200430044004500000049004A004B0073
:1001A0004600000000000000000000000000000009
:1001B000000000000000000000000000000000003F
:1001C0004C004D004E00470035001E001F0020006F
:1001D00021002200230024002500260027002D00F6
:1001E0002E002A00000053005400550048002B0048
:1001F00014001A000800150017001C0018000C005D
:10020000120013002F003000320000005F00600079
:1002100061005600390004001600070009000A00BA
:100220000B000D000E000F003300340032002800D8
:1002300000005C005D005E005700E10064001D00EE
:100240001B000600190005001100100036003700E1
:100250003800E5005200000059005A005B00000021
:10026000E000E300E200000000002C0000000000BD
:1002700000000000E600E400500051004F000000C4
:10028000620063005800010000000100010001004D
:100290000100010001000100010001000100010056
:1002A0000100000001000100010001000000000049
:1002B000000000000000000000000000000000003E
:1002C000000000000000000000000100010001002B
:1002D0000100010001000100010001000100010016
:1002E0000100010001000100010001000100000007
:1002F00001000100010001000100010001000100F6
:1003000001000100010001000100010001000100E5
:1003100001000100000001000100010001000100D6
:1003200001000100010001000100010001000100C5
:1003300001000100010000000100000001000100B7
:1003400001000100010000000100010001000100A6
:100350000100010001000100010001000100010095
:100360000000010001000100000001000100010087
:10037000000000000100000000000000010001007A
:100380000100010001000100000001000100010066
:1003900044454255473A20656E61626C65642E0A99
:1003A0000000000000000000000000000101020346
:1003B000040506080A0C0F1114181C2024292E33DA
:1003C000393F464C535B626A7179818A929AA2AA3C
:1003D000B2B9C1C8CFD5DCE1E7EBF0F4F7FAFCFD28
:1003E000FEFFFEFDFCFAF7F4F0EBE7E1DCD5CFC849
:1003F000C1B9B2AAA29A928A8179716A625B534C9E
:10040000463F39332E2924201C1814110F0C0A08DA
:1004100006050403020101000000000000000000C6
:10042000000A00253033326C62003A200025303259
:1004300058000A722F632030313233343536373862
:10044000394142434445463031323334353637380A
:10045000394142434445460A0054494D45523320F0
:1004600064697361626C65642E0A0054494D45529B
:100470003320656E61626C65642E0A007267626C7F
:10048000696768742073657420687376205B4E4FCB
:10049000454550524F4D5D3A2025752C25752C252C
:1004A000750A007267626C696768742073657420EE
:1004B000687376205B454550524F4D5D3A20257557
:1004C0002C25752C25750A007267626C6967687443
:1004D000207261696E626F7720736574206873762D
:1004E0003A2025752C25752C25642C25750A00725B
:1004F00067626C696768742064697361626C652007
:100500005B454550524F4D5D3A207267626C69679A
:1005100068745F636F6E6669672E656E61626C6595
:10052000203D2025750A007267626C696768742037
:10053000656E61626C65205B454550524F4D5D3A7A
:10054000207267626C696768745F636F6E66696763
:100550002E656E61626C65203D2025750A0072670C
:10056000626C6967687420746F67676C65205B45AF
:100570004550524F4D5D3A207267626C69676874EE
:100580005F636F6E6669672E656E61626C65203DA4
:100590002025750A007267626C69676874206D6F48
:1005A0006465205B4E4F454550524F4D5D3A2025C6
:1005B000750A007267626C69676874206D6F6465A4
:1005C000205B454550524F4D5D3A2025750A00721B
:1005D00067626C696768745F696E697420726762CC
:1005E0006C696768745F636F6E6669672E6D6F64B0
:1005F00065203D20302E2057726974652064656641
:1006000061756C742076616C75657320746F20451C
:100610004550524F4D2E0A007267626C69676874CC
:100620005F696E6974206565636F6E6669672069CE
:1006300073206E6F7420656E61626C65642E0A00B3
:100640007267626C696768745F696E69742073743D
:10065000617274210A007267626C696768745F690D
:100660006E69742063616C6C65642E0A0072676247
:100670006C696768745F636F6E6669672E73706517
:100680006564203D2025640A007267626C696768B2
:10069000745F636F6E6669672E76616C203D2025FE
:1006A000640A007267626C696768745F636F6E6684
:1006B00069672E736174203D2025640A00726762A9
:1006C0006C696768745F636F6E6669672E687565CD
:1006D000203D2025640A007267686C696768745F52
:1006E000636F6E6669672E6D6F6465203D202564BB
:1006F0000A007267626C696768745F636F6E66692F
:10070000672E656E61626C65203D2025640A00726B
:1007100067626C696768745F636F6E66696720659E
:1007200070726F6D0A0000047F3F1F6432146432E0
:1007300014783C1E1E140A056801F000B40078000D
:100740005A00000000000001010101010101010146
:100750000202020202020202020303030303030372
:10076000030404040404040505050505060606063D
:100770000607070707080808080909090A0A0A0AF4
:100780000B0B0B0C0C0C0D0D0D0E0E0F0F0F101094
:100790001111111212131314141515161617171818
:1007A0001819191A1A1B1C1C1D1D1E1F1F20202181
:1007B00022222324252526272728292A2B2B2C2DC6
:1007C0002E2F2F30313233343536363738393A3BE5
:1007D0003C3D3E3F4041424344464748494A4B4CDA
:1007E0004D4F50515253555657585A5B5C5E5F609F
:1007F0006263646667696A6C6D6E70717374767833
:10080000797B7C7E8081838486888A8B8D8F919290
:100810009496989A9B9D9FA1A3A5A7A9ABADAFB1B4
:10082000B3B5B7B9BBBDBFC1C4C6C8CACCCFD1D39D
:10083000D6D8DADCDFE1E4E6E8EBEDF0F2F5F7FA42
:10084000FCFF0A002530325820006B6579626F6129
:1008500072645F7265706F72743A20000A0025300E
:100860003258006B6579626F6172645F7365745FA3
:100870006C65643A200064656C5F6B65795F6269E2
:10088000743A2063616E27742064656C3A202530C9
:1008900032580A006164645F6B65795F6269743A1B
:1008A0002063616E2774206164643A2025303258D9
:1008B0000A00646F6E652E0A00626F6F746D616767
:1008C0006963207363616E3A202E2E2E2000290A60
:1008D000002575002F002575005D28002564002087
:1008E00000256400200025640020002564007C00B1
:1008F00025303258006D6F7573656B6579205B62CA
:10090000746E7C782079207620685D287265702F5F
:1009100061636C293A205B006D6B5F776865656C7D
:100920005F74696D655F746F5F6D6178203D202530
:10093000640A006D6B5F776865656C5F6D61785FF9
:100940007370656564203D2025640A006D6B5F74DB
:10095000696D655F746F5F6D6178203D2025640A65
:10096000006D6B5F6D61785F7370656564203D201D
:1009700025640A006D6B5F696E74657276616C2028
:100980003D2025640A006D6B5F64656C6179203DD4
:100990002025640A006D6B5F776865656C5F74691C
:1009A0006D655F746F5F6D6178203D2025640A007E
:1009B0006D6B5F776865656C5F6D61785F7370659F
:1009C0006564203D2025640A006D6B5F74696D6568
:1009D0005F746F5F6D6178203D2025640A006D6B48
:1009E0005F6D61785F7370656564203D2025640AE2
:1009F000006D6B5F696E74657276616C203D2025B9
:100A0000640A006D6B5F64656C6179203D2025642C
:100A10000A000A00257500363A20776865656C5F24
:100A200074696D655F746F5F6D61783A20000A00CC
:100A3000257500353A20776865656C5F6D61785F74
:100A400073706565643A20000A00257500343A2009
:100A500074696D655F746F5F6D61783A20000A009C
:100A6000257500333A206D61785F73706565643A6F
:100A700020000A00257500323A20696E746572768E
:100A8000616C286D73293A20000A00257500313AFF
:100A90002064656C6179282A31306D73293A200011
:100AA0000A092D2056616C756573202D0A004D3E94
:100AB000004D25643E20003F007365742064656628
:100AC00061756C740A00433E20007768657265208A
:100AD00064656C74613A20637572736F723D25644E
:100AE0002C20776865656C3D25640A536565206830
:100AF0007474703A2F2F656E2E77696B6970656418
:100B000069612E6F72672F77696B692F4D6F7573EF
:100B1000655F6B6579730A000A092D204D6F757347
:100B2000656B6579202D0A4553432F713A0971751C
:100B300069740A313A0964656C6179282A31306D2B
:100B400073290A323A09696E74657276616C286D90
:100B500073290A333A096D61785F73706565640AB9
:100B6000343A0974696D655F746F5F6D61780A3539
:100B70003A09776865656C5F6D61785F737065656C
:100B8000640A363A09776865656C5F74696D655FFC
:100B9000746F5F6D61780A0A703A097072696E74D9
:100BA0002076616C7565730A643A09736574206414
:100BB000656661756C74730A75703A092B310A6445
:100BC0006F776E3A092D310A706775703A092B31CB
:100BD000300A7067646F776E3A092D31300A0A73F4
:100BE00070656564203D2064656C7461202A206D09
:100BF00061785F7370656564202A2028726570656E
:100C00006174202F2074696D655F746F5F6D61780A
:100C1000290A003F004D3E2000433E20004C256441
:100C20000A0074696D65725F7265616433322829E8
:100C30003A202530346C580A006B65796D61705F1D
:100C4000636F6E6669672E6E6B726F3A2025580A65
:100C5000006B6579626F6172645F69646C653A20EC
:100C600025580A006B6579626F6172645F70726FFC
:100C7000746F636F6C3A2025580A00686F73745F55
:100C80006B6579626F6172645F6C65647328293A81
:100C90002025580A000A092D2053746174757320A9
:100CA0002D0A004743433A20342E392E3220415634
:100CB000522D4C4942433A20312E382E3073766EF5
:100CC000204156525F415243483A20617672353195
:100CD0000A004F5054494F4E533A204C554641203C
:100CE000424F4F544D41474943204D4F5553454B7B
:100CF00045592045585452414B455920434F4E5376
:100D00004F4C4520434F4D4D414E44204E4B524F8A
:100D100020383139320A004255494C443A202230B9
:100D20002E362E3235362D352D6734643962313109
:100D300022202831343A32323A3437204A616E2048
:100D400032372032303139290A005649443A2030AE
:100D5000784645454428546865204B657920436FA3
:100D60006D70616E7929205049443A2030783630D0
:100D7000363028544B433138303029205645523ACA
:100D8000203078303030330A00444553433A205104
:100D90004D4B206B6579626F617264206669726D7C
:100DA0007761726520666F7220544B433138303062
:100DB0000A000A092D2056657273696F6E202D0A8C
:100DC000000A092D20436F6E736F6C65202D0A4554
:100DD00053432F713A09717569740A6D3A096D6F41
:100DE0007573656B65790A000A092D204D61676985
:100DF00063202D0A443A094465627567204D657386
:100E00007361676520546F67676C650A583A094DCE
:100E10006174726978204465627567204D6F6465FE
:100E200020546F67676C65202D2053686F77206BA7
:100E300065797072657373657320696E206D617476
:100E400072697820677269640A4B3A094B65796266
:100E50006F61726420446562756720546F67676CC8
:100E600065202D2053686F77206B657970726573EC
:100E700073207265706F72740A4D3A094465627529
:100E800067204D6F75736520546F67676C650A56F0
:100E90003A0956657273696F6E0A533A0953746161
:100EA0007475730A433A0941637469766174652005
:100EB000436F6E736F6C65204D6F64650A46312D0C
:100EC0004631303A0953776974636820746F204C57
:100ED0006179657220302D392028463130203D203F
:100EE0004C30290A302D393A0953776974636820E8
:100EF000746F204C6179657220302D390A45534357
:100F00003A0953776974636820746F204C6179657E
:100F10007220302028616C7465726E617465206B7C
:100F200065792031290A47524156453A0953776974
:100F300074636820746F204C6179657220302028BA
:100F4000616C7465726E617465206B6579203229FD
:100F50000A50415553453A094A756D7020746F2007
:100F6000426F6F746C6F616465722028526573659F
:100F700074290A453A095072696E742045455052E9
:100F80004F4D2053657474696E67730A4E3A094E6B
:100F90004B524F20546F67676C650A000A00257535
:100FA000002E6C6576656C3A20000A002575002ECF
:100FB000656E61626C653A20000A00253032580087
:100FC0006261636B6C696768745F636F6E666967A3
:100FD0002E7261773A20000A002575002E6E6B7222
:100FE0006F3A20000A002575002E737761705F62EA
:100FF00061636B736C6173685F6261636B73706173
:1010000063653A20000A002575002E737761705FD2
:1010100067726176655F6573633A20000A00257523
:10102000002E6E6F5F6775693A20000A0025750013
:101030002E737761705F72616C745F726775693A65
:1010400020000A002575002E737761705F6C616C5B
:10105000745F6C6775693A20000A002575002E637D
:101060006170736C6F636B5F746F5F636F6E7472CC
:101070006F6C3A20000A002575002E737761705F4F
:10108000636F6E74726F6C5F636170736C6F636BB0
:101090003A20000A0025303258006B65796D617086
:1010A0005F636F6E6669672E7261773A20000A008F
:1010B0002575002E6D6F7573653A20000A00257541
:1010C000002E6B6579626F6172643A20000A002518
:1010D00075002E6D61747269783A20000A002575DA
:1010E000002E656E61626C653A20000A0025303280
:1010F000580064656275675F636F6E6669672E721C
:1011000061773A20000A0025750064656661756C98
:10111000745F6C617965723A20003F004E4B524F0C
:101120003A206F66660A004E4B524F3A206F6E0AA5
:10113000000A6D6F7573653A206F66660A000A6D66
:101140006F7573653A206F6E0A000A6B6579626F7E
:101150006172643A206F66660A000A6B6579626F95
:101160006172643A206F6E0A000A6D617472697868
:101170003A206F66660A000A6D61747269783A20D7
:101180006F6E0A000A64656275673A206F66660AC8
:10119000000A64656275673A206F6E0A000A0A4A9F
:1011A000756D70696E6720746F20626F6F746C6FFD
:1011B000616465722E2E2E2000433E20006565631B
:1011C0006F6E6669673A0A006261636B6C69676893
:1011D0007420737465703A2025750A006261636B30
:1011E0006C696768742064697361626C650A006287
:1011F00061636B6C6967687420656E61626C650A17
:10120000006261636B6C6967687420746F67676CF8
:10121000653A2025750A006261636B6C69676874C2
:101220002064656372656173653A2025750A006202
:1012300061636B6C6967687420696E637265617362
:10124000653A2025750A005B735D004B6579626F16
:101250006172642073746172742E0A005B575D00C2
:101260005B535D005B525D005B445D005B435D0072
:10127000040330000000100354004B004300310011
:101280003800300030000000200354006800650082
:1012900020004B0065007900200043006F006D00C6
:1012A000700061006E007900000004030904090267
:1012B0005B00030100A0FA09040000010301010022
:1012C0000921110100012240000705810308000ADD
:1012D000090401000103000000092111010001229D
:1012E000C0000705820320000A090402000203006F
:1012F00000000921110100012222000705830320BB
:101300000001070503032000011201100100000085
:1013100008EDFE60600300010203010631FF09745D
:10132000A1010975150026FF0095207508810209A5
:1013300076150026FF00952075089102C005010969
:1013400002A10185020901A100050919012905155C
:10135000002501950575018102950175038101053F
:1013600001093009311581257F950275088106092B
:10137000381581257F950175088106050C0A38020C
:101380001581257F950175088106C0C0050109807A
:10139000A10185031601002603001A81002A83009B
:1013A000751095018100C0050C0901A10185041685
:1013B0000100269C021A01002A9C027510950181E9
:1013C00000C005010906A1018505050719E029E707
:1013D00015002501950875018102050819012905E7
:1013E0009505750191029501750391010507190095
:1013F00029EF1500250195F075018102C00501094D
:1014000006A101050719E029E715002501950875D2
:1014100001810295017508810105081901290595C9
:1014200005750191029501750391010507190029C0
:10143000FF150026FF00950675088100C0001124E5
:101440001FBECFEFD0E2DEBFCDBF04B603FE27C084
:101450008091400390914103A0914203B0914303D6
:101460008730904BA740B04BD1F4109240031092BC
:101470004103109242031092430314BE84B7877F46
:1014800084BF0FB6F894A89580916000886180931E
:101490006000109260000FBEE0E0F0EF099511E0EF
:1014A000A0E0B1E0E0E6F3E800E00BBF02C0079087
:1014B0000D92A435B107D9F723E0A4E5B1E001C04E
:1014C0001D92A034B207E1F70E940E380C94AE4191
:1014D0000C940000FF93EF93E0915401F0915501BB
:1014E000309709F00995EF91FF910895FC018591DE
:1014F000803011F0EFDFFBCF0895FF27E0E230E20C
:1015000047FF0CC0419597FF09C0EDE260957095CB
:1015100080959095611D711D811D911D27FF02C051
:10152000219530E350E2AA27660F771F881F991F85
:10153000AA1FA41710F0A41B63955A95A9F7AA3007
:1015400008F0A95FA05DAF93F39561157105810562
:10155000910541F7ED3211F4EF93F395F21718F47A
:101560003F93F395FBCF8F91B5DFFA95E1F708959F
:10157000E991F9918591803021F0853219F0AADF47
:10158000F9CF089520E0E89455915532C1F35033D6
:1015900011F4689455915A3348F4505390F3220F44
:1015A000022E220F220F200D250FF4CF0EF42195CD
:1015B00089919991533619F3533729F1533559F1DC
:1015C000BC0188279927E8945C3621F48991999188
:1015D00068945591543639F446EF7EF077FF0DC08C
:1015E0008FEF9FEF0AC055374AE039F0583540E198
:1015F00021F0523642E009F00895FF93EF937DDF2A
:10160000EF91FF91B7CFFF93EF93FC018191803071
:10161000B9F360DFFBCFFF93EF9368DFF1CFDF9388
:10162000CF93CDB7DEB72596A3DFCF91DF91089595
:101630000C9497110C94740B8AB18C618AB9279A17
:101640002F9A08950E941C0B0C94961180FF02C0E3
:101650005A9A01C05A9881FF02C05B9A01C05B98F8
:1016600082FF02C05C9A08955C980895CF92DF9241
:10167000EF92FF928C3724E1920728F469E070E042
:101680000E94EC4029C0A0E0B0E08A50974DAF4FD7
:10169000BF4F6627782F892F9A2F25EF38E241E038
:1016A00050E00E94144169017A01CA01B9010E9407
:1016B000D0409B01AC01C701B6010E94D040BB27BE
:1016C000A92F982F872F009721E0A207B10511F0CD
:1016D000BC0102C06FEF7FEFCB01FF90EF90DF9076
:1016E000CF90089581E0089581E008950C94180B3F
:1016F000843030F4811105C0909180009F7D04C03A
:1017000083E090918000906290938000282F30E0D9
:10171000AFEFBFEF0E943F4123E030E040E050E0F8
:101720000E941441C9010E94360B90938B00809354
:101730008A00089580916F0081700895109257017A
:101740001092560110925801EFE6F0E0808181601E
:1017500080830895EFE6F0E080818E7F80830E9491
:101760008F350C94780B0E949A0B81110C94AA0B64
:101770000C949E0B1F920F920FB60F9211240BB672
:101780000F922F933F934F935F936F937F938F931A
:101790009F93AF93BF93CF93EF93FF93209100015B
:1017A0008091560190915701019644EF249F90013A
:1017B0001124B9010E94EC40909357018093560187
:1017C000B901660F672F661F770B71950E94EC4079
:1017D0006F7780915801823019F4603451F404C05D
:1017E000813039F46F3729F480916F008E7F8093B8
:1017F0006F00E62FF0E0EF55FC4FC4910E948F354B
:10180000282F41E051E0C49FC001C59F900D1124D5
:1018100063E070E00E94EC40269FC001279F900D7E
:1018200011240E94360B90938B0080938A00FF91C5
:10183000EF91CF91BF91AF919F918F917F916F91D8
:101840005F914F913F912F910F900BBE0F900FBE64
:101850000F901F901895269A2E9882E28093800010
:1018600089E1809381008FEF9FEF909387008093B1
:1018700086000E946B340C949E0B0E949328811169
:1018800002C00E9414290E942B0C0C94220B0C9471
:10189000260B08950E94F1210E94490C2FEF84E34A
:1018A0009CE0215080409040E1F700C000000C9483
:1018B000BB2AFF920F931F93CF93DF938C01FC0100
:1018C000C081D1818091DC01811113C08281882384
:1018D00049F0CE010E942627F82E682FCE010E94E3
:1018E000CB2604C0CE010E94FA26F82EBE018F2D11
:1018F00004C0CE010E942627BE010E94EC0EEC011E
:10190000B8010E941A0B882309F45BC2CB3CFCE5AA
:10191000DF0709F4E1C0E8F5C33C9CE5D90709F409
:10192000A1C0F8F4C531FCE5DF0778F4C2308CE5DE
:10193000D80708F056C1C1159CE5D90709F46BC05A
:10194000C130DC4509F46FC02FC2C13CFCE5DF07A4
:1019500009F423C208F07EC0C631DC4509F4F6C1A3
:1019600023C2F8018281C73CFCE5DF0709F49CC073
:1019700040F4C53CECE5DE0709F48AC008F47EC0FB
:101980008DC0C93C9CE5D90709F49AC008F492C0FF
:101990009DC0C33DFCE5DF0709F4F9C0C0F4F801C0
:1019A0008281CF3CFCE5DF0709F4B7C040F4CD3CB1
:1019B000ECE5DE0709F49EC008F496C0A0C0C13D66
:1019C0009CE5D90709F4C7C008F4B5C0D2C0C73D2B
:1019D000FCE5DF0709F478C150F4F8018281C53DC8
:1019E000FCE5DF0709F4E8C008F4D8C04CC1CB3DE2
:1019F000ECE5DE0709F4E5C028F4C83DDC4509F450
:101A00008AC1D2C1CC3D9CE5D90709F4E1C0CD3DE6
:101A1000DC45C1F0C9C1F8018281882309F4D1C134
:101A20000E944A0CCEC1F8018281882309F4C9C101
:101A30008091970281608093970280E993E00E94F1
:101A4000760ABFC1F8018281882309F4BAC10E94D5
:101A50001429B7C1F8018281882309F4B2C10E9418
:101A6000F317AFC1F8018281882309F4AAC10E944B
:101A7000F727827251F00E944617A3C1882309F408
:101A8000A0C10E94F7278272B1F30E94381799C152
:101A9000882309F496C10E94061693C1882309F48D
:101AA00090C10E942A168DC1882309F48AC10E9420
:101AB0004A1687C1882309F484C10E946A1681C12D
:101AC000882309F47EC10E948A167BC1882309F409
:101AD00078C10E94AA1675C1F8018281882309F491
:101AE00070C10E9461146DC1882309F46AC10E940B
:101AF000761467C1882309F464C181E029C0882372
:101B000009F45FC10E945814823028F00E945814D2
:101B1000853008F4BACF82E01BC0882309F451C194
:101B20000E945814863028F00E945814883008F417
:101B3000ACCF86E00DC0882309F443C10E9458143D
:101B4000893028F00E9458148E3008F49ECF89E026
:101B50000E94491736C1882309F433C10E945814E2
:101B60008F3028F00E945814843108F48ECF8FE013
:101B7000EFCF882309F425C10E945814853128F03D
:101B80000E945814873108F480CF85E1E1CFF80135
:101B90008281882309F415C188E1DACF882309F40A
:101BA00010C10E945814893128F00E9458148232C2
:101BB00008F46BCF89E1CCCF882309F402C183E21A
:101BC000C7CFF8018281882309F4FBC080E006C0FA
:101BD000F8018281882309F4F4C082E00E94B838B9
:101BE000F0C0F8018281882309F4E3C00E949328A1
:101BF000811102C00E9414290E94B02890E09093A5
:101C0000310380933003FE01E350FC45E231F105DE
:101C100030F4E45BFF4F809130030C9436418091A7
:101C20003003816027C0826025C0846023C080614A
:101C300021C080621FC080641DC080681BC084609A
:101C4000886018C08E7F16C08D7F14C08B7F12C035
:101C50008F7E10C08F7D0EC08F7B0CC08F770AC027
:101C60008B7F877F07C087FB222720F991E092278F
:101C700090FB87F980933003809130030E94B42851
:101C80000E94F1219EC0882351F010925E010E94B3
:101C9000532A90935B0180935A0182E022C0809185
:101CA0005E0181110FC080915A0190915B010E94E9
:101CB0006B2A883C910530F486E20E94681D86E21A
:101CC0000E94A11E82E024C0F8018281882361F075
:101CD00010925F010E94532A90935D0180935C01F2
:101CE00080E20E94091F6DC080915F0181110FC0C9
:101CF00080915C0190915D010E946B2A883C910566
:101D000030F487E20E94681D87E20E94A11E80E2F3
:101D10000E94101F56C0F80182818111D9CF809195
:101D20005F018111F4CF80915C0190915D010E946F
:101D30006B2A883C910558F780E20E94101F88E2C8
:101D40000E94681D88E20E94A11E3BC00E94F727E6
:101D5000282FF801828140910E0150910F018823B4
:101D600079F02A7A91E009F490E090935901911169
:101D700002C069E201C065E3CA010E949D290AC050
:101D800080915901811102C069E201C065E3CA0175
:101D90000E94A8290E94C42714C0F80182818823C8
:101DA00081F00E94B30B0DC081E080935E018093AF
:101DB0005F01C801DF91CF911F910F91FF900C94AB
:101DC000720B80E0DF91CF911F910F91FF900895EA
:101DD00080E090E00895089593E1799FF001112447
:101DE00095E8899FE00DF11D1124E60FF11DEE0F1E
:101DF000FF1FE458FE4F859194910895880F991F15
:101E0000FC01EF5DFB4F859194910895CF93DF9393
:101E10000E94EC0E0E94F610EC01811521E592075C
:101E200008F042C0811560E5960708F02CC1883E95
:101E3000910500F5803E910508F0D4C1883A9105DE
:101E400070F4853A910508F0A2C08130910509F43B
:101E5000C9C108F47AC1049708F0C4C176C18F3BA8
:101E6000910508F49FC0803C910508F46EC1805C28
:101E70009109F9C0C11580E3D80780F4C11590E23B
:101E8000D90708F0EEC0C03FD10508F45EC1CF3FCE
:101E9000D10511F008F0A6C1D065A4C1C11520E498
:101EA000D20708F0EDC0E2C0811569E5960760F53C
:101EB000C11588E5D80708F032C1C11594E5D907E6
:101EC00078F4C11523E5D20708F00EC1C11562E50B
:101ED000D60708F0F3C0DC2FCC27C16FD06A82C1CF
:101EE000C11585E5D80708F415C1C11596E5D907D0
:101EF00008F02BC18C2F0E9473118F71C82FD0E076
:101F0000DC2FCC27D0626EC18D3B2CE5920709F403
:101F100013C1D0F4CB3B8CE5D80709F407C108F016
:101F200008C1C1152AE5D20708F00FC12C2F2F7068
:101F3000206E30E0306A84E0D695C7958A95E1F747
:101F4000CF70C9019C2BF0C0803C9C4509F4FAC0BD
:101F5000C13C8CE5D80760F4CE3B9CE5D90709F479
:101F6000EEC0CF3BDC4509F0F0C0C0E0D2ED3AC195
:101F7000CE0190568115904208F0E7C08D2F8F71E9
:101F80000E947311DD27D0628F71D82B2BC1853A47
:101F9000910509F4DDC0863A910509F0DCC0C2E87C
:101FA000D0E420C1883A910509F4D8C0893A910556
:101FB00009F4D7C08A3A910509F4D6C08B3A910545
:101FC00009F4D5C08C3A910509F4D4C08B3B910536
:101FD00009F4D3C08C3B910509F4D2C08D3A910528
:101FE00009F4D1C0803B910509F4D0C08E3A910527
:101FF00009F4CFC08F3A910509F4CEC0813B910519
:1020000009F4CDC0823B910509F4CCC0833B910516
:1020100009F4CBC0843B910509F4CAC0853B910506
:1020200009F4C9C0863B910509F4C8C0873B9105F6
:1020300009F4C7C0883B910509F4C6C0893B9105E6
:1020400009F4C5C08D3B910509F4C4C08E3B9105D0
:1020500009F4C3C08A3B910509F4C2C0C0E0D4E4CE
:10206000C1C0CE019F700E94FE0E5EC0CE019927B6
:10207000D3FF03C0EC01D86CB5C0EC01D06CB2C08A
:10208000DF70D06AAFC0837021E030E002C0220F61
:10209000331F8A95E2F73C68CE0154E09695879508
:1020A0005A95E1F78370382BCF70C695C69580E2BC
:1020B000C89FE0011124C22BD32B94C04C2F46950E
:1020C000469590E2499FA0011124C370DD2721E0CD
:1020D00030E0C90102C0880F991FCA95E2F7EC01F0
:1020E000C42BD52BDC687EC04C2F4695469580E2EC
:1020F000489FA0011124C370DD2721E030E0C90111
:1021000002C0880F991FCA95E2F7EC01C42BD52BAA
:10211000DA6868C0DC2FCC27C46FD06A63C0DC2FBC
:10212000CC27C06FD06A5EC0EC015CC0C0E0D4EDCB
:1021300059C0C0E0D5ED56C0C0E0D1ED53C0C0E0FD
:10214000D0ED50C0C0E0D3ED4DC0C0E0D0E04AC0FB
:10215000C1E8D0E447C0C3E8D0E444C0C2EED4E450
:1021600041C0C9EED4E43EC0CAEED4E43BC0C5EBE6
:10217000D4E438C0C6EBD4E435C0C3EBD4E432C0F9
:10218000C4EBD4E42FC0C7EBD4E42CC0CCECD4E433
:1021900029C0CDECD4E426C0C3E8D5E423C0CAE806
:1021A000D5E420C0C2E9D5E41DC0C4E9D5E41AC015
:1021B000C1E2D6E417C0C3E2D6E414C0C4E2D6E458
:1021C00011C0C5E2D6E40EC0C6E2D6E40BC0C7E239
:1021D000D6E408C0CFE6D4E405C0C0E7D4E402C02A
:1021E000CAE2D6E4CE01DF91CF91089582389105FD
:1021F00049F1B0F48133910509F458C048F48932AB
:10220000910509F44EC08A32910509F454C008952D
:102210008533910509F440C08933910599F00895FB
:10222000833E910529F138F4803E910591F0823E7C
:102230009105A1F00895863E9105F9F0873E91053C
:1022400031F108952091300320FD3AC021FD38C0BE
:1022500008958091300380FD35C032C080913003F5
:1022600082FF32C08091300384FD30C083EE39C0DC
:102270008091300382FD28C0F5CF8091300383FF29
:1022800027C08091300384FD21C087EE2AC0809151
:10229000300383FD1DC0F5CF8091300385FD1AC04A
:1022A0001BC08091300385FD17C014C0809130039E
:1022B00086FD14C015C08091300386FD11C00EC08C
:1022C00080EE0FC089E30DC082EE0BC080E009C034
:1022D00086EE07C089E205C085E303C08AE201C03B
:1022E00081E390E008959091300392FF0DC0282F74
:1022F0002871283019F4877F846006C0282F247144
:10230000243011F48B7F886093FF0DC0282F287133
:10231000283119F4877E846106C0282F2471243166
:1023200011F48B7E886194FD877E08950895089549
:10233000E4E3F1E041E050E027E02E0F9191A92F76
:10234000A295AF70B0E091963C9191979F70BA01C1
:1023500002C0660F771F9A95E2F7CB018095832321
:1023600091968C932E13EACFA1E2B1E041E050E0C8
:1023700023E12A0F8D91E82FE295EF70F0E031A173
:102380008F70BA0102C0660F771F8A95E2F7CB0102
:10239000962F9095932391A392A1892B82A32A1320
:1023A000E9CFECE7F1E0A0E6B1E0119211921192D1
:1023B00011921D921D921D921D9271E0E839F7074E
:1023C000A1F787E00E9408130C943D0C2F923F92D6
:1023D0004F925F926F927F928F929F92AF92BF9235
:1023E000CF92DF92EF92FF920F931F93CF93DF93E1
:1023F000CDB7DEB728970FB6F894DEBF0FBECDBFBE
:1024000004E311E01A830983ACE7B1E020E041E086
:1024100050E060E070E0BE83AD838D909D90AD9004
:10242000BC9013971D921D921D921C921397E981E7
:10243000FA818191FA83E983E82FE295EF700E2FFC
:1024400010E018870F83F80191A18F702224239444
:10245000312C01C0220C8A95EAF7892F822981A3A9
:1024600092A1822D8095982392A3F0EAFA95F1F734
:1024700001E211E01C830B8300E010E0EB81FC81A2
:102480003191FC83EB83E32FE295EF70F0E0E0A164
:102490004D905D906D907C901397F0E03F7002C07E
:1024A000F595E7953A95E2F7E0FD0BC06A017B01EF
:1024B000002E04C0CC0CDD1CEE1CFF1C0A94D2F7CD
:1024C00003C0C12CD12C76014C285D286E287F28B2
:1024D0004D925D926D927C9213970F5F1F4F033167
:1024E000110561F6EF81F88591A1892381A382A16D
:1024F000282A22A2149681E0ED81FE81408051803D
:102500006280738084149504A604B70409F480E003
:10251000282BF1E0A839BF0709F07DCF47E060E63E
:1025200071E08CE791E00E9409130E94760B81E034
:1025300028960FB6F894DEBF0FBECDBFDF91CF91C6
:102540001F910F91FF90EF90DF90CF90BF90AF90D1
:102550009F908F907F906F905F904F903F902F90C3
:10256000089524E0829FC0011124FC01E05AFE4F2F
:1025700060817181828193810895CF92DF92EF9281
:10258000FF920F931F93CF93DF9382E394E00E9417
:10259000760A80E6E82E81E0F82EC0E0D0E09DE2E9
:1025A000C92E94E0D92E03E214E0DF93CF93DF929B
:1025B000CF920E940F0B8AE294E00E94760AF70104
:1025C00061917191819191917F010E9468289F93FF
:1025D0008F937F936F931F930F930E940F0B81E252
:1025E00094E00E94760A21968DB79EB70A960FB6A0
:1025F000F8949EBF0FBE8DBFC730D105B1F6DF91F5
:10260000CF911F910F91FF90EF90DF90CF900895A1
:102610000895FF920F931F93CF93DF93F82E092F06
:10262000162FD72FC42F222349F081E080939A01DF
:102630000E94532A909399018093980180919A0166
:102640008823D9F080919801909199010E946B2A7A
:10265000069798F0EF2DF02FA12FBD2F80E08C175B
:1026600051F041915191619171914D935D936D93B1
:102670007D938F5FF4CF10929A01DF91CF911F91DC
:102680000F91FF900895EF92FF920F931F93CF93B6
:10269000DF93E901662309F44BC0242F30E0EFEF0C
:1026A000F0E0E61BF109B901E69F9001E79F300DCC
:1026B000F69F300D1124232F8B01031B11095CE3BE
:1026C000E52EF12CB7010E94EC40FB01BC01069FF6
:1026D000C001079F900D169F900D1124B7010E9415
:1026E000EC40E230F105B1F040F4309779F03197E9
:1026F00011F5832F242F461B21C0E430F105A1F0F2
:1027000068F03597C1F4842F861B18C0832F262FBD
:10271000230F14C0862F830FE42F03C0E42FE61B82
:10272000842F432F2E2F0AC0842F462F430F06C01D
:10273000842F242F03C080E020E040E0E42FF0E06D
:10274000EE5BF84F4491E22FF0E0EE5BF84F94918E
:10275000E82FF0E0EE5BF84FE49149839883EA8339
:10276000DF91CF911F910F91FF90EF90089588E036
:1027700090E00C946E41AB01BC0188E090E00C94B9
:102780008C41EBECF2E083E080831092CC028FEF7F
:1027900082838383148260817181828193810C940E
:1027A000BB138091970280FF08C08FE097E09F9352
:1027B0008F930E940F0B0F900F908091970280FFD4
:1027C0000FC08091CB0281701F928F9382EF96E0B1
:1027D0009F938F930E940F0B0F900F900F900F906D
:1027E0008091970280FF10C08091CB0286958F73F5
:1027F0001F928F9387ED96E09F938F930E940F0B0C
:102800000F900F900F900F908091970280FF19C04A
:102810008091CB02881F8827881F9091CC02292F96
:10282000220F822B97FB992790F99F938F938DEB23
:1028300096E09F938F930E940F0B0F900F900F9035
:102840000F908091970280FF0EC08091CD021F9261
:102850008F9383EA96E09F938F930E940F0B0F90C4
:102860000F900F900F908091970280FF0EC0809183
:10287000CE021F928F9389E896E09F938F930E94D8
:102880000F0B0F900F900F900F908091970280FF89
:102890000EC08091CF021F928F938DE696E09F939A
:1028A0008F930E940F0B0F900F900F900F90089531
:1028B0008091CB0280FF03C086958F73089580E0DE
:1028C00008958091CF0290E001968430910514F034
:1028D00083E090E08093CF026091CB027091CC02B4
:1028E0008091CD029091CE020C94BB138091CF02C7
:1028F00090E0019797FF02C080E090E0843091055E
:1029000014F083E090E08093CF026091CB0270914D
:10291000CC028091CD029091CE020C94BB13809199
:10292000CB0280FF06C06EE170E080ED92E00C9477
:102930006E1B80E090E0FC01E053FD4F118210829D
:10294000128203968A359105B1F7EDCF9091CB02B3
:1029500090FF0FC020E030E0F901E053FD4F81838C
:10296000608342832D5F3F4F2A353105A9F70C94D0
:102970008F140895CF93DF9300D01F92CDB7DEB7A9
:102980002091CB0220FF0AC09E012F5F3F4F0E9483
:1029900043134B8169818A810E94A6140F900F9086
:1029A0000F90DF91CF9108952F923F924F925F92B7
:1029B0006F927F928F929F92AF92BF92CF92DF924F
:1029C000EF92FF920F931F93CF93DF93CDB7DEB7B4
:1029D00027970FB6F894DEBF0FBECDBF8C01262E11
:1029E000342E2D838091CB0280FFDDC0982F9E77FF
:1029F000923061F49E012F5F3F4FC8010E94431344
:102A00004B8169818A810E94A61480C0E82FE695D7
:102A1000EF739EE39E0F9F73943018F43090CE02B4
:102A200075C09AE39E0F9F73993068F4881F8827BA
:102A3000881F9091CC02292F220F022F082B97FB81
:102A4000112710F963C087E28E0F8F738A3008F068
:102A50005DC0F0E07997E0FD03C021E02C8302C067
:102A60003FEF3C83EE7FE85CF84F859094908C813B
:102A7000682E880F7708C4016EE170E00E94EC4078
:102A8000669E2001679E500C769E500C11245801C2
:102A900098E9A91A9EEFB90A80EDC82E82E0D82ED7
:102AA000E12CF12CC50168E671E00E94EC40209118
:102AB000970220FF18C09F928F927F92AC81AF93B4
:102AC0009F938F93FF92EF92A8ECB4E0BF93AF93E4
:102AD0008E839F830E940F0B0FB6F894DEBF0FBE4C
:102AE000CDBF9F818E819601432D622D0E9443139D
:102AF000BFEFEB1AFB0AA40CB51C23E0C20ED11CDD
:102B00003EE1E316F10471F60E948F148091CB022E
:102B100000FB87F98093CB028091CC028078902FC4
:102B20009695892B10FB87F98093CC022092CD02D9
:102B30003092CE028D81882321F16091CB02709179
:102B4000CC028091CD029091CE020E94BB13809165
:102B5000CE021F928F938091CD021F928F9380910E
:102B6000CB02881F8827881F9091CC02292F220F23
:102B7000822B97FB992790F99F938F9383EA94E098
:102B800009C01F923F921F922F9211701F930F93B3
:102B90008CE794E09F938F930E940F0B0FB6F894ED
:102BA000DEBF0FBECDBF27960FB6F894DEBF0FBEB7
:102BB000CDBFDF91CF911F910F91FF90EF90DF90EC
:102BC000CF90BF90AF909F908F907F906F905F90CD
:102BD0004F903F902F900895282FEBECF2E09081DA
:102BE000991F9927991F3091CC02832F880F482F66
:102BF000492B37FB552750F9CA01059668E671E065
:102C00000E940041438162810C94D41481E00C94B1
:102C1000EC15282F9091CB02991F9927991F30917D
:102C2000CC02832F880F482F492B37FB552750F9AB
:102C3000CA01453051051CF48D599E4F01C00597BE
:102C400068E671E00E9400414091CE026091CD02A1
:102C50000C94D41481E00C9409166091CD02262FB7
:102C600030E0263F310514F4665F01C06FEF30910C
:102C7000CB02331F3327331F9091CC02592F550FAE
:102C800097FB992790F9282F4091CE02852F832B0F
:102C90000C94D41481E00C942D166091CD02262F53
:102CA00030E02A30310514F06A5001C060E0309104
:102CB000CB02331F3327331F9091CC02592F550F6E
:102CC00097FB992790F9282F4091CE02852F832BCF
:102CD0000C94D41481E00C944D164091CE02242F14
:102CE00030E0263F310514F4465F01C04FEF3091CC
:102CF000CB02331F3327331F9091CC02592F550F2E
:102D000097FB992790F9282F6091CD02852F832B6F
:102D10000C94D41481E00C946D164091CE02242FB3
:102D200030E02A30310514F04A5001C040E03091C3
:102D3000CB02331F3327331F9091CC02592F550FED
:102D400097FB992790F9282F6091CD02852F832B2F
:102D50000C94D41481E00C948D1620E00C94D414BF
:102D600081E08093B8018091970280FF08C08BE6D4
:102D700094E09F938F930E940F0B0F900F900895F4
:102D80001092B8018091970280FF08C089E594E015
:102D90009F938F930E940F0B0F900F900895909127
:102DA000CB0290FF58C09178811102C0926007C099
:102DB000853210F0986403C08F73880F982B90931E
:102DC000CB02662399F06091CB027091CC02809186
:102DD000CD029091CE020E94BB138091CB028695CA
:102DE0008F731F928F9383EB95E008C08091CB0285
:102DF00086958F731F928F9385E995E09F938F93AC
:102E00000E940F0B0F900F900F900F906091CB02CC
:102E100066956F7370E04BE050E083E091E00E94B4
:102E20005941892B19F00E94C01602C00E94B016A9
:102E30008091CB02881F8827881F9091CC02292F70
:102E4000220F97FB992790F94091CE026091CD0215
:102E5000822B0C94AD160895682F9091CB02969515
:102E60009F7381E0890F853208F081E00C94CF16C2
:102E700081E00C942C17682F9091CB0296959F734C
:102E80008FEF890F09F484E20C94CF1681E00C9443
:102E90003B1761E00C94CF16CF93DF93CBECD2E0DD
:102EA0008881816088831F9281E08F9387E295E01B
:102EB0009F938F930E940F0B0F900F900F900F9086
:102EC000888186958F73DF91CF910C94491760E0CC
:102ED0000C94CF168091970281608093970286E5CB
:102EE00096E09F938F930E940F0B809197020F9013
:102EF0000F9080FF08C080E496E09F938F930E941C
:102F00000F0B0F900F900E949328811110C0809199
:102F1000970280FF08C088E196E09F938F930E94FC
:102F20000F0B0F900F900E9414290E94C1130E9452
:102F3000B7136093CB027093CC028093CD02909331
:102F4000CE026E77C1F48091970280FF08C08FECAB
:102F500095E09F938F930E940F0B0F900F900E940C
:102F6000C1130E94B7136093CB027093CC0280937D
:102F7000CD029093CE020E94D11381E08093B801DC
:102F80008091CB0280FF04C086958F730C946717E5
:102F90000895CF93DF93CBECD2E088818E7F888336
:102FA000688179818A819B810E94BB1388818170AD
:102FB0001F928F938FEE94E09F938F930E940F0B3D
:102FC0000E94C0162FEF80E792E021508040904091
:102FD000E1F700C000000F900F900F900F90DF916D
:102FE000CF910C948F148091CB02809581701F92A9
:102FF0008F938EE595E09F938F930E940F0B8091A6
:10300000CB020F900F900F900F9080FD0C94C9177A
:103010000C944C17CF93C82F8091B6019091B701B3
:103020000E946B2AEC2FF0E0EC5CF84FE491F0E0AA
:103030008E179F0708F443C00E94532A9093B7014C
:103040008093B6016091B50170E080E090E00E944D
:10305000D13E20E030E04FE753E40E94F43D2BEDF9
:103060003FE049E450E40E94FA3F0E9467400E941A
:103070006E3E2BE43AE34EE25FE30E94873D20EF91
:103080003BEF48ED52E40E94FA3F0E94A03E462FDB
:103090008091CB02881F8827881F9091CC02292F0E
:1030A000220F97FB992790F96091CD02822B0E9405
:1030B000BA148091B50190E001968093B501CF914B
:1030C0000895CF93C82F8091B3019091B4010E94CD
:1030D0006B2AEC2FF0E0EF5CF84FE491F0E08E17F4
:1030E0009F07E8F00E94532A9093B4018093B301A4
:1030F0004091CE026091CD028091B1019091B201D8
:103100000E94BA148091B1019091B201019668E6D3
:1031100071E00E94EC409093B2018093B101CF9195
:103120000895CF92DF92FF920F931F93CF93DF9377
:10313000F82E8091AF019091B0010E946B2AEF2D83
:10314000E695F0E0E25DF84FE491F0E08E179F071E
:10315000E8F10E94532A9093B0018093AF0100EDF3
:1031600012E0C0E0D0E088E6C82EDD24D394809140
:10317000AD019091AE018C0F9D1FB6010E94EC40F5
:1031800098014091CE026091CD020E9443132C968B
:103190000D5F1F4FC83681E0D80749F70E948F1492
:1031A0002091AD013091AE01F0FE0AC0C901019637
:1031B000BE010E94EC409093AE018093AD0106C029
:1031C000215031093093AE012093AD01DF91CF91B1
:1031D0001F910F91FF90DF90CF900895AF92BF9213
:1031E000CF92DF92EF92FF920F931F93CF93DF93D3
:1031F000C82F80FF02C01FEF01C011E08091AB011A
:103200009091AC010E946B2AC695EC2FF0E0E55D31
:10321000F84FE491F0E08E179F0708F466C00E9413
:10322000532A9093AC018093AB0120EDC22E22E093
:10323000D22E32EDE32E32E0F32EC0E0D0E0F701E3
:1032400031971082F6011082F701108294E0A92EC6
:10325000B12C00E08091AA01800F87FD825E082ECC
:10326000000C990BC817D907E9F48091CE028A9D0A
:10327000A0018B9D500D1124559547955595479567
:103280008091CB02881F8827881F9091CC02592FEC
:10329000550F97FB992790F996016091CD02852BE8
:1032A0000E944313010FF1E0AF1AB10899F621967D
:1032B00083E0C80ED11CE3E0EE0EF11CCE31D10547
:1032C00009F0BDCF0E948F148091AA01113031F412
:1032D000811102C08DE107C0815005C090E00196C8
:1032E000BE010E9400418093AA01DF91CF911F91FE
:1032F0000F91FF90EF90DF90CF90BF90AF90089527
:103300000F931F93CF93DF93C82F8091A8019091C3
:10331000A9010E946B2AEC2FF0E0E85DF84FE491E0
:10332000F0E08E179F0708F466C00E94532A90931E
:10333000A9018093A80180E090E0FC01E053FD4FDB
:1033400011821082128203968A359105B1F7C0E08E
:10335000D0E00EE110E0CE01B8010E9400414091A2
:10336000A701042E000C550BFC01EE0FFF1FC41724
:10337000D5070CF140910201042E000C550B4C179F
:103380005D07CCF08E0F9F1F9C0120533D4F809115
:10339000CB02881F8827881F9091CC02592F550F88
:1033A00097FB992790F94091CE026091CD02852B31
:1033B0000E94431307C0E80FF91FE053FD4F11822D
:1033C000108212822196CE31D10529F60E948F14E7
:1033D000809101019091A701980F9093A7012091EE
:1033E0000201280F20930201121614F49D311CF0E3
:1033F000819580930101DF91CF911F910F910895E5
:10340000EF92FF920F931F93CF93DF938091A501CB
:103410009091A6010E946B2A883E9340D0F10E94B1
:10342000532A9093A6018093A501C091A301D09146
:10343000A4012196C170DD27D093A401C093A301FC
:1034400080EDE82E82E0F82E10E008E7812F8695C7
:10345000FE01E80FF11DCF0181709927970140917E
:10346000CE026091CD02FC010E9FC0010F9F900D16
:1034700011240E9443131F5FF3E0EF0EF11C1E3175
:1034800029F7DF91CF911F910F91FF90EF900C944E
:103490008F14DF91CF911F910F91FF90EF900895BE
:1034A000CF93DF9300D01F92CDB7DEB78091A101FB
:1034B0009091A2010E946B2AE6E2F7E025913491F7
:1034C00082179307C0F18091A00181110CC09E0169
:1034D0002F5F3F4F4FEF6FEF80E090E00E9443136C
:1034E0008A818093A0010E94532A9093A201809325
:1034F000A10180919F01813051F028F0823061F468
:103500004091A0010AC08091A00140E007C06091F5
:10351000A00140E080E003C040E080E060E00E9465
:10352000A61480919F0190E0019663E070E00E94F4
:10353000004180939F010F900F900F90DF91CF91EA
:1035400008950F931F93CF93DF9380919D019091E6
:103550009E010E946B2A843F914008F448C00E945B
:10356000532A90939E0180939D01C0EDD2E000E02C
:1035700010E020919B0130919C018091CB029091B1
:10358000CC020F3011051CF4232B79F002C0232B41
:1035900061F4881F8827881F592F550F97FB99279B
:1035A00090F99E014091CE020AC0881F8827881F8B
:1035B000592F550F97FB992790F99E0140E0609194
:1035C000CD02852B0E9443130F5F1F4F23960E31B0
:1035D000110579F60E948F1480919B0190919C01B6
:1035E00001968170992790939C0180939B01DF91B4
:1035F000CF911F910F9108958091B8018823D9F13F
:103600009091CB02892F86958F732EE3280F2F730D
:10361000243018F482500C940A182AE3280F2F73D0
:10362000233018F486500C94611827E3280F2F7369
:10363000263018F489500C94911821E3280F2F7329
:10364000263018F48F500C94EE182BE2280F2F73AD
:10365000233018F485510C948019892F8E7780338C
:1036600011F40C94001A863411F40C94501A883416
:1036700011F40C94A11A08952BB1342F3095232303
:103680003BB1432B3FB7F894FC01680F791FE61755
:10369000F70789F0819198E04BB9000000C087FFDF
:1036A0002BB9880F000000C000C000C02BB900C0BB
:1036B0009A9591F7ECCF3FBF08952AB1242B2AB9F0
:1036C0009B01220F331F620F731F0E943C1B87EC6C
:1036D00090E00197F1F700C00000089540E80C94D5
:1036E0005D1B9093BE018093BD010895E091BD01E3
:1036F000F091BE01309721F00190F081E02D099406
:1037000080E00895EF92FF921F93CF93DF93FC0127
:10371000A091BD01B091BE01109709F442C0809103
:103720002001882341F08091300387FF04C080810D
:10373000818385E08083EF011296ED91FC911397D0
:10374000CE0109958091970282FF2BC080FF04C0B3
:103750008AE498E00E94760A18E084E4E82E88E083
:10376000F82E8091970280FF0BC088811F928F9363
:10377000FF92EF920E940F0B0F900F900F900F90FF
:10378000115021961111EDCF8091970280FF09C051
:1037900082E498E0DF91CF911F91FF90EF900C941D
:1037A000760ADF91CF911F91FF90EF900895E091FD
:1037B000BD01F091BE01309739F022E0DC012C937D
:1037C0000480F581E02D099408952091BB0130918A
:1037D000BC018217930771F09093BC018093BB01E9
:1037E000E091BD01F091BE01309721F00680F78194
:1037F000E02D099408952091B9013091BA01821702
:10380000930771F09093BA018093B901E091BD01E3
:10381000F091BE01309721F00084F185E02D0994EC
:10382000089585B7806885BF85B7806885BF08958E
:1038300008950E94111C0C94181C81E008950E94A8
:103840004A2A0E9498110E942A2B0E946B340C94E1
:103850006A17CF93C82F8091970282FF1EC080FF06
:1038600004C083E698E00E94760A8091970280FF68
:103870000CC01F92CF938EE598E09F938F930E9488
:103880000F0B0F900F900F900F908091970280FF79
:1038900004C08CE598E00E94760A8C2FCF910C949E
:1038A000470C4F925F926F927F929F92AF92BF921E
:1038B000CF92DF92EF92FF920F931F93CF93DF93FC
:1038C000CDB7DEB72E970FB6F894DEBF0FBECDBFD3
:1038D0000E94E6110E941D1C811111C08FEF898387
:1038E0008A831B820E94532A8160782F9D838C8358
:1038F00049815A816B818D810E94341D7CC040ECCE
:10390000A42E41E0B42E00E010E0902E802F0E9403
:10391000B112F501C190D190E190F1905F01C626FE
:10392000D726E826F926C114D104E104F10431F4C4
:103930000F5F1F4F0730110541F7D0CF209197023D
:1039400021FF0AC06B877C878D879E870E94BD12EE
:103950009E858D857C856B8540E050E02601370192
:10396000042E04C076946794579447940A94D2F72F
:1039700040FE3AC04E839F82C12CD12C7601C39465
:1039800004C0CC0CDD1CEE1CFF1C4A95D2F72601AE
:103990003701462257226822792281E045284628AD
:1039A000472809F480E088870E94532A8160782F95
:1039B0009A8789874E815F8168858A850E94341D38
:1039C000000F111F000F111FF801E054FE4F8081FE
:1039D0009181A281B381C826D926EA26FB26C0821E
:1039E000D182E282F38207C04F5F5F4F43315105BE
:1039F00009F0B4CF9DCF0E94572E1091BF010E94B5
:103A0000761B1817D9F00E94761B8093BF012E9663
:103A10000FB6F894DEBF0FBECDBFDF91CF911F91DF
:103A20000F91FF90EF90DF90CF90BF90AF909F905D
:103A30007F906F905F904F900C94291C2E960FB63C
:103A4000F894DEBF0FBECDBFDF91CF911F910F91D4
:103A5000FF90EF90DF90CF90BF90AF909F907F90BE
:103A60006F905F904F900895CF93DF93CDB7DEB7FF
:103A70002B970FB6F894DEBF0FBECDBF4F8358878C
:103A800069877A878B87DE01119686E0FD011192A6
:103A90008A95E9F785E0FE01379601900D928A95A7
:103AA000E1F749815A816B817C818D819E810E94E1
:103AB0009B242B960FB6F894DEBF0FBECDBFDF91CF
:103AC000CF910895FC01808191810E94652708951E
:103AD000CF93DF931F92CDB7DEB7882309F42DC1B2
:103AE000682F8238C1F40E94761B81FD26C169E3EC
:103AF00080910E0190910F010E949D290E94C42780
:103B00002FEF81EE94E0215080409040E1F700C01B
:103B1000000069E319C0833811F50E94761B80FD0F
:103B20000CC163E580910E0190910F010E949D29C7
:103B30000E94C4272FEF81EE94E0215080409040F6
:103B4000E1F700C0000063E580910E0190910F0144
:103B50000E94A8290F90DF91CF910C94C42784383C
:103B6000C1F40E94761B82FDE8C067E480910E01DB
:103B700090910F010E949D290E94C4272FEF81EE92
:103B800094E0215080409040E1F700C0000067E4DD
:103B9000DBCF8CEF860F813A70F4862F69830E9409
:103BA0001F3369818111C9C080910E0190910F016D
:103BB0000E949D29CFCF80E2860F883048F467703D
:103BC00081E001C0880F6A95EAF70E94FA27C2CF08
:103BD0008BE5860F833088F4653A29F0663A31F038
:103BE00083E890E005C081E890E002C082E890E0C0
:103BF0000F90DF91CF910C94E51B88E5860F8731FC
:103C000008F091C0683A09F445C0693A09F445C022
:103C10006A3A09F445C06B3A09F445C06C3A09F4B4
:103C200045C06B3B09F445C06C3B09F445C06D3A97
:103C300009F445C0603B09F445C06E3A09F445C03B
:103C40006F3A09F445C0613B09F445C0623B09F491
:103C500045C0633B09F445C0643B09F445C0653B7E
:103C600009F445C0663B09F445C0673B09F445C00B
:103C7000683B09F445C0693B09F445C06D3B09F454
:103C800045C06E3B09F445C06A3B09F445C080E07D
:103C900090E044C082EE90E041C089EE90E03EC0EA
:103CA0008AEE90E03BC085EB90E038C086EB90E078
:103CB00035C083EB90E032C084EB90E02FC087EBFF
:103CC00090E02CC08CEC90E029C08DEC90E026C0F8
:103CD00083E891E023C08AE891E020C082E991E086
:103CE0001DC084E991E01AC081E292E017C083E22E
:103CF00092E014C084E292E011C085E292E00EC02E
:103D000086E292E00BC087E292E008C08FE690E086
:103D100005C080E790E002C08AE292E00F90DF9158
:103D2000CF910C94FB1B603F40F0862F0E94DD2C4E
:103D30000F90DF91CF910C94CA2D0F90DF91CF910E
:103D40000895882309F464C0823879F40E94761BB0
:103D500081FF5EC069E380910E0190910F010E9486
:103D60009D290E94C42769E310C08338B1F40E94E2
:103D7000761B80FF4DC063E580910E0190910F018D
:103D80000E949D290E94C42763E580910E019091B5
:103D90000F010E94A8290C94C427843879F40E944A
:103DA000761B82FF35C067E480910E0190910F0170
:103DB0000E949D290E94C42767E4E7CF9CEF980FDB
:103DC000913A10F4682FE1CF90E2980F983050F4B8
:103DD000877091E001C0990F8A95EAF7892F0E94B8
:103DE0000028D9CF9BE5980F933020F480E090E035
:103DF0000C94E51B98E5980F973120F480E090E053
:103E00000C94FB1B803F20F00E94452D0C94CA2D82
:103E10000895882321F00E94FA270C94C42708955E
:103E2000882321F00E9400280C94C42708954F9203
:103E30005F926F927F92BF92CF92DF92EF92FF924A
:103E40000F931F93CF93DF937C01D62FC72FFC01D5
:103E5000058102950F70128111110E9417280E948E
:103E6000BD27882379F0112369F080E28D0F883017
:103E700048F082E00E94A6270E94BD2791E0B82E5C
:103E8000B92601C0B12CCC2EC2948FE0C822D12C0F
:103E9000F601E25AFF4F0C9436418C2F807FCF7091
:103EA000882311F0C295C07F112399F0CC2309F427
:103EB000D0C180E28D0F883010F0D11104C08C2F5A
:103EC0000E94FA2703C08C2F0E940A280E94C42750
:103ED000C0C18D2F0E94A11ECC2309F403C280E231
:103EE0008D0F883010F0D11104C08C2F0E94002853
:103EF00003C08C2F0E9410280E94C427F3C18C2F6E
:103F0000807FCF70803211F0C295C07FDD2319F021
:103F1000D130C9F022C0112371F0002341F00130EB
:103F200031F40E9430288C2B0E942A28DBC10E9489
:103F300030288C2B46C1002319F0013009F4D2C17E
:103F40000E942D2818C0112321F0063008F0CAC1A4
:103F50000EC0053008F0C6C10EC0112351F0002379
:103F600031F0F701858180FF74C18F7085838C2FBC
:103F700028C101117FC18C2F2AC18C2F869586956F
:103F8000837090E0009719F0019761F0ABC11123A5
:103F900021F08D2F9C2F937002C080E090E00E9452
:103FA000E51BB0C1112321F08D2F9C2F937002C00F
:103FB00080E090E00E94FB1BA5C11123F9F0D53FE2
:103FC00051F0D63F71F0D43FA9F480912A0390912B
:103FD0002B0381600BC080912A0390912B03826098
:103FE00005C080912A0390912B03846090932B034A
:103FF00080932A038D2F0E94DD2C1EC0D53F51F0E7
:10400000D63F71F0D43FA9F480912A0390912B03FD
:104010008E7F0BC080912A0390912B038D7F05C06A
:1040200080912A0390912B038B7F90932B03809395
:104030002A038D2F0E94452D0E94CA2D63C18C2F0B
:10404000837009F050C0111159C18D2F829586954A
:104050008770880F880F9D2F9F70492E512C612CDF
:10406000712C082E04C0440C551C661C771C0A9445
:10407000D2F7D4FF14C00FE010E020E030E0B90127
:10408000A80104C0440F551F661F771F8A95D2F7F9
:10409000CB01BA01609570958095909503C060E062
:1040A00070E0CB01C695C695C370D0E0C230D10593
:1040B00061F0C330D10581F06429752986299729DB
:1040C000219771F00E94E02519C16429752986297C
:1040D00097290E94F22512C10E94E025C301B20176
:1040E0000E94CE250BC1112319F08C2F817001C0C5
:1040F0008695882309F402C18D2F82958695877055
:10410000880F880F9D2F9F70492E512C612C712C88
:10411000082E04C0440C551C661C771C0A94D2F768
:10412000D4FF14C00FE010E020E030E0B901A80196
:1041300004C0440F551F661F771F8A95D2F7CB0125
:10414000BA01609570958095909503C060E070E02D
:10415000CB01C695C695C3704C2F50E04230510537
:1041600069F04330510589F064297529862997291A
:104170004130510571F00E94A626C0C064297529FE
:10418000862997290E94B826B9C00E94A626C30195
:10419000B2010E949426B2C08D2F90E0FC01E05E37
:1041A000F109E531F10508F050C0E259FF4F0C94D8
:1041B0003641DF708C2F8F71112331F00E942D2634
:1041C0008D2F0E94091F8EC00E944E268D2F0E94A7
:1041D000101F88C0112341F0053008F083C08C2FD8
:1041E0008F710E9473267EC0063008F07BC0F7CF27
:1041F000112339F08C2F8F710E942D2673C011234B
:10420000C9F38C2F8F710E944E266CC0112329F0A8
:104210008C2F8F710E94182665C00E94132662C0E1
:10422000112349F0CF718C2F0E942D2663E08C2F33
:104230000E949D2757C081E00E94A627023008F403
:1042400051C082E00E94A6274DC0112331F0002307
:1042500089F28D2F0E94681D45C0002391F2D93349
:1042600049F45FEF67EE73E0515060407040E1F752
:1042700000C000008D2F0E94A11E34C04C2F4F7033
:104280006D2FC7010E94E80E0E943F253BC011110F
:1042900039C0CF70D0E0C230D10599F03CF42097FE
:1042A00069F02197F9F40E94B8342CC0C430D105CC
:1042B00071F054F02597B1F480E00AC00E94883470
:1042C00021C00E9422351EC00E943E351BC083E0E3
:1042D0000E94743517C04C2F4F706D2FC7010E947C
:1042E000EB0E10C088E0C816D10441F05CF0EAE0A3
:1042F000CE1AD108F2E0CF16D10420F40E94761B2A
:104300000E94470CBB20F1F00E94992780FD1AC043
:10431000F70112820E9493270E942D26C7010E9456
:10432000B0210E949327DF91CF911F910F91FF90B1
:10433000EF90DF90CF90BF907F906F905F904F9005
:104340000C944E26DF91CF911F910F91FF90EF902B
:10435000DF90CF90BF907F906F905F904F900895C7
:104360000F931F93CF93DF93EC01888199812B8169
:104370003C81232BB9F09F3F11F48F3F99F0CE0180
:104380000E94590C882371F0688179818A810E948A
:1043900070278C010E94CA260E94CB25B801CE014D
:1043A0000E94171FDF91CF911F910F9108950E94D6
:1043B00017280E9427280E94C4270E94F22E0E94DC
:1043C000CA2D80E090E00E94E51B80E090E00C9414
:1043D000FB1B80910E0190910F010E94B3290C9458
:1043E000D7210E9407280C94E921E92FE295EF706C
:1043F000F0E03297EE30F105B0F4ED57FF4F0C943A
:104400003641803F91F018F4803E68F40EC0843F3E
:1044100051F40BC0803E48F0813F29F406C093FB65
:10442000882780F9089580E0089581E008950E942A
:1044300065270E94F5210895CF93DF9300D000D027
:104440001F92CDB7DEB70F900F900F900F900F9087
:10445000DF91CF910895CF93DF9300D000D000D0AB
:10446000CDB7DEB726960FB6F894DEBF0FBECDBF30
:10447000DF91CF9108951F93CF93DF93C091DD011A
:1044800016E08091DE01C81799F0D0E01C9FF00182
:104490001D9FF00D1124E152FE4F40815181628138
:1044A0007381848195810E942B222196C770E9CF68
:1044B000DF91CF911F91089540910F02509110020A
:1044C0006091110270911202809113029091140276
:1044D0000C942B228091140282958F7009F054C0A5
:1044E00080911102882309F44FC08091DD01A091D1
:1044F000DE0160910F027091100240911202509102
:104500001302B6E08A1709F43FC090E04115510547
:10451000C1F17F3F11F46F3FA1F1B89FF001B99F46
:10452000F00D1124E152FE4F218172132AC0208127
:10453000621327C02281211124C0238134812417D2
:10454000350710F421503109241B350B283C310567
:10455000C0F4209114022F7020612093140226E0F1
:10456000289FF001299FF00D1124EC51FE4F80810E
:104570008F70806180838FE092E00E94B0210C9464
:104580003B2201968770BECF0895CF92DF92EF92C3
:10459000FF920F931F93CF93DF93CDB7DEB7629750
:1045A0000FB6F894DEBF0FBECDBF8C0185E0F801D9
:1045B000DE011D9601900D928A95E1F7D8014C918C
:1045C00011965C91119712966C9112971396CD905B
:1045D000DC90149730910F027091100280911202BA
:1045E00090911302009709F46BC17F3F19F43F3F8C
:1045F00009F466C1E0901102EE2009F4C0C02091D8
:104600001402C816D90628F0F601E81BF90BCF01F1
:1046100004C0809590958C0D9D1DFF24F394883CDB
:10462000910578F0F12C207F09F0C6C07C2DD98A45
:10463000C88A89890E941C228FE092E00E94B021E2
:10464000B1C0822F807F09F046C0751314C03413A7
:1046500012C0611110C02F702061209314020E94BB
:104660005C228FE092E00E94B02180911402D80178
:1046700015968C932EC0CD2819F15F3F11F44F3F52
:10468000F9F0F62E61111CC08091DD012091DE0150
:1046900036E0821709F45AC090E0389FF001399F44
:1046A000F00D1124E152FE4F7181571306C0708145
:1046B000471303C07281711103C001968770E9CF5F
:1046C000F62E662309F427C180911402816080933D
:1046D0001402F12C20C1751308C0341306C06111F7
:1046E00004C080911402D801C3C04D875E878D85B8
:1046F0009E856A8B0E9417226A898823E1F16623CE
:10470000D1F120911402822F82958F7090E0029750
:1047100074F080910F029091100298878F83198610
:10472000DB86CA862C87CE0107960E94B02186E0E0
:10473000F801AFE0B2E001900D928A95E1F70E9496
:104740006A220E945C22FF24F394E5C04D875E87B5
:104750008D859E850E946527292F22952F7030E038
:10476000223031050CF0CBC09F7009F0C5C0805ECF
:10477000883008F4D0C0C8010E94B021E4CFC81628
:10478000D90608F453C0F601E81BF90BCF01883CA9
:10479000910508F450C0F12C7C2DD98AC88A8989EA
:1047A0000E941C22EFE0F2E086E0DF011D928A9574
:1047B000E9F70E945C22AFC0751314C0341312C015
:1047C000611110C080911402F8018583C8010E9414
:1047D000B02186E0EFE0F2E0DF011D928A95E9F773
:1047E000FE2C99C04D875E878D859E856A8B0E94C1
:1047F00017226A89882309F4BECF662309F4BBCF48
:1048000020911402822F82958F7090E002970CF411
:104810008ECF80910F02909110029A8389831B8220
:10482000DD82CC822E83CE0101967FCF809590953C
:104830008C0D9D1DACCFF62E662309F49CCF75130D
:104840002EC034132CC02091140220FD1FC0822FD3
:1048500082958F70D9F0D80115962C9315978F30CB
:1048600049F08F5F982F9295907F822F8F70892BC0
:1048700015968C93C8010E94B02186E0F801AFE044
:10488000B2E001900D928A95E1F793CF86E0F801AE
:10489000AFE0B2E001900D928A95E1F73CC04D8700
:1048A0005E878D859E850E941722811140CF809161
:1048B0001402816080931402C8010E94B0212BC0B1
:1048C000662309F458CF4D875E878D859E850E94AB
:1048D0001722F82E882309F44ECF86E0F801AFE0C6
:1048E000B2E001900D928A95E1F78FE092E00E948C
:1048F000621D0E946A225DCF811139CF0CC0243025
:1049000031050CF038CF9F7009F431CFF801958153
:10491000907F09F02CCF8F2D62960FB6F894DEBFF2
:104920000FBECDBFDF91CF911F910F91FF90EF9000
:10493000DF90CF9008951F93CF93DF93CDB7DEB76D
:104940002C970FB6F894DEBF0FBECDBF4F835887AC
:1049500069877A878B879C87CE0107960E94C5223C
:10496000882369F08F8198852A853B85232BF1F177
:104970009F3F09F063C08F3F09F060C037C086E0F9
:10498000FE013796DE01119601900D928A95E1F7AE
:104990006F817885EA85FB85309741F17F3F11F47F
:1049A0006F3F21F12091DE0130E0C901019687704F
:1049B00099274091DD0150E08417950709F447C01D
:1049C00069837A83FD83EC8396E0929FD001939F65
:1049D000B00D1124A152BE4FFE01319601900D92EF
:1049E0009A95E1F78093DE010E943B2216E08091C8
:1049F000DD019091DE018917C1F1189FC0011124DA
:104A000081529E4F0E94C522882379F1E091DD01F9
:104A10001E9FF0011124E152FE4F408151816281BD
:104A20007381848195810E942B228091DD0190E029
:104A30000196877099278093DD01D9CF4F815885E2
:104A400069857A858B859C850E942B22CFCF0E9419
:104A5000F1211092DE011092DD01EFE0F2E086E03C
:104A6000DF011D928A95E9F7C1CF2C960FB6F89415
:104A7000DEBF0FBECDBFDF91CF911F910895EF92A2
:104A8000FF920F931F93CF93DF938C01892B09F42F
:104A90006CC0F12CEE24E394E8012196F801849196
:104AA000843740F4843008F051C0813081F0823086
:104AB00019F15BC0853709F444C0A8F19CE7980F51
:104AC000903708F052C08F770E94A11E41C00E5F40
:104AD0001F4FFE01C49180E28C0F883048F4C770EC
:104AE0008E2D01C0880FCA95EAF70E941A2814C0BB
:104AF0008C2F0E94681D2DC00E5F1F4FFE01C491B8
:104B000080E28C0F883058F4C7708E2D01C0880F5A
:104B1000CA95EAF70E9420280E94C4271AC08C2F49
:104B20000E94A11E16C00E5F1F4FFE01C491CC2330
:104B300081F08FE99FE00197F1F700C00000C150BC
:104B4000F6CF0E5F1F4FFE01F49003C00E94681D58
:104B50008E018F2D882309F49FCFEFE9FFE0319775
:104B6000F1F700C000008150F5CFDF91CF911F9188
:104B70000F91FF90EF90089508950C94BC250E942A
:104B8000BD2560936E0270936F02809370029093C4
:104B900071020C94D72108950C94BF250F931F9395
:104BA00000916E0210916F0220917002309171029B
:104BB000602B712B822B932B1F910F910C94BF258F
:104BC0000F931F9300916E0210916F02209170025B
:104BD0003091710260237123822393231F910F91DF
:104BE0000C94BF250F931F9300916E0210916F02DA
:104BF00020917002309171026027712782279327DC
:104C00001F910F910C94BF2508950C9404260E94C7
:104C1000052660936A0270936B0280936C029093F6
:104C20006D020C94D72160E070E0CB010C94072654
:104C30000F931F9341E050E060E070E08A019B0118
:104C400004C0000F111F221F331F8A95D2F7C9011C
:104C5000B8011F910F910C9407260F931F9341E009
:104C600050E060E070E004C0440F551F661F771FDE
:104C70008A95D2F780916A0290916B02A0916C02A2
:104C8000B0916D028A019B01082B192B2A2B3B2B1B
:104C9000C901B8011F910F910C9407260F931F9320
:104CA00041E050E060E070E004C0440F551F661F13
:104CB000771F8A95D2F740955095609570958091B1
:104CC0006A0290916B02A0916C02B0916D028A0110
:104CD0009B01082319232A233B23C901B8011F91F3
:104CE0000F910C9407260F931F9341E050E060E072
:104CF00070E004C0440F551F661F771F8A95D2F7D6
:104D000080916A0290916B02A0916C02B0916D0249
:104D10008A019B01082719272A273B27C901B801C7
:104D20001F910F910C9407260F931F9300916A0215
:104D300010916B0220916C0230916D02602B712BEF
:104D4000822B932B1F910F910C9407260F931F9387
:104D500000916A0210916B0220916C0230916D02F9
:104D600060237123822393231F910F910C940726B4
:104D70000F931F9300916A0210916B0220916C02B5
:104D800030916D0260277127822793271F910F9121
:104D90000C940726089523E1929F800D1124A82FDB
:104DA000A695A695A695877051E001C0550F8A95E6
:104DB000EAF785E0A89FD001112420E030E070E000
:104DC000F901EA0FFB1FEB5EFD4F4081CB01022E84
:104DD00002C0969587950A94E2F78170992781958C
:104DE00084278523842780832F5F3F4F253031051B
:104DF00039F7089523E1929F800D1124682F66955D
:104E000066956695982F977085E0689FB00111248C
:104E100040E050E080E0FA01E60FF71FEB5EFD4F47
:104E2000208130E0092E02C0369527950A94E2F7DA
:104E300021703327042E01C0220F0A94EAF7822B37
:104E40004F5F5F4F4530510531F70895CF92DF92A4
:104E5000EF92FF920F931F93CF93DF938C01C0903B
:104E60006E02D0906F02E0907002F090710280911B
:104E70006A0290916B02A0916C02B0916D02C82AF7
:104E8000D92AEA2AFB2ACFE1D0E0D701C6010C2EAD
:104E900004C0B695A795979587950A94D2F780FF99
:104EA00006C0B8018C2F0E94060F019721F42197AC
:104EB00060F780E001C08C2FDF91CF911F910F919F
:104EC000FF90EF90DF90CF900895CF93DF93EC01A8
:104ED0000E942627BE010E94060FDF91CF91089500
:104EE0001F93CF93DF93EB019091DC01992321F085
:104EF000CB010E94652713C0882349F0CB010E9493
:104F00002627182F682FCE010E94CB2604C0CB0184
:104F10000E94FA26182FBE01812F0E94060FDF91F2
:104F2000CF911F9108958091720285958595859501
:104F30000895809172028770089598E0899F90018A
:104F40001124262B209372020C942D26209172029C
:104F50008095822380937202982F977069F430E0D5
:104F6000482F082E000C550B2417350729F085957E
:104F7000859585950C944E260895909172029770B0
:104F800081E009F480E00895E0910E01F0910F01B5
:104F9000809196028083E0910E01F0910F01908143
:104FA00080919502892B8083E0910E01F0910F0191
:104FB000908180919402892B808380917302882351
:104FC00081F0E0910E01F0910F019081892B808397
:104FD00080910E0190910F010E941629811110926B
:104FE000730280910E0190910F010C94821B8091AD
:104FF0009602089590919602892B809396020895C7
:10500000809590919602892380939602089510923C
:105010009602089590919502892B809395020895A8
:10502000809590919502892380939502089510921E
:105030009502089590919402892B8093940208958B
:105040008095909194028923809394020895109200
:105050009402089580937302089510927302089544
:10506000809173020895909355018093540108959F
:105070008295982F9C7C392F36953695282F23734F
:1050800044E0249FC0011124932F982B292F2A7AC2
:105090002695892F8575880F822B08951F93CF93AE
:1050A000DF931F92CDB7DEB799830E943828182F5F
:1050B0009981892F0E943828212F30E0322F222712
:1050C000A901482BCA010F90DF91CF911F9108953C
:1050D000CF92DF92EF92FF920F931F93CF93DF93C4
:1050E0006B017C01CB010E944E28EC01C7010E949C
:1050F0004E28AC01CE01A0E0B0E0DC019927882762
:1051000060E070E08C019D01042B152B262B372BC2
:10511000C901B801DF91CF911F910F91FF90EF90DE
:10512000DF90CF90089580E090E00E94744121E0EC
:105130008D3E9E4F09F020E0822F089582E090E09E
:105140000C946641682F82E090E00C947A4183E0F1
:1051500090E00C946641682F83E090E00C947A41D3
:1051600084E090E00C946641682F84E090E00C9419
:105170007A4186E090E00C946641682F86E090E0EA
:105180000C947A41AB01BC018FE090E00C948C410F
:10519000AB01BC0183E190E00C948C4160E070E0D5
:1051A000CB010C94C82860E070E0CB010E94C228BB
:1051B0000C94CE286DEE7EEF80E090E00E94984146
:1051C00060E082E090E00E947A4160E083E090E05D
:1051D0000E947A4110926E0210926F021092700239
:1051E0001092710260E084E090E00E947A4160E0F9
:1051F00085E090E00E947A4160E086E090E00E94C5
:105200007A416FEF87E090E00E947A4140E050E001
:10521000BA0188E090E00E948C4160E08DE090E06F
:105220000E947A410C94D3280C94DA28FC0132961F
:1052300080912001882331F08091300387FF02C0E4
:105240009EE101C096E080E0915028F02191222358
:10525000D9F38F5FF9CF08959C01FC0132969FEF3F
:1052600080E04191461789F09F3F19F4411101C038
:10527000982F8F5F8630A9F79F3F39F0F901E90F2A
:10528000F11D97FDFA95628308950895FC01329609
:1052900008962081261301C010823196E817F9077D
:1052A000C1F70895262F2695269526952E3170F460
:1052B000FC01E20FF11D677021E030E001C0220F18
:1052C0006A95EAF78281282B2283089580919702BC
:1052D00080FF0CC01F926F9384E998E09F938F9397
:1052E0000E940F0B0F900F900F900F900895262F94
:1052F0002695269526952E3178F4FC01E20FF11DB6
:10530000677021E030E001C0220F6A95EAF720952E
:1053100082812823228308958091970280FF0CC008
:105320001F926F9386E798E09F938F930E940F0BD5
:105330000F900F900F900F9008952091200122233D
:1053400029F02091300327FD0C9452290C942C292C
:1053500020912001222329F02091300327FD0C9475
:1053600077290C94462920912001FC0132962223B2
:1053700031F08091300387FF02C08EE101C086E0EA
:10538000DF011D928A95E9F7089508950C94C529C7
:105390000E94C62980913703843061F110929802EF
:1053A00020E488E190E00FB6F894A895809360001F
:1053B0000FBE2093600080E00E94780B80E00E9486
:1053C000470C0E94C62983B7817F846083BF83B75F
:1053D000816083BF7894889583B78E7F83BF0FB633
:1053E000F894A89580916000886180936000109285
:1053F00060000FBE089508950895CF930E94FB2981
:105400000E94E6110E94FC29C0E08C2F0E94B1127C
:10541000672B682B692B29F4CF5FC730B1F780E089
:1054200001C081E0CF91089508950C94142A0E9440
:10543000F1210E946B340E94761B0E94470C0C9451
:10544000152A1F920F920FB60F9211248F939F93DC
:10545000AF93BF9380919802811113C080912C0368
:1054600090912D03A0912E03B0912F034196A11D81
:10547000B11D80932C0390932D03A0932E03B09322
:105480002F03BF91AF919F918F910F900FBE0F90FF
:105490001F90189582E084BD93E095BD9AEF97BD6B
:1054A00080936E0008952FB7F89480912C0390910B
:1054B0002D03A0912E03B0912F032FBF08952FB776
:1054C000F89460912C0370912D0380912E0390919C
:1054D0002F032FBF0895CF92DF92EF92FF920F9389
:1054E0001F932FB7F89440912C0350912D03609196
:1054F0002E0370912F032FBF6A017B01EE24FF243E
:105500008C0120E030E0C016D106E206F30610F46C
:10551000415051099A01281B390BC9011F910F9164
:10552000FF90EF90DF90CF90089578941F920F92A4
:105530000FB60F9211248F939F93AF93BF938091D7
:105540002C0390912D03A0912E03B0912F0301966F
:10555000A11DB11D80932C0390932D03A0932E03C6
:10556000B0932F03BF91AF919F918F910F900FBE7A
:105570000F901F90189581E08093E00080E2809367
:10558000D8001092C9008FE19EE40197F1F700C0A6
:10559000000087E090EBDC0180934003909341038F
:1055A000A0934203B09343039CE088E10FB6F894C4
:1055B000A895809360000FBE90936000FFCF8F92FC
:1055C0009F92AF92BF92EF92FF920F931F93CF9350
:1055D000C0E0E82EF12C8C2F0E94B1124B015C012F
:1055E00000E010E0D501C401002E04C0B695A795D7
:1055F000979587950A94D2F780FD06C00F5F1F4FDD
:105600000331110579F70AC0602F7C2F80E00E94DA
:10561000EC0EE816F90691F781E004C0CF5FC730C1
:10562000D1F680E0CF911F910F91FF90EF90BF9046
:10563000AF909F908F900895CF93C82F8CE20E94D7
:10564000DF2A882321F08C2FCF910C94DF2A80E071
:10565000CF910895CF930E949328811102C00E9498
:10566000142989EB98E00E94760AC5E6C15049F0FA
:105670000E94E6118FE39CE90197F1F700C000005A
:10568000F5CF82EB98E00E94760A89E20E941C2BFB
:1056900081110FC18AE20E941C2B81110E941429E2
:1056A00085E00E941C2B81110E94BB2A0E949E282B
:1056B0008093970287E00E941C2B8823A9F18BE13D
:1056C0000E941C2B882351F08091970281FB222796
:1056D00020F991E0922790FB81F90EC08EE00E94A4
:1056E0001C2B882361F08091970282FB222720F9EE
:1056F00091E0922790FB82F98093970215C080E198
:105700000E941C2B90919702882341F093FB222743
:1057100020F981E0822780FB93F904C0892F8095CE
:1057200080FB90F990939702809197020E94A228A3
:105730000E94B02890E0909331038093300380EE74
:105740000E941C2B882341F080913003982F909564
:1057500090FB80F98093300389E30E941C2B8823FF
:1057600059F08091300381FB222720F991E09227A4
:1057700090FB81F98093300382EE0E941C2B8823DA
:1057800059F08091300382FB222720F991E0922783
:1057900090FB82F98093300386EE0E941C2B8823B5
:1057A00059F08091300383FB222720F991E0922762
:1057B00090FB83F98093300383EE0E941C2B882397
:1057C00059F08091300384FB222720F991E0922741
:1057D00090FB84F98093300385E30E941C2B88237F
:1057E00059F08091300385FB222720F991E0922720
:1057F00090FB85F98093300381E30E941C2B882362
:1058000059F08091300386FB222720F991E09227FE
:1058100090FB86F98093300381E10E941C2B882342
:1058200059F08091300387FB222720F991E09227DD
:1058300090FB87F980933003809130030E94B42855
:1058400087E20E941C2BC82F8EE10E941C2B811125
:10585000C2608FE10E941C2B8111C46080E20E9413
:105860001C2B8111C86081E20E941C2B8111C06138
:1058700082E20E941C2B8111C06283E20E941C2BD9
:105880008111C06484E20E941C2B882311F0C0683F
:1058900002C0CC2329F08C2F0E94AB286C2F03C0B0
:1058A0000E94A728682F70E080E090E0CF910C94D0
:1058B000CC25CF91089580919B0280FF0BC0609111
:1058C000130185E0689FB001112475956795759562
:1058D00067952BC081FF09C06091130185E0689F27
:1058E000B00111247595679520C082FF07C06091B3
:1058F000130185E0689FB001112417C090919C02AC
:105900009923D1F060911201961788F72091130125
:1059100085E0289F90011124929FA001939F500D34
:10592000112470E0CA010E9400416038710540F402
:105930006115710539F002C065E070E0862F0895A9
:105940008FE7089581E0089580919B0280FF08C051
:105950006091110170E0759567957595679521C007
:1059600081FF06C06091110170E07595679519C0BF
:1059700082FF04C06091110170E010C090919C0200
:105980009923C1F0609110019617A0F78091110141
:10599000899FC001112470E00E94004160387105A8
:1059A00028F46115710521F0862F08958FE7089579
:1059B00081E0089561E070E0F4CF803F21F40E941F
:1059C0005B2C819504C0813F29F40E945B2C80935D
:1059D000A0020895823F21F40E945B2C819504C0AF
:1059E000833F29F40E945B2C80939F020895893F96
:1059F00019F40E94A42C05C08A3F31F40E94A42C03
:105A000081958093A10208958B3F21F40E94A42CDC
:105A1000819504C08C3F29F40E94A42C8093A2029B
:105A20000895843F21F480919E02816017C0853FD4
:105A300021F480919E02826011C0863F21F4809102
:105A40009E0284600BC0873F21F480919E02886093
:105A500005C0883F31F480919E02806180939E0250
:105A600008958D3F21F480919B0281600BC08E3F91
:105A700021F480919B02826005C08F3F29F48091C0
:105A80009B02846080939B020895803F39F480914B
:105A9000A00287FF6CC01092A00269C0813F29F468
:105AA0008091A0021816BCF362C090919F02823FC1
:105AB00029F497FF5CC010929F0259C0833F19F4EC
:105AC0001916CCF354C0893F41F48091A1021816F5
:105AD0000CF04DC01092A1024AC08A3F29F4809177
