:100000000C9433080C9477080C9477080C947708B8
:100010000C9477080C9477080C9477080C94770864
:100020000C9477080C9477080C94D12C0C94A32D85
:100030000C944D230C9477080C9477080C94770853
:100040000C9477080C9477080C9477080C94770834
:100050000C9477080C94B4230C9477080C947708CC
:100060000C9477080C9477080C9477080C94770814
:100070000C9477080C9477080C9477080C94770804
:100080000C9477080C9477080C9477080C947708F4
:100090000C9477080C9477080C9477080C947708E4
:1000A0000C9477080C9477080C947708A608B0088D
:1000B000BA08C408CD08D708E208A409AA09AE09FD
:1000C000B109B509B909BD09C109C609CA09CE09ED
:1000D000D209D509D909DD09E109E509EA09F918C3
:1000E000F91833193319761998192E1B2E1BDE199E
:1000F0002E1B851A851AFC1A031B2E1B291B921A0C
:10010000921A921A921A921A921A921A921A921A8F
:10011000921A921A921A921A921A921A921AA41A6D
:10012000B41ABB1AC21ACC1AC21BC21BD51BD51BD0
:10013000CB1BD51BD51BD51BC21BC21BD11BD51B73
:10014000D51BD11B082E2F2E1D2F2F2E1D2F772EA6
:100150009A2E1D2FF02EFF2E07634236B79BD8A78D
:100160001A39685618AEBAAB558C1D3CB7CC5763DC
:10017000BD6DEDFD753EF6177231BF000000803F8A
:1001800005A84CCDB2D44EB93836A9020C50B9915D
:100190008688083CA6AAAA2ABE000000803F00F07C
:1001A00001F002F003F004F005F006F029003A0037
:1001B0003B003C003D003E003F004000410042004B
:1001C000430044004500460047004C0035001E0037
:1001D0001F0020002100220023002400250026000B
:1001E00027002D002E004C002A004A002B000000A2
:1001F00014001A000800150017001C0018000C005D
:10020000120013002F00300032004B00E00000000D
:1002100004001600070009000A000B000D000E0084
:100220000F0033003400280000004E00E10064009D
:100230001D001B000600190005001100100036000B
:10024000370038000000E50052004D00E3000000D8
:100250000000E2002C0000002C0000002C00000038
:10026000E6000000E700500051004F0001000100CF
:100270000100010001000100010001000100010076
:100280000100010001000100010001000100010066
:100290000100010001000100010001000100010056
:1002A0000100010001000100005C010001000000EC
:1002B000C05CC15CC35CC45CC55CC65CC75CC85C3C
:1002C0000100010001000100010001000100000027
:1002D0000100010001000100010001000100010016
:1002E0000100010001000100000001000100010007
:1002F00001000100BB5CBD5CBC5CBE5C0100010098
:1003000001000100000001000100010001000100E6
:1003100000000100010000000100000001000000D9
:100320000100010001000100010001000100013095
:100330000230010001000100010001000100010084
:1003400001000100010001000100010001000100A5
:100350000100010001000100010001000100010095
:100360000100010001000100010001000100000086
:100370000100010001000100010001000100010075
:100380000100010001000100010001000100000066
:100390000100010001000100010001000100010055
:1003A0000100010001000100000001000100010046
:1003B0000100010001000100010001000100010035
:1003C0000100010000000100010001000100010026
:1003D0000000010001000000010000000100000019
:1003E0000100010001000100010001000100010005
:1003F00001000100010001000100010001000100F5
:1004000001000100010001000100010001000100E4
:1004100001000100010001000100010001000100D4
:1004200001000100010001000100010001000000C5
:1004300001000100010001000100010001000100B4
:1004400001000100010001000100010001000000A5
:100450000100010001000100010001000100010094
:100460000100010001000100000001000100010085
:100470000100010001000100010001000100010074
:100480000100010000000100010001000100010065
:100490000000010001000000010000000100000058
:1004A0000100010001000100010001000100010044
:1004B0000100010001000100010001000100010034
:1004C0000100010001000100010001000100010024
:1004D0000100010001000100010001000100010014
:1004E0000100010001000100010001000100000005
:1004F00001000100010001000100010001000100F4
:1005000001000100010001000100010001000000E4
:1005100001000100010001000100010001000100D3
:1005200001000100010001000000010001000100C4
:1005300001000100010001000100010001000100B3
:1005400001000100000001000100010001000100A4
:100550000000010001000000010000000100000097
:100560000100010001000100010001000100010083
:100570000100010001000100010001000100010073
:100580000100010001000100010001000100010063
:100590000100010001000100010001000100010053
:1005A0000100010001000100010001000100000044
:1005B0000100010001000100010001000100010033
:1005C0000100010001000100010001000100000024
:1005D0000100010001000100010001000100010013
:1005E0000100010001000100000001000100010004
:1005F00001000100010001000100010001000100F3
:1006000001000100000001000100010001000100E3
:1006100000000100010000000100000001000000D6
:1006200001000100010001000100010001000100C2
:1006300001000100010001000100010001000100B2
:1006400001000100010001000100010001000100A2
:100650000100010001000100010001000100010092
:100660000100010001000100010001000100000083
:100670000100010001000100010001000100010072
:100680000100010001000100010001000100000063
:100690000100010001000100010001000100010052
:1006A0000100010001000100000001000100010043
:1006B0000100010001000100010001000100010032
:1006C0000100010000000100010001000100010023
:1006D0000000010001000000010000000100000016
:1006E0000100010001000100010001000100010002
:1006F00001000100010001000100010001000100F2
:1007000001000100010001000100010001000100E1
:1007100001000100010001000100010001000100D1
:1007200001000100010001000100010001000000C2
:1007300001000100010001000100010001000100B1
:1007400001000100010001000100010001000000A2
:100750000100010001000100010001000100010091
:100760000100010001000100000001000100010082
:100770000100010001000100010001000100010071
:100780000100010000000100010001000100010062
:100790000000010001000000010000000100000055
:1007A0000100010001000100010001000100010041
:1007B0000100010001000100010001000100010031
:1007C0000100010001000100010001000100010021
:1007D0000100010001000100010001000100010011
:1007E0000100010001000100010001000100000002
:1007F00001000100010001000100010001000100F1
:1008000001000100010001000100010001000000E1
:1008100001000100010001000100010001000100D0
:1008200001000100010001000000010001000100C1
:1008300001000100010001000100010001000100B0
:1008400001000100000001000100010001000100A1
:100850000000010001000000010000000100000094
:100860000100010001000100010001000100010080
:100870000100010001000100010001000100010070
:100880000100010001000100010001000100010060
:100890000100010001000100010001000100010050
:1008A0000100010001000100010001000100000041
:1008B0000100010001000100010001000100010030
:1008C0000100010001000100010001000100000021
:1008D0000100010001000100010001000100010010
:1008E0000100010001000100000001000100010001
:1008F00001000100010001000100010001000100F0
:1009000001000100000001000100010001000100E0
:1009100000000100010000000100000001000000D3
:1009200001000100010001000100010001000100BF
:1009300001000100010001000100010001000100AF
:10094000010001000100010001000100010001009F
:10095000010001000100010001000100010001008F
:100960000100010001000100010001000100000080
:10097000010001000100010001000100010001006F
:100980000100010001000100010001000100000060
:10099000010001000100010001000100010001004F
:1009A0000100010001000100000001000100010040
:1009B000010001000100010001000100010001002F
:1009C0000100010000000100010001000100010020
:1009D0000000010001000000010000000100000013
:1009E00001000100010001000100010001000100FF
:1009F00001000100010001000100010001000100EF
:100A000001000100010001000100010001000100DE
:100A100001000100010001000100010001000100CE
:100A200001000100010001000100010001000000BF
:100A300001000100010001000100010001000100AE
:100A4000010001000100010001000100010000009F
:100A5000010001000100010001000100010001008E
:100A6000010001000100010000000100010001007F
:100A7000010001000100010001000100010001006E
:100A8000010001000000010001000100010001005F
:100A90000000010001000000010000000100000052
:100AA000010001000100010001000100010001003E
:100AB000010001000100010001000100010001002E
:100AC000010001000100010001000100010001001E
:100AD000010001000100010001000100010001000E
:100AE00001000100010001000100010001000000FF
:100AF00001000100010001000100010001000100EE
:100B000001000100010001000100010001000000DE
:100B100001000100010001000100010001000100CD
:100B200001000100010001000000010001000100BE
:100B300001000100010001000100010001000100AD
:100B4000010001000000010001000100010001009E
:100B50000000010001000000010000000100000091
:100B6000010001000100010001000100010001007D
:100B7000010001000100010001000100010001006D
:100B8000010001000100010001000100010001005D
:100B9000010001000100010001000100010001004D
:100BA000010001000100010001000100010000003E
:100BB000010001000100010001000100010001002D
:100BC000010001000100010001000100010000001E
:100BD000010001000100010001000100010001000D
:100BE00001000100010001000000010001000100FE
:100BF00001000100010001000100010001000100ED
:100C000001000100000001000100010001000100DD
:100C100000000100010000000100000001000000D0
:100C200001000100010001000100010001000100BC
:100C300001000100010001000100010001000100AC
:100C4000010001000100010001000100010001009C
:100C5000010001000100010001000100010001008C
:100C6000010001000100010001000100010000007D
:100C7000010001000100010001000100010001006C
:100C8000010001000100010001000100010000005D
:100C9000010001000100010001000100010001004C
:100CA000010001000100010000000100010001003D
:100CB000010001000100010001000100010001002C
:100CC000010001000000010001000100010001001D
:100CD0000000010001000000010000000100000010
:100CE00001000100010001000100010001000100FC
:100CF00001000100010001000100010001000100EC
:100D000001000100010001000100010001000100DB
:100D100001000100010001000100010001000100CB
:100D200001000100010001000100010001000000BC
:100D300001000100010001000100010001000100AB
:100D4000010001000100010001000100010000009C
:100D5000010001000100010001000100010001008B
:100D6000010001000100010000000100010001007C
:100D7000010001000100010001000100010001006B
:100D8000010001000000010001000100010001005C
:100D9000000001000100000001000000010000004F
:100DA00001000100010001000100010000046801D0
:100DB000F000B40078005A007F3F1F6432146432A0
:100DC00014783C1E1E140A050000000000010101F9
:100DD00001010101010102020202020202020203F8
:100DE00003030303030303040404040404050505C7
:100DF0000505060606060607070707080808080986
:100E000009090A0A0A0A0B0B0B0C0C0C0D0D0D0E2E
:100E10000E0F0F0F101011111112121313141415BD
:100E20001516161717181819191A1A1B1C1C1D1D30
:100E30001E1F1F2020212222232425252627272884
:100E4000292A2B2B2C2D2E2F2F30313233343536AF
:100E5000363738393A3B3C3D3E3F404142434446B9
:100E60004748494A4B4C4D4F50515253555657588D
:100E70005A5B5C5E5F606263646667696A6C6D6E34
:100E8000707173747678797B7C7E808183848688A8
:100E90008A8B8D8F91929496989A9B9D9FA1A3A5E2
:100EA000A7A9ABADAFB1B3B5B7B9BBBDBFC1C4C6E0
:100EB000C8CACCCFD1D3D6D8DADCDFE1E4E6E8EBA0
:100EC000EDF0F2F5F7FAFCFF0403300000000C032C
:100ED0004B00420044003700350000000803640066
:100EE0006F00750000000403090409026D0004018D
:100EF00000A0FA0904000001030101000921110109
:100F000000012240000705810308000A09040100CE
:100F10000103010200092111010001224D00070512
:100F2000820308000A0904020001030000000921ED
:100F3000110100012236000705830308000A090495
:100F40000300010300000009211101000122390002
:100F5000070584032000011201100100000008EDC4
:100F6000FE606001000102030105010906A10105FF
:100F70000719E029E715002501950875018102058B
:100F800008190129059505750191029501750391CF
:100F9000010507190029F71500250195F87501814C
:100FA00002C005010980A101850216010026030087
:100FB0001A81002A8300751095018100C0050C0973
:100FC00001A1018503160100269C021A01002A9C3A
:100FD00002751095018100C005010902A1010901F6
:100FE000A1000509190129051500250195057501BF
:100FF00081029501750381010501093009311581CF
:10100000257F95027508810609381581257F950190
:1010100075088106050C0A38021581257F95017532
:10102000088106C0C005010906A101050719E029CC
:10103000E715002501950875018102950175088164
:10104000010508190129059505750191029501759C
:101050000391010507190029FF150026FF009506D9
:1010600075088100C00011241FBECFEFDAE0DEBF9B
:10107000CDBF04B603FE24C08091B9029091BA029C
:10108000A091BB02B091BC028730904BA740B04BFF
:10109000B9F41092B9021092BA021092BB021092E7
:1010A000BC0214BE84B7877F84BF88E10FB6F89472
:1010B00080936000109260000FBEE0E0F8E30995B5
:1010C00011E0A0E0B1E0EAE4F6E602C005900D927E
:1010D000A034B107D9F722E0A0E4B1E001C01D922D
:1010E000A93BB207E1F70E94FB290C9423330C942F
:1010F00000000E94740F8FE39CE90197F1F700C094
:1011000000000E94740F80E00E94201080FF04C045
:101110000E943A220C94DA2308950E9479080C94D4
:10112000940880E090E008950895089581E008957E
:10113000462F50E04730510508F050C0FA01EA5AF6
:10114000FF4FDC0112968C910C94BB32882309F47A
:1011500045C00E94911281E00E947B1240E03AC09B
:101160008823E1F10E94911281E00E947B1240E00D
:1011700061E631C0882391F10E94911281E00E94C2
:101180007B1240E06FEF27C0882341F10E9491124B
:1011900081E00E947B1240E008C08823F9F00E94A1
:1011A000911281E00E947B124FEF6FEF09C08823FC
:1011B000A9F00E94911281E00E947B124FEF60E043
:1011C00080E00AC0882351F00E94911281E00E94C1
:1011D0007B1240EF60E08FEF0C94A810089581FF20
:1011E00002C0229A01C022982A98089581E00895A9
:1011F0000C9496080E94B01B2FEF84E39CE02150D2
:1012000080409040E1F700C000000C94DA23FF9288
:101210000F931F93CF93DF938C01FC01C081D18189
:1012200080919E01811113C08281882349F0CE01F3
:101230000E940621F82E682FCE010E94AC2004C027
:10124000CE010E94DA20F82EBE018F2D04C0CE01FF
:101250000E940621BE010E943F0CEC01B8010E94D1
:10126000F808882309F490C2B801CE010E94D80E74
:10127000882309F489C2C93CFCE5DF0741F4F80181
:101280008281882309F480C20E9462107DC2CA3C18
:101290008CE5D80708F037C1C13C9CE5D90761F45B
:1012A000F8018281882309F46FC20E94D8218272DA
:1012B000F1F00E94881268C2C23CECE5DE07D0F073
:1012C000F8018281C53CFCE5DF0709F4F1C008F0B4
:1012D00001C1C33CECE5DE0709F4F0C008F0F4C03E
:1012E000882309F451C20E94D821827211F30E940E
:1012F0007E124AC2C531FCE5DF0708F0A4C0C23047
:101300008CE5D80708F478C0F8018281882309F4B5
:101310007FC00E944022811102C00E9414220E94BC
:101320005D2290E09093AA028093A902FE01E3500F
:10133000FC45E231F10520F4E35AFF4F0C94BB3237
:101340008091A902816003C08091A902826080938C
:10135000A9024BC08091A9028460F9CF8091A902B3
:1013600013C08091A9028061F2CF8091A9028062AE
:10137000EECF8091A9028064EACF8091A9028068B3
:10138000E6CF8091A90284608860E1CF8091A902B4
:101390008E7FDDCF8091A9028D7FD9CF8091A90268
:1013A0008B7FD5CF8091A90213C08091A9028F7E37
:1013B000CECF8091A9028F7DCACF8091A9028F7B69
:1013C000C6CF8091A9028F77C2CF8091A9028B7F6F
:1013D000877FBDCF9091A90297FB882780F921E0F4
:1013E000822780FB97F99093A9028091A9020E941D
:1013F00061220E94B01BC8C1C1159CE5D90781F0CC
:10140000C130DC45A9F081E080934501809346011D
:10141000C801DF91CF911F910F91FF900C94F608B6
:10142000F8018281882309F4AFC10E94FA08ACC197
:10143000F8018281882309F4A7C18091400281606C
:1014400080934002A1C1C531FCE5DF0729F50E9468
:10145000D821382FF8012281809102019091030157
:10146000222371F03A7A21E009F420E02093400130
:10147000222311F065E301C069E20E94D62209C06F
:1014800020914001222311F065E301C069E20E942E
:10149000E1220E94A52178C1C03CDC4509F0B3CF10
:1014A000F8018281882309F46FC10E94E9126CC19E
:1014B000882309F469C10E94CA1166C1882309F40E
:1014C00063C10E94921160C1882309F45DC10E942A
:1014D000AB115AC1C73C9CE5D90731F4882309F404
:1014E00053C10E94FF1150C1C83CDC4530F4882331
:1014F00009F44AC10E94E51147C1882309F444C197
:101500000E94111241C1C13DFCE5DF0749F4F80119
:101510008281882309F438C188E10E947B1234C19A
:10152000C23D8CE5D80708F087C0F8018281CD3C28
:10153000FCE5DF07A1F4882309F426C10E945410BA
:10154000663071058105910540F00E9454106830A5
:1015500071058105910508F4CACE86E0DECFCE3C48
:101560009CE5D90730F5CB3CECE5DE0729F4882370
:1015700009F40AC181E0D1CFCC3CDC4530F48823AA
:1015800009F402C10E947710FFC0882309F4FCC04F
:101590000E945410623071058105910540F00E944F
:1015A0005410653071058105910508F4A0CE82E0E4
:1015B000B4CFCF3C9CE5D907A1F4882309F4E4C05B
:1015C0000E9454106F3071058105910540F00E9412
:1015D0005410643171058105910508F488CE8FE0BF
:1015E0009CCFC03DDC45A0F4882309F4CDC00E9407
:1015F0005410693071058105910540F00E94541026
:101600006E3071058105910508F471CE89E085CFB2
:10161000882309F4B9C00E94541065317105810511
:10162000910540F00E9454106731710581059105C4
:1016300008F45DCE85E171CFC53DFCE5DF0739F5E6
:10164000F8018281882361F0109246010E947F2375
:10165000909344018093430180E20E94A91894C0B2
:101660008091460181110FC0809143019091440106
:101670000E948B23883C910530F487E20E9450172A
:1016800087E20E94481880E20E94B0187DC0C63DE3
:101690008CE5D80708F043C0F8018281C33DFCE522
:1016A000DF0729F4882309F46FC083E236CFC43DF5
:1016B000DC45A0F4882309F467C00E945410693106
:1016C00071058105910540F00E9454106232710548
:1016D0008105910508F40BCE89E11FCF882351F0D5
:1016E000109245010E947F23909342018093410113
:1016F00082E0B3CF8091450181110FC080914101FB
:10170000909142010E948B23883C910530F486E23F
:101710000E94501786E20E94481882E0B5CFC93D6A
:10172000ECE5DE0731F4F8018281882369F180E07D
:1017300009C0CA3DFCE5DF0741F4F8018281882336
:1017400019F182E00E94972A1FC0C63DDC4509F0CE
:101750005ACEF8018281811177CF809146018111A3
:1017600092CF80914301909144010E948B23883C49
:10177000910508F088CF80E20E94B01888E20E94AC
:10178000501788E20E94481880E0DF91CF911F91A6
:101790000F91FF9008950C94240FCF92DF92EF9257
:1017A000FF92863030F4811105C0909180009F7DBA
:1017B00004C085E090918000906290938000282F73
:1017C00030E0AFEFBFEF0E94C13225E030E040E0F3
:1017D00050E00E949932C9012C3764E1360728F4A1
:1017E00069E070E00E94713229C0DA01C9018A50B3
:1017F000974DAF4FBF4F6627782F892F9A2F25EF30
:1018000038E241E050E00E94993269017A01CA0150
:10181000B9010E9461329B01AC01C701B6010E946F
:101820006132BB27A92F982F872F009721E0A207AD
:10183000B10511F0BC0102C06FEF7FEF70938B0018
:1018400060938A00FF90EF90DF90CF900895269AE2
:101850002E9882E28093800089E1809381008FEF4F
:101860009FEF90938700809386000C947F270E94BF
:10187000270C0C948D080C94EF080C943B0CE72F6C
:10188000F0E096E0899FE00DF11D112484E0EE0F59
:10189000FF1F8A95E1F7E60FF11DEE0FFF1FE455DC
:1018A000FE4F859194910895880F991F82569E4FFF
:1018B000FC01859194910895CF93DF930E943F0C92
:1018C0000E94380EEC01811521E5920708F043C013
:1018D000811530E5930708F021C1883E910508F590
:1018E000803E910508F0C0C1883A910578F4853AA8
:1018F000910508F09EC08130910509F4B5C108F446
:101900006CC18430910508F0AFC167C18D3B910572
:1019100008F49AC0803C910508F45FC1805C91098D
:10192000ECC0C11580E3D80780F4C11520E2D207CE
:1019300008F0E1C0C03FD10508F44FC1CF3FD10549
:1019400011F008F091C1D0658FC1C11530E4D30703
:1019500008F0E1C0D6C0C11589E5D80740F5C1152A
:1019600028E5D20708F025C1C11534E5D30778F47E
:10197000C11583E5D80708F002C1C11522E5D207D9
:1019800008F0E8C0DC2FCC27C16FD06A6DC1C1154B
:1019900035E5D30708F408C1C11586E5D80708F076
:1019A0001CC1CF71DD27DC2FCC27D0625DC1CB3BC2
:1019B0002CE5D20709F408C1D8F4C93B8CE5D80757
:1019C00009F4FCC008F0FDC0C1153AE5D30708F0E2
:1019D00004C18C2F8F70806E90E0906A34E0D695B1
:1019E000C7953A95E1F7CF709C013C2BE9013CC1CA
:1019F000CE3B8CE5D80709F4EDC060F4CC3B3CE568
:101A0000D30709F4E4C0CD3BDC4509F0E6C0C0E0F3
:101A1000D2ED2AC1CE0190568115904208F0DDC06A
:101A20008D2F8F710E94B40EDD27D0628F71D82B5D
:101A30001BC1853A910509F4D3C0863A910509F492
:101A4000D2C0C3E8D0E410C1883A910509F4CEC0F1
:101A5000893A910509F4CDC08A3A910509F4CCC0C0
:101A60008B3A910509F4CBC08C3A910509F4CAC0B0
:101A70008B3B910509F4C9C08C3B910509F4C8C0A2
:101A80008D3A910509F4C7C0803B910509F4C6C0A1
:101A90008E3A910509F4C5C08F3A910509F4C4C086
:101AA000813B910509F4C3C0823B910509F4C2C092
:101AB000833B910509F4C1C0843B910509F4C0C082
:101AC000853B910509F4BFC0863B910509F4BEC072
:101AD000873B910509F4BDC0883B910509F4BCC062
:101AE000893B910509F4BBC08A3B910509F0BAC056
:101AF000CAE2D6E4B9C0CE019F700E94540CEC013A
:101B0000B3C0CE019927D3FF03C0EC01D86CACC0A1
:101B1000EC01D06CA9C0DF70D06AA6C0282F23705A
:101B200081E090E002C0880F991F2A95E2F79C6837
:101B30009E01E4E036952795EA95E1F72370922B14
:101B4000CF70C695C69530E2C39FE0011124C82B23
:101B5000D92B8AC08C2F8695869520E2829FC00162
:101B600011249E0123703327C1E0D0E002C0CC0FC6
:101B7000DD1F2A95E2F7C82BD92BDC6875C08C2FA6
:101B80008695869530E2839FC00111249E012370C3
:101B90003327C1E0D0E002C0CC0FDD1F2A95E2F769
:101BA000C82BD92BDA6860C0DC2FCC27C46FD06A71
:101BB0005BC0DC2FCC27C06FD06A56C0C0E0D4ED2C
:101BC00053C0C0E0D5ED50C0C0E0D1ED4DC0C0E085
:101BD000D0ED4AC0C0E0D3ED47C0C0E0D0E044C083
:101BE000C1E8D0E441C0C2E8D0E43EC0C2EED4E4D3
:101BF0003BC0C9EED4E438C0CAEED4E435C0C5EB6E
:101C0000D4E432C0C6EBD4E42FC0C3EBD4E42CC080
:101C1000C4EBD4E429C0C7EBD4E426C0CCECD4E4B4
:101C200023C0CDECD4E420C0C3E8D5E41DC0CAE88D
:101C3000D5E41AC0C2E9D5E417C0C4E9D5E414C09C
:101C4000C1E2D6E411C0C3E2D6E40EC0C4E2D6E4D9
:101C50000BC0C5E2D6E408C0C6E2D6E405C0C7E2C0
:101C6000D6E402C0C0E0D4E4CE01DF91CF91089564
:101C70008238910549F1B0F48133910509F459C0D6
:101C800048F48932910509F44FC08A32910509F46C
:101C900055C008958533910509F441C089339105F4
:101CA00099F00895833E910531F138F4803E910515
:101CB00091F0823E9105A9F00895863E910501F1CB
:101CC000873E910539F108952091A90220FD3BC07E
:101CD00021FD39C008958091A90280FF34C089E3B5
:101CE00041C08091A90282FF32C08091A90284FF85
:101CF0002CC080E037C08091A90282FD28C0F5CFBA
:101D00008091A90283FF25C08091A90284FDF1CFB3
:101D100087EE28C08091A90283FD1BC0F5CF80917A
:101D2000A90285FF18C019C08091A90285FF15C0BE
:101D300012C08091A90286FF12C013C08091A9022F
:101D400086FF0FC00CC080EE0DC083EE0BC082EE8C
:101D500009C086EE07C085E305C089E203C081E3C0
:101D600001C08AE290E008959091A90292FF0DC00F
:101D7000282F2871283019F4877F846006C0282F07
:101D80002471243011F48B7F886093FF0DC0282FBD
:101D90002871283119F4877E846106C0282F2471A8
:101DA000243111F48B7E886194FD877E0895089517
:101DB000CF93DF93EC01FB018281811102C081E0AE
:101DC00040C080915401811125C0C631DC45B9F76E
:101DD0000E94D70E81E0809354010E947F2390934C
:101DE00053018093520110924701109249011092C1
:101DF000480110924B0110924A0110924D0110922D
:101E00004C0110924F0110924E011092510110920C
:101E1000500116C080915201909153010E948B2372
:101E20008C32914060F680914701E82FF0E0EE0F90
:101E3000FF1FE85BFE4FD183C0838F5F8093470114
:101E400080E0DF91CF9108950C94950885B7806864
:101E500085BF85B7806885BFA5E2B1E021E030E0AD
:101E60008D91E82FE295EF70F0E041A18F70B901FC
:101E700002C0660F771F8A95E2F7CB01962F9095E7
:101E8000492341A392A1982B92A371E0AB32B707EB
:101E900039F7A5E1B1E021E030E08D91E82FE2953E
:101EA000EF70F0E041A18F70B90102C0660F771F9B
:101EB0008A95E2F7CB01962F9095492341A392A1F1
:101EC000982B92A371E0A532B70739F7E1E6F1E06C
:101ED000A5E5B1E0119211921D921D9281E0ED36BF
:101EE000F807C1F70C94370C4F925F927F928F9254
:101EF0009F92AF92BF92CF92DF92EF92FF920F9399
:101F00001F93CF93DF9305E211E0C5E5D1E0EE2406
:101F1000E394F12C99249394BE01A880B98019828E
:101F20001882D8012D918D01E22FE295EF70F0E03B
:101F300081A12F70A70102C0440F551F2A95E2F717
:101F40009A01842B81A382A1842E8094882182A36C
:101F500050EA5A95F1F745E1442E41E0542E80E0D5
:101F600090E0D2014D912D01C42EC2943FE0C322D6
:101F7000D12CD60190967C90C880D9804F70D70123
:101F800002C0AA0FBB1F4A95E2F77A2241F4A701CB
:101F9000082E02C0440F551F0A94E2F702C040E029
:101FA00050E04C295D295983488301968031910581
:101FB000C1F681A1882181A382A1822B82A32296CE
:101FC000FB0180819181A816B90641F090926D01C4
:101FD0000E947F2390936F0180936E01F1E00B329A
:101FE0001F0709F099CF80916D018823B1F080918E
:101FF0006E0190916F010E948B23069770F0E5E5CA
:10200000F1E0A1E6B1E0819191918D939D9341E042
:10201000E136F407C1F710926D010E94CB0B81E00D
:10202000DF91CF911F910F91FF90EF90DF90CF90B4
:10203000BF90AF909F908F907F905F904F9008954A
:10204000E82FF0E0EE0FFF1FEF59FE4F80819181E6
:1020500008950895D901E8ECFDE094918491E4910C
:1020600011969C9311978C931296EC93089588E0A7
:1020700090E00C94E332AB01BC0188E090E00C945A
:102080000133EEE6F2E083E0808310926F028FEF7F
:1020900080937002109271021092720260817181BD
:1020A000828193810C943B1060916E0260FF06C0A8
:1020B00066956F7370E080E090E0089560E070E0F6
:1020C000CB0108958091720290E0019684309105D1
:1020D00014F083E090E08093720260916E02709140
:1020E0006F0280917002909171020C943B1080916C
:1020F000720290E0019797FF02C080E090E0843088
:10210000910514F083E090E08093720260916E027A
:1021100070916F0280917002909171020C943B104B
:1021200080916E0280FF06C060E170E083E792E07C
:102130000C94F915E5E7F2E0DF0111971C92119775
:102140001C921082339682E0E53AF807A9F7ECCFAB
:1021500090916E0290FF0FC0E5E7F2E0DF0111976A
:102160008C9311976C934083339692E0E53AF9078C
:10217000A9F70C9490100895CF93DF9300D01F928D
:10218000CDB7DEB720916E0220FF0AC09E012F5FFF
:102190003F4F0E942A104B8169818A810E94A810BA
:1021A0000F900F900F90DF91CF9108955F926F92F3
:1021B0007F928F929F92AF92BF92CF92DF92EF92D7
:1021C000FF920F931F93CF93DF9300D01F92CDB751
:1021D000DEB78C01662E742E522E80916E0280FF27
:1021E0008BC0982F9E77923061F49E012F5F3F4FF6
:1021F000C8010E942A104B8169818A810E94A8101F
:102200005BC0E82FE695EF739EE39E0F9F739430BB
:1022100018F47090710250C09AE39E0F9F7399302A
:1022200068F4881F8827881F90916F02292F220F3A
:10223000022F082B97FB112710F93EC087E28E0F63
:102240008F738A30C8F5F0E07997E0FF02C04FEF56
:1022500001C041E0EE7FE255F24F859194919C01DF
:1022600084E0369527958A95E1F742035001439F14
:10227000B00C1124680188E9C81A8EEFD80A93E7D8
:10228000E92E92E0F92E28E6822E99249394C60135
:10229000B4010E9471329701472D662D0E942A10C9
:1022A000CA0CDB1C83E0E80EF11C83EAE81682E02E
:1022B000F80669F70E94901080916E0200FB87F982
:1022C00080936E02902F969580916F028078892B73
:1022D00010FB87F980936F02609270027092710216
:1022E000552051F060916E0270916F0280917002E2
:1022F000909171020E943B100F900F900F90DF9110
:10230000CF911F910F91FF90EF90DF90CF90BF90F2
:10231000AF909F908F907F906F905F90089521E095
:102320000C94D61020916E02221F2227221F30917A
:102330006F02432F440F842F822B37FB992790F98C
:10234000089668E671E00E948532409171026091C2
:1023500070020C948F1120916E02221F2227221FDF
:1023600030916F02432F440F842F822B37FB992724
:1023700090F9883091051CF4805A9E4F01C008974F
:1023800068E671E00E9485324091710260917002AE
:102390000C948F1160917002862F90E0883F910518
:1023A00014F4685F01C06FEF80916E02881F882768
:1023B000881F90916F02292F220F97FB992790F980
:1023C00040917102822B0C948F1160917002862FC4
:1023D00090E0089714F0685001C060E080916E02B0
:1023E000881F8827881F90916F02292F220F97FB43
:1023F000992790F940917102822B0C948F11809152
:102400006E02881F8827881F90916F02292F220F44
:1024100097FB992790F940E060917002822B0C9411
:102420008F1140917102842F90E0089714F048506A
:1024300001C040E080916E02881F8827881F90911C
:102440006F02292F220F97FB992790F96091700254
:10245000822B0C948F1120E00C94D61090916E0278
:1024600090FF48C09178811102C0926003C084320D
:1024700020F0966490936E0205C08F73880F892BAD
:1024800080936E02662351F060916E0270916F022C
:1024900080917002909171020E943B1080916E02B7
:1024A000382F3E77323019F41092890112C0982FDC
:1024B00096959F732EE3290F2F73273110F0363432
:1024C00021F491E09093890104C0995D9F739A3043
:1024D00058F3881F8827881F90916F02292F220F99
:1024E00097FB992790F94091710260917002822BBD
:1024F0000C942B12089561E00C942E1280916E02C0
:1025000086958F738F5F843208F081E00C947B1284
:1025100080916E0286958F73815009F483E20C944A
:102520007B12EEE6F2E080818160808386958F7376
:102530000C947B1260E00C942E128091400281601A
:102540008093400281E080938A010E9440228111A1
:1025500004C00E9414220E9441100E943710609310
:102560006E0270936F0280937002909371026E7787
:1025700061F40E9441100E94371060936E027093C4
:102580006F02809370029093710281E080938901C1
:1025900080916E0280FF04C086958F730C949A120E
:1025A0000895EEE6F2E080818E7F80836081718104
:1025B000828193810E943B10109289012FEF80E766
:1025C00092E0215080409040E1F700C000000C9460
:1025D000901080916E0280FD0C94D1120C94911297
:1025E000CF93C82F80918701909188010E948B23FF
:1025F000EC2FF0E0EC53F24FE491F0E08E179F07E0
:1026000008F442C00E947F23909388018093870141
:102610006091860170E080E090E00E947F3020E0D1
:1026200030E04FE753E40E94B82F2BED3FE049E440
:1026300050E40E94A0310E9403320E9425302BE416
:102640003AE34EE25FE30E94532F20EF3BEF48ED69
:1026500052E40E94A0310E945130462F80916E02B8
:10266000881F8827881F90916F02292F220F97FBC0
:10267000992790F960917002822B0E94BC10809182
:1026800086018F5F80938601CF910895CF93C82FE5
:1026900080918401909185010E948B23EC2FF0E0C2
:1026A000EF53F24FE491F0E08E179F07E8F00E949D
:1026B0007F23909385018093840140917102609102
:1026C000700280918201909183010E94BC108091E0
:1026D000820190918301019668E671E00E94713257
:1026E0009093830180938201CF910895DF92EF92BE
:1026F000FF920F931F93CF93DF93D82E8091800189
:10270000909181010E948B23ED2DE695F0E0E2543B
:10271000F24FE491F0E08E179F07F0F10E947F23C3
:10272000909381018093800103E712E0C0E0D0E044
:1027300068E6E62EFF24F39480917E0190917F015C
:102740008C0F9D1FB7010E94713298014091710258
:10275000609170020E942A1066960D5F1F4FC0366E
:1027600081E0D80749F70E94901020917E013091B6
:102770007F01D0FE0BC0C901019668E671E00E949E
:10278000713290937F0180937E0106C02150310900
:1027900030937F0120937E01DF91CF911F910F91A4
:1027A000FF90EF90DF900895AF92BF92CF92DF92AB
:1027B000EF92FF920F931F93CF93DF93C82F80FD6B
:1027C00003C0BB24B39402C0BB24BA9480917C01A3
:1027D00090917D010E948B23C695EC2FF0E0E5548B
:1027E000F24FE491F0E08E179F0708F465C00E9455
:1027F0007F2390937D0180937C01F3E7EF2EF2E03D
:10280000FF2E05E712E0C0E0D0E0F801319710821A
:10281000F7011082F8011082E4E0CE2ED12CA12C19
:1028200080917B018A0D87FD805F992787FD9095B8
:10283000C817D907E9F4809171028C9DA0018D9D84
:10284000500D1124559547955595479580916E02E9
:10285000881F8827881F90916F02592F550F97FB6B
:10286000992790F9970160917002852B0E942A1098
:10287000AB0CF1E0CF1AD108C114D10489F621962E
:1028800083E0E80EF11C0D5F1F4FC031D10509F048
:10289000BCCF0E94901080917B0191E0B91206C0DC
:1028A000811102C08FE006C0815004C090E0019603
:1028B0008F70992780937B01DF91CF911F910F91AA
:1028C000FF90EF90DF90CF90BF90AF900895EF9280
:1028D000FF920F931F93CF93DF93C82F80917901BD
:1028E00090917A010E948B23EC2FF0E0E854F24F94
:1028F000E491F0E08E179F0708F465C00E947F23E3
:1029000090937A0180937901E5E7F2E0DF01119776
:102910001C9211971C921082339682E0E53AF807D8
:10292000A9F705E712E0A3E7EA2EA2E0FA2EC0E03D
:10293000D0E080917801992787FD9095C817D90735
:10294000ECF080910101992787FD90958C179D07E8
:10295000ACF080916E02881F8827881F90916F02CB
:10296000592F550F97FB992790F9970140917102C4
:1029700060917002852B0E942A1007C0F8013197E0
:102980001082F7011082F80110822196F3E0EF0E19
:10299000F11C0D5F1F4FC031D10559F60E949010F8
:1029A0002091000180917801820F809378019091AD
:1029B0000101920F90930101191614F48F301CF04D
:1029C000219520930001DF91CF911F910F91FF90EE
:1029D000EF900895EF92FF920F931F93CF93DF93A1
:1029E00080917601909177010E948B23883E9340DD
:1029F000C8F10E947F239093770180937601C09164
:102A00007401D09175012196C170DD27D0937501B5
:102A1000C093740103E712E0F12CB8E7EB2E8F2D81
:102A20008695FE01E80FF11DCF018170992798016D
:102A30004091710260917002FC01EE9EC001EF9E18
:102A4000900D11240E942A10F3940D5F1F4FF0E1A6
:102A5000FF12E5CFDF91CF911F910F91FF90EF9083
:102A60000C949010DF91CF911F910F91FF90EF90F8
:102A70000895CF93DF9300D01F92CDB7DEB780913A
:102A80007201909173010E948B23ECEAFDE0259185
:102A9000349182179307C0F18091710181110CC0AC
:102AA0009E012F5F3F4F40E06FEF80E090E00E947B
:102AB0002A108A81809371010E947F239093730171
:102AC0008093720180917001813051F028F0823042
:102AD00061F4409171010AC08091710140E007C02A
:102AE0006091710140E080E003C040E080E060E080
:102AF0000E94A8108091700190E0019663E070E060
:102B00000E948532809370010F900F900F90DF919B
:102B1000CF910895809189018823B9F120916E02A7
:102B2000822F86958F739EE3980F9F73943018F4CD
:102B300082500C94F0129AE3980F9F73933018F41C
:102B400086500C94461397E3980F9F73963018F4B1
:102B500089500C94761391E3980F9F73963018F474
:102B60008F500C94D4139BE2980F9F73933018F4FA
:102B700085510C946714822F8E77803311F40C9456
:102B8000EA14863411F40C94391508953EB1242FBB
:102B9000209523233EB1342B4FB7F894FC01680FE6
:102BA000791FE617F70789F0819198E03EB9000098
:102BB00000C087FF2EB9880F000000C000C000C011
:102BC0002EB900C09A9591F7ECCF4FBF08952DB163
:102BD000242B2DB99B01220F331F260F371FB9015C
:102BE0000E94C61587EC90E00197F1F700C0000045
:102BF000089544E00C94E7159093900180938F0121
:102C00000895E0918F01F0919001309721F00190AB
:102C1000F081E02D099480E00895E0918F01F0911A
:102C20009001309721F00280F381E02D09940895FE
:102C3000E0918F01F0919001309721F00480F581AF
:102C4000E02D0994089520918D0130918E01821715
:102C5000930771F090938E0180938D01E0918F0125
:102C6000F0919001309721F00680F781E02D0994D2
:102C7000089520918B0130918C018217930771F098
:102C800090938C0180938B01E0918F01F0919001E2
:102C9000309721F00084F185E02D0994089508957E
:102CA0000C944F1681E008950E9476230E94260F0F
:102CB0000E944A240E947F270C949D125F926F927B
:102CC0007F928F929F92AF92BF92CF92DF92EF92BC
:102CD000FF920F931F93CF93DF93CDB7DEB72A9761
:102CE0000FB6F894DEBF0FBECDBF0E94740F0E94D6
:102CF0005216811111C08FEF89838A831B820E9433
:102D00007F238160782F9D838C8349815A816B81D9
:102D10008D810E941C1757C092E9C92E91E0D92ECF
:102D200000E010E0AA24A394B12C502E802F0E9422
:102D300020103C01F601E190F1906F01E826F926A0
:102D4000E114F10431F40F5F1F4F0630110569F7EC
:102D5000D2CF8091400281FD0E94291020E030E016
:102D60004501022E02C0880C991C0A94E2F7C401A6
:102D70008E219F21892B09F12E835F826820792083
:102D800081E0672809F480E088870E947F238160C2
:102D9000782F9A8789874E815F8168858A850E940E
:102DA0001C17F801EE0FFF1FEE56FE4F8081918138
:102DB000882599259183808306C02F5F3F4F20315E
:102DC000310571F6C0CF0E94EA26109191010E9450
:102DD00001161817D9F00E940116809391012A96C6
:102DE0000FB6F894DEBF0FBECDBFDF91CF911F911C
:102DF0000F91FF90EF90DF90CF90BF90AF909F909A
:102E00008F907F906F905F900C943D0C2A960FB638
:102E1000F894DEBF0FBECDBFDF91CF911F910F9110
:102E2000FF90EF90DF90CF90BF90AF909F908F90EA
:102E30007F906F905F900895CF93DF93CDB7DEB70B
:102E40002B970FB6F894DEBF0FBECDBF4F835887C8
:102E500069877A878B87DE01119686E0FD011192E2
:102E60008A95E9F785E0FE01379601900D928A95E3
:102E7000E1F749815A816B817C818D819E810E941D
:102E80008A1E2B960FB6F894DEBF0FBECDBFDF9122
:102E9000CF910895FC01808191810E94462108957F
:102EA000882309F4F4C08238C1F40E94011681FD20
:102EB000EEC069E380910201909103010E94D62245
:102EC0000E94A5212FEF81EE94E021508040904098
:102ED000E1F700C0000069E319C08338F9F40E94EB
:102EE000011680FDD4C063E5809102019091030139
:102EF0000E94D6220E94A5212FEF81EE94E021505E
:102F000080409040E1F700C0000063E5809102013D
:102F1000909103010E94E1220C94A5218438C1F410
:102F20000E94011682FDB3C067E480910201909176
:102F300003010E94D6220E94A5212FEF81EE94E08A
:102F4000215080409040E1F700C0000067E4DECFF0
:102F50009CEF980F913A40F4682F80910201909174
:102F600003010E94D622D8CF90E2980F983050F4F7
:102F7000877091E001C0990F8A95EAF7892F0E9426
:102F8000DB21CACF9BE5980F933070F4853A29F086
:102F9000863A31F482E890E005C081E890E002C012
:102FA00083E890E00C94231698E5980F953108F08B
:102FB0006EC0883A61F1893A69F18A3A71F18B3AC7
:102FC00079F18C3A81F18B3B89F18C3B91F18D3A0F
:102FD00099F1803BA1F18E3AA9F18F3AB1F1813B91
:102FE000B9F1823BC1F1833BC9F1843BD1F1853B0F
:102FF000D9F1863BE1F1873BE9F1883BF1F1893B6F
:10300000F9F18A3B09F03FC08AE292E03EC082EECD
:1030100090E03BC089EE90E038C08AEE90E035C089
:1030200085EB90E032C086EB90E02FC083EB90E020
:103030002CC084EB90E029C087EB90E026C08CEC9C
:1030400090E023C08DEC90E020C083E891E01DC0AB
:103050008AE891E01AC082E991E017C084E991E022
:1030600014C081E292E011C083E292E00EC084E2DB
:1030700092E00BC085E292E008C086E292E005C0D3
:1030800087E292E002C080E090E00C943916089547
:10309000882309F45DC0823879F40E94011681FF0B
:1030A00057C069E380910201909103010E94D622EA
:1030B0000E94A52169E310C08338B1F40E94011673
:1030C00080FF46C063E580910201909103010E9458
:1030D000D6220E94A52163E580910201909103010F
:1030E0000E94E1220C94A521843879F40E940116F3
:1030F00082FF2EC067E480910201909103010E943B
:10310000D6220E94A52167E4E7CF9CEF980F913A61
:1031100010F4682FE1CF90E2980F983050F4877048
:1031200091E001C0990F8A95EAF7892F0E94E12169
:10313000D9CF9BE5980F933020F480E090E00C9479
:103140002316885A853120F480E090E00C943916DB
:103150000895882321F00E94DB210C94A521089575
:10316000882321F00E94E1210C94A52108958F92DB
:103170009F92BF92CF92DF92EF92FF920F931F9395
:10318000CF93DF9300D0CDB7DEB74C01472FFC01C2
:10319000C580C2949FE0C922D280DD2031F07983BE
:1031A0006A830E94F8216A81498149836A830E9467
:1031B0009E2149816A81882389F0DD2079F080E2AF
:1031C000860F883058F082E00E9487210E949E215D
:1031D000BB24B394B82649816A8101C0B12CE42E86
:1031E000E2948FE0E822F12CF701E159FF4F0C94B3
:1031F000BB32842F807F142F1F70882311F012950B
:10320000107FDD20C1F0112309F4E1C180E2860FB7
:10321000883010F0611105C0812F6A830E94DB2184
:1032200004C0812F6A830E94EB216A816A830E9415
:10323000A5216A81CCC1862F6A830E9448186A81C1
:10324000112309F40BC280E2860F883010F061115F
:1032500004C0812F0E94E12103C0812F0E94F1212F
:103260000E94A521FBC1842F807F142F1F70803204
:1032700011F01295107F662319F06130D9F026C045
:10328000DD2079F0CC2049F0F1E0CF1206C00E9499
:103290001122812B0E940B22E1C10E941122812B5D
:1032A0004AC1CC2021F021E0C21609F4D7C10E9406
:1032B0000E2246C1DD2029F085E08C1508F4CEC130
:1032C00039C194E09C1508F4C9C13AC1DD2051F020
:1032D000CC2009F42FC1F401858180FF78C18F7063
:1032E000858328C1CC2009F42BC182C1242F2695C7
:1032F0002695237030E02115310521F0213031056C
:1033000061F0ACC1DD2021F0862F942F937002C0B4
:1033100080E090E00E942316B1C1DD2021F0862FCD
:10332000942F937002C080E090E00E943916A6C1ED
:10333000DD20F9F0653F51F0663F71F0643FA9F47C
:103340008091A3029091A40281600BC08091A3029E
:103350009091A402826005C08091A3029091A40282
:1033600084609093A4028093A302862F0E94F2258A
:1033700022C0653F51F0663F91F0643FC9F48091EF
:10338000A3029091A4028E7F05C08091A302909128
:10339000A4028D7F9093A4028093A30209C0209180
:1033A000A3023091A4022B7F3093A4022093A302A6
:1033B000862F0E945A260E94DF2660C1842F8370C8
:1033C00009F04EC0D11056C1262F229526952770A0
:1033D000220F220F862F8F70C82ED12CE12CF12CBA
:1033E000022E04C0CC0CDD1CEE1CFF1C0A94D2F78C
:1033F00064FF10C06FE070E080E090E004C0660FF2
:10340000771F881F991F2A95D2F760957095809530
:10341000909503C060E070E0CB01242F269526959F
:10342000237030E02230310569F02330310589F016
:103430006C297D298E299F292130310571F00E9448
:10344000D91F18C16C297D298E299F290E94EB1F45
:1034500011C10E94D91FC701B6010E94C71F0AC12E
:10346000DD2019F0842F817001C08695882309F42E
:1034700001C1262F229526952770220F220F862F15
:103480008F70C82ED12CE12CF12C022E04C0CC0C54
:10349000DD1CEE1CFF1C0A94D2F764FF10C06FE025
:1034A00070E080E090E004C0660F771F881F991FCE
:1034B0002A95D2F7609570958095909503C060E04D
:1034C00070E0CB01242F26952695237030E0223022
:1034D000310569F02330310589F06C297D298E2969
:1034E0009F292130310571F00E948720C3C06C29CB
:1034F0007D298E299F290E949920BCC00E94872087
:10350000C701B6010E947520B5C0062F10E0F80172
:10351000E05EF109E531F10508F055C0E158FF4FD3
:103520000C94BB32162F1F70842F8F71DD2031F069
:103530000E942020812F0E94A91890C00E943B2049
:10354000812F0E94B0188AC0DD2049F0F4E0FC15FC
:1035500008F484C0842F8F710E945A207FC025E018
:103560002C1508F47BC0F6CFDD2039F0842F8F7145
:103570000E94202073C0DD20C9F3842F8F710E9428
:103580003B206CC0DD2029F0842F8F710E94112018
:1035900065C00E940C2062C0DD2051F0142F1F7105
:1035A000812F0E94202063E0812F0E947E2156C03F
:1035B00081E00E94872181E08C1508F04FC082E0F5
:1035C0000E9487214BC0DD2031F0CC2079F2862F7C
:1035D0000E94501743C0CC2081F2693349F49FEF19
:1035E000E7EEF3E09150E040F040E1F700C000006A
:1035F000862F0E94481832C04F70C4010E94910863
:103600000E94371F3BC0D11039C0942F9F70892F63
:1036100090E08230910599F03CF4009769F00197B1
:10362000E9F40E94B8272AC08430910571F054F063
:103630000597A1F480E00AC00E949C271FC00E9449
:10364000D4271CC00E94EE2719C085E00E941328D1
:1036500015C04F70C4010E94980810C028E0E216FF
:10366000F10441F05CF09AE0E91AF108E2E0EE16AC
:10367000F10420F40E9401160E943D0CBB20F1F0E1
:103680000E947A2180FD1AC0F40112820E947421E6
:103690000E942020C4010E946C1B0E9474210F9084
:1036A0000F90DF91CF911F910F91FF90EF90DF90DE
:1036B000CF90BF909F908F900C943B200F900F90D5
:1036C000DF91CF911F910F91FF90EF90DF90CF90FE
:1036D000BF909F908F9008950F931F93CF93DF9388
:1036E000EC01288139818B819C81892B31F03F3F0E
:1036F00011F080E003C02F3FE1F781E0811113C09A
:10370000CE010E940709882371F0688179818A813E
:103710000E9451218C010E94AB200E94C41FB8015D
:10372000CE010E94B718DF91CF911F910F9108959C
:103730000E94F8210E9408228091020190910301C9
:103740000E94EC220E94A5210E9473270E94DF267E
:1037500080E090E00E94231680E090E00C943916FF
:103760000E94E8210C94981B0E944621E92FE295C3
:10377000EF70F0E03297EE30F105B8F4EC56FF4F01
:103780000C94BB32803F59F018F4803E70F407C0AF
:10379000843F59F404C0803E10F0813F31F481E051
:1037A000089593FB882780F9089580E00895CF93CA
:1037B000DF9300D000D01F92CDB7DEB70F900F90EF
:1037C0000F900F900F90DF91CF910895CF93DF93DB
:1037D00000D000D000D0CDB7DEB726960FB6F89453
:1037E000DEBF0FBECDBFDF91CF9108951F93CF9362
:1037F000DF93C0919F0116E08091A001C81799F056
:10380000D0E01C9FF0011D9FF00D1124EF55FE4FDD
:103810004081518162817381848195810E94E61B80
:103820002196C770E9CFDF91CF911F910895409104
:10383000D1015091D2016091D3017091D401809156
:10384000D5019091D6010C94E61BCF938091D601BF
:1038500082958F7009F05FC08091D301882309F4AD
:103860005AC020919F01A091A0016091D101709157
:10387000D2018091D4019091D50131E06F3F09F0E0
:1038800030E0B32FC6E02A1709F445C0009721F0B5
:103890007F3F21F44B2F03C041E001C040E030E006
:1038A00040FD35C0C29FF001C39FF00D1124EF55BC
:1038B000FE4F418174132BC04081641328C04281A4
:1038C000411125C0438154814817590710F44150D4
:1038D0005109481B590B483C5105C8F48091D60149
:1038E0008F7080618093D60186E0829FF001839F74
:1038F000F00D1124EA55FE4F80818F708061808326
:1039000081ED91E00E946C1BCF910C94F61B2F5F10
:103910003F4F2770B8CFCF910895CF92DF92EF92AB
:10392000FF920F931F93CF93DF93CDB7DEB76297CC
:103930000FB6F894DEBF0FBECDBF8C0185E0F80155
:10394000DE011D9601900D928A95E1F7D8014C9108
:1039500011965C91119712966C9112971396ED90B7
:10396000FC9014977091D101E091D2012091D40183
:103970003091D5012115310531F0EF3F31F481E06F
:103980007F3F19F403C081E001C080E0B82FB1701F
:10399000CB2E80FD6BC1D090D301DD2009F4F5C0A2
:1039A000F091D601E216F30638F0C701821B930BA3
:1039B000883C910548F09DC0209530952E0D3F1D07
:1039C000283C310508F095C08F2F807F09F052C048
:1039D000E51314C0741312C0D62E61110FC0FF700E
:1039E000F061F093D6010E94171C81ED91E00E94D6
:1039F0006C1B8091D601F80185837CC1EF2831F0E2
:103A00005F3F31F481E04F3F19F403C081E001C012
:103A100080E080FD03C081E0862701C080E0F82FB0
:103A2000F170FF2E80FF1CC080919F012091A001AA
:103A300036E0821709F438C190E0389FF001399FD1
:103A4000F00D1124EF55FE4F7181571306C07081A0
:103A5000471303C07281671303C001968770E9CFD3
:103A6000D62E662309F446C18091D60181608093E9
:103A7000D60155C0E51308C0741306C0611104C017
:103A8000D8011596FC93AEC04D875E878D859E85C7
:103A90006A8B0E94B41B6A89882329F1D62E66237B
:103AA00011F12091D601822F82958F7090E00297BC
:103AB0000CF462C08091D1019091D20198878F83DC
:103AC0001986FB86EA862C87CE01079653C0E51738
:103AD00041F14D875E878D859E856A8B0E94B41B60
:103AE0006A89811130C0C8010E946C1BDD24D39407
:103AF00001C18F2F807F59F77E2DF98AE88A898945
:103B00000E94D71B81ED91E00E946C1BE1EDF1E07A
:103B100086E0DF011D928A95E9F70E94171CD12CDF
:103B2000E9C07413D6CF6111D4CFD8011596FC9398
:103B3000C8010E946C1BE1EDF1E086E0DF011D92FF
:103B40008A95E9F7D7C0D62E662369F22091D6016F
:103B5000822F82958F7090E0029774F08091D1014E
:103B60009091D2019A8389831B82FD82EC822E83FD
:103B7000CE0101960E946C1B86E0F801A1EDB1E038
:103B800001900D928A95E1F78AC0E216F30628F0BB
:103B9000C701821B930B9C0104C0209530952E0D0C
:103BA0003F1D283C310508F053C0D62E662309F48A
:103BB0009ACFE5132CC074132AC08091D60180FDE2
:103BC0001DC0982F92959F70C9F0D80115968C93BF
:103BD00015979F3039F09F5F9295907F8F70892B5A
:103BE00015968C93C8010E946C1B86E0F801A1ED2C
:103BF000B1E001900D928A95E1F753C086E0F8019B
:103C0000A1EDB1E001900D928A95E1F773C04D8767
:103C10005E878D859E850E94B41B882381F096E087
:103C2000F801A1EDB1E001900D929A95E1F78A8B30
:103C30000E94251C0E94171C8A89D82E5BC0809187
:103C4000D60181608093D601C8010E946C1B52C0CE
:103C50007E2DF98AE88A89890E94D71BE1EDF1E07F
:103C600086E0DF011D928A95E9F71BC0662309F4FF
:103C70003ACF4D875E878D859E850E94B41BD82ED6
:103C8000882309F430CF86E0F801A1EDB1E001907E
:103C90000D928A95E1F781ED91E00E944A170E940A
:103CA000251C0E94171C26C04D875E878D859E852A
:103CB0000E944621292F22952F7030E022303105B5
:103CC0002CF49F7041F0811106C00CC024303105E6
:103CD0002CF49F7049F4805E883020F0C8010E9467
:103CE0006C1BCF2CDC2C06C0D80115969C91907FC4
:103CF00091F7F8CF8D2D62960FB6F894DEBF0FBE08
:103D0000CDBFDF91CF911F910F91FF90EF90DF908A
:103D1000CF9008951F93CF93DF93CDB7DEB72C9745
:103D20000FB6F894DEBF0FBECDBF4F8358876987AB
:103D30007A878B879C87CE0107960E948D1C8823EB
:103D4000C1F02F8138858A859B85892B31F03F3FD3
:103D500011F080E003C02F3FE1F781E0811147C0FF
:103D60004F81588569857A858B859C850E94E61BE5
:103D70003EC086E0FE013796DE01119601900D925D
:103D80008A95E1F7FF81E8854A855B8541155105F4
:103D900031F0EF3F31F481E0FF3F19F403C081E0DF
:103DA00001C080E080FD23C02091A00130E0C90166
:103DB00001968770992760919F0170E08617970799
:103DC000F1F1F983EA835D834C8396E0929FD00101
:103DD000939FB00D1124AF55BE4FFE013196019057
:103DE0000D929A95E1F78093A0010E94F61B16E0D0
:103DF00080919F019091A001891779F1189FC001CE
:103E000011248F559E4F0E948D1C882331F1E09123
:103E10009F011E9FF0011124EF55FE4F40815181FB
:103E200062817381848195810E94E61B80919F014C
:103E300090E001968770992780939F01D9CF0E94C7
:103E4000B01B1092A00110929F01E1EDF1E086E01D
:103E5000DF011D928A95E9F7CACF2C960FB6F89428
:103E6000DEBF0FBECDBFDF91CF911F910895EF92BE
:103E7000FF920F931F93CF93DF93FC01009709F4F8
:103E80006FC0F12CEE24E394EF01219684918437E6
:103E900040F4843008F055C0813081F0823021F147
:103EA0005FC0853709F447C0C0F19CE7980F903791
:103EB00008F056C08F770E94481845C08F010E5FEA
:103EC0001F4FFE01849190E2980F983050F4877054
:103ED000FE2D01C0FF0F8A95EAF78F2F0E94FB216C
:103EE00015C00E94501714C08F010E5F1F4FFE01B6
:103EF000849190E2980F983068F48770FE2D01C08D
:103F0000FF0F8A95EAF78F2F0E9401220E94A521B8
:103F1000E80119C00E944818FBCFCF010296FE01AC
:103F2000C491CC2361F0EFE9FFE03197F1F700C0D5
:103F30000000C150F6CFCF010296FE01F490EC01D3
:103F400002C00E9450178F2D882341F0EFE9FFE057
:103F50003197F1F700C000008150F6CFFE0194CFF9
:103F6000DF91CF911F910F91FF90EF9008950895E9
:103F70000E94B71F60931702709318028093190272
:103F800090931A020C94981B08950C94B81F0F93E9
:103F90001F9300911702109118022091190230917D
:103FA0001A02602B712B822B932B1F910F910C9473
:103FB000B81F0F931F9300911702109118022091C0
:103FC000190230911A0260237123822393231F91D7
:103FD0000F910C94B81F0F931F930091170210912B
:103FE00018022091190230911A0260277127822746
:103FF00093271F910F910C94B81F08950C94FD1FE7
:104000000E94FE1F609313027093140280931502A6
:10401000909316020C94981B60E070E0CB010C9416
:10402000002041E050E060E070E004C0440F551F04
:10403000661F771F8A95D2F7CB01BA010C94002036
:1040400041E050E060E070E004C0440F551F661F7F
:10405000771F8A95D2F78091130290911402A09154
:104060001502B0911602482B592B6A2B7B2BCB01E2
:10407000BA010C94002041E050E060E070E004C020
:10408000440F551F661F771F8A95D2F740955095AC
:10409000609570958091130290911402A091150281
:1040A000B0911602482359236A237B23CB01BA011E
:1040B0000C94002041E050E060E070E004C0440F48
:1040C000551F661F771F8A95D2F780911302909132
:1040D0001402A0911502B0911602482759276A27A9
:1040E0007B27CB01BA010C9400200F931F93009102
:1040F0001302109114022091150230911602602BC8
:10410000712B822B932B1F910F910C9400200F93F6
:104110001F93009113021091140220911502309107
:10412000160260237123822393231F910F910C9415
:1041300000200F931F9300911302109114022091FD
:1041400015023091160260277127822793271F914D
:104150000F910C940020089520E1929F800D11246E
:10416000482F4695469546958770B1E001C0BB0F34
:104170008A95EAF785E0489FA001112449525E4FD5
:1041800080E090E070E0FA01E80FF91FA0819B0148
:10419000082E02C0369527950A94E2F7217033273E
:1041A00021952A272B232A272083019685309105E4
:1041B00051F7089520E1929F800D1124682F669594
:1041C00066956695982F977085E0689FB0011124D9
:1041D00069527E4F40E050E080E0FB01E40FF51FA4
:1041E000208130E0092E02C0369527950A94E2F727
:1041F00021703327042E01C0220F0A94EAF7822B84
:104200004F5F5F4F4530510541F70895CF92DF92E0
:10421000EF92FF920F931F93CF93DF93EC01C09027
:104220001702D0901802E0901902F0901A028091C3
:10423000130290911402A0911502B0911602C82A9F
:10424000D92AEA2AFB2A0FE110E0B701A601002EC5
:1042500004C076956795579547950A94D2F740FD27
:1042600005C00150110988F780E007C0BE01802F0A
:104270000E945C0C0197A9F3802FDF91CF911F91D1
:104280000F91FF90EF90DF90CF900895CF93DF9341
:10429000EC010E940621BE010E945C0CDF91CF91CF
:1042A00008951F93CF93DF93EB0190919E01992383
:1042B00021F0CB010E94462113C0882349F0CB0195
:1042C0000E940621182F682FCE010E94AC2004C046
:1042D000CB010E94DA20182FBE01812F0E945C0CB6
:1042E000DF91CF911F91089580911B02859585954F
:1042F0008595089580911B028770089598E0899FA5
:1043000090011124622B60931B020C942020409199
:104310001B028095842380931B02982F977069F469
:1043200050E0282F332727FD30954217530729F0F7
:104330008595859585950C943B20089590911B0259
:10434000977081E009F480E00895E0910201F09116
:10435000030180913F028083E0910201F09103010B
:10436000808190913E02892B8083E0910201F0913F
:104370000301808190913D02892B808390911C02E2
:10438000992381F0E0910201F09103018081892B52
:10439000808380910201909103010E946F2281111C
:1043A00010921C0280910201909103010C940D1651
:1043B00080913F02089590913F02982B90933F0285
:1043C0000895809590913F02982390933F0208951D
:1043D00010923F02089590913E02982B90933E02D6
:1043E0000895809590913E02982390933E020895FF
:1043F00010923E02089590913D02982B90933D02B9
:104400000895809590913D02982390933D020895E0
:1044100010923D02089580931C02089510921C0290
:10442000089580911C0208956DEE7EEF80E090E08B
:104430000E940D3360E082E090E00E94EF3260E085
:1044400083E090E00E94EF3260E084E090E00E9420
:10445000EF3260E085E090E00E94EF3260E086E0BD
:1044600090E00E94EF3240E050E0BA0188E090E036
:104470000C9401336FEF7FEF80E090E00C940D33EC
:1044800080E090E00E94E93221E08D3E9E4F09F0ED
:1044900020E0822F089582E090E00C94DB32682FB8
:1044A00082E090E00C94EF3283E090E00C94DB32F9
:1044B000682F83E090E00C94EF3284E090E00C945D
:1044C000DB32682F84E090E00C94EF3286E090E0DD
:1044D0000C94DB32682F86E090E00C94EF3220E001
:1044E00030E040E0FC01E20FF31F518151114F5FBA
:1044F0002F5F3F4F2F313105A9F7842F089520E01A
:1045000030E04FEFFC01E20FF31F5281561799F094
:104510004F3F19F4511101C0422F2F5F3F4F2E31F1
:10452000310581F74F3F39F0FC01E40FF11D47FDE4
:10453000FA9562830895089520E030E0FC01E20FCF
:10454000F31F4281461301C012822F5F3F4F2E316D
:104550003105A1F70895262F2695269526952F310A
:1045600070F4FC01E20FF11D677021E030E0062ECF
:1045700001C0220F0A94EAF78181822B818308957A
:10458000262F2695269526952F3178F4FC01E20FEB
:10459000F11D677021E030E0062E01C0220F0A9461
:1045A000EAF7209581812823218308952091140121
:1045B000222329F02091A90227FD0C94AB220C9410
:1045C0007F2220911401222329F02091A90227FDA6
:1045D0000C94C0220C949C2220E030E0FC01E20FFD
:1045E000F31F11822F5F3F4F2F313105B9F7089527
:1045F00008950C94F8228091B002843049F1109211
:10460000410220E488E190E00FB6F894A8958093E9
:1046100060000FBE2093600080E00E94CD0B80E020
:104620000E943D0C0E94F92283B7817F846083BF82
:1046300083B7816083BF7894889583B78E7F83BF6B
:1046400088E10FB6F89480936000109260000FBE6E
:10465000089508950895CF930E9429230E94740F0E
:104660000E942A23C0E08C2F0E942010892B29F45D
:10467000CF5FC630C1F780E001C081E0CF910895DF
:1046800008950C9440230E94B01B0E947F270E9433
:1046900001160E943D0C0C9441231F920F920FB6FD
:1046A0000F9211248F939F93AF93BF9380914102F8
:1046B000811113C08091A5029091A602A091A7023A
:1046C000B091A8024196A11DB11D8093A5029093BF
:1046D000A602A093A702B093A802BF91AF919F91A9
:1046E0008F910F900FBE0F901F90189582E084BDA0
:1046F00093E095BD9AEF97BD80936E0008952FB714
:10470000F8948091A5029091A602A091A702B09181
:10471000A8022FBF0895CF92DF92EF92FF920F93DE
:104720001F932FB7F8944091A5025091A602609173
:10473000A7027091A8022FBF6A017B01EE24FF241B
:104740008C0120E030E0C016D106E206F30610F43A
:1047500041505109481B590BCA011F910F91FF90FD
:10476000EF90DF90CF90089578941F920F920FB63C
:104770000F9211248F939F93AF93BF938091A502C3
:104780009091A602A091A702B091A8020196A11D46
:10479000B11D8093A5029093A602A093A702B093A7
:1047A000A802BF91AF919F918F910F900FBE0F9074
:1047B0001F90189581E08093E00080E28093D800FC
:1047C0001092C9008FE19EE40197F1F700C000004C
:1047D00087E090EBDC018093B9029093BA02A0933A
:1047E000BB02B093BC022CE088E190E00FB6F894D5
:1047F000A895809360000FBE20936000FFCFBF920A
:10480000CF92DF92EF92FF920F931F93CF93DF939C
:10481000B12C01E010E0E82EF12C8B2D0E9420102D
:104820006C01C0E0D0E098010C2E02C0220F331FB3
:104830000A94E2F72C213D21232B29F42196C03143
:10484000D10589F70AC06C2F7B2D80E00E943F0CB8
:10485000E816F90699F781E005C0B39486E0B8122E
:10486000DCCF80E0DF91CF911F910F91FF90EF900F
:10487000DF90CF90BF900895CF93C82F8CE20E9415
:10488000FF23882321F08C2FCF910C94FF2380E00D
:10489000CF910895CF930E944022811102C00E94BF
:1048A0001422C5E6C15049F00E94740F8FE39CE9C1
:1048B0000197F1F700C00000F5CF89E20E943C2487
:1048C00081110DC18AE20E943C2481110E941422B0
:1048D00085E00E943C2481110E94DA230E944B2231
:1048E0008093400287E00E943C24882399F18BE169
:1048F0000E943C24882351F09091400291FB88272C
:1049000080F921E0822780FB91F922C08EE00E948D
:104910003C24882351F09091400292FB882780F933
:1049200021E0822780FB92F913C080E10E943C24A1
:1049300090914002882341F093FB882780F921E081
:10494000822780FB93F904C0892F809580FB90F922
:1049500090934002809140020E944F220E945D226B
:1049600090E09093AA028093A90280EE0E943C24DA
:10497000882341F08091A902982F909590FB80F9AF
:104980008093A90289E30E943C24882359F09091E6
:10499000A90291FB882780F921E0822780FB91F909
:1049A0009093A90282EE0E943C24882359F09091B2
:1049B000A90292FB882780F921E0822780FB92F9E7
:1049C0009093A90286EE0E943C24882359F090918E
:1049D000A90293FB882780F921E0822780FB93F9C5
:1049E0009093A90283EE0E943C24882359F0909171
:1049F000A90294FB882780F921E0822780FB94F9A3
:104A00009093A90285E30E943C24882359F0909159
:104A1000A90295FB882780F921E0822780FB95F980
:104A20009093A90281E30E943C24882359F090913D
:104A3000A90296FB882780F921E0822780FB96F95E
:104A40009093A90281E10E943C24882359F090911F
:104A5000A90297FB882780F921E0822780FB97F93C
:104A60009093A9028091A9020E94612287E20E948C
:104A70003C24C82F8EE10E943C248111C2608FE14A
:104A80000E943C248111C46080E20E943C24811178
:104A9000C86081E20E943C248111C06182E20E94D0
:104AA0003C248111C06283E20E943C248111C064D5
:104AB00084E20E943C24882311F0C06802C0CC2309
:104AC00029F08C2F0E9458226C2F03C00E94542280
:104AD000682F70E080E090E0CF910C94C51FCF91DB
:104AE00008958091440280FF0BC06091070185E02A
:104AF000689FB001112475956795759567952AC0D3
:104B000081FF09C06091070185E0689FB001112411
:104B1000759567951FC082FF07C06091070185E00A
:104B2000689FB001112416C0409145024423C9F08A
:104B300060910601461788F72091070185E0289FBC
:104B400090011124429FC001439F900D112470E0F9
:104B50000E9485326038710540F46115710539F0A5
:104B600002C065E070E0862F08958FE7089581E028
:104B700008958091440280FF08C06091050170E0B3
:104B8000759567957595679521C081FF06C0609101
:104B9000050170E07595679519C082FF04C06091AA
:104BA000050170E010C0809145028823C1F060913A
:104BB00004018617A0F790910501989FC001112468
:104BC00070E00E9485326038710528F46115710526
:104BD00021F0862F08958FE7089581E0089561E020
:104BE00070E0F4CF803F21F40E947125819504C0CC
:104BF000813F29F40E947125809348020895823FE5
:104C000021F40E947125819504C0833F29F40E94FC
:104C10007125809347020895893F19F40E94B925B0
:104C200005C08A3F31F40E94B925819580934902DD
:104C300008958B3F21F40E94B925819504C08C3FD3
:104C400029F40E94B92580934A020895843F21F4F3
:104C500080914602816017C0853F21F48091460211
:104C6000826011C0863F21F48091460284600BC0AF
:104C7000873F21F480914602886005C0883F31F467
:104C80008091460280618093460208958D3F21F411
:104C90008091440281600BC08E3F21F480914402D8
:104CA000826005C08F3F29F4809144028460809324
:104CB00044020895803F39F48091480287FF6CC018
:104CC0001092480269C0813F29F480914802181669
:104CD000BCF362C090914702823F29F497FF5CC009
:104CE0001092470259C0833F19F41916CCF354C0EF
:104CF000893F41F48091490218160CF04DC0109282
:104D000049024AC08A3F29F48091490287FF44C082
:104D1000F6CF8B3F39F480914A0287FF3DC0109255
:104D20004A023AC08C3F29F480914A021816BCF31B
:104D300033C0843F21F4809146028E7F17C0853FA7
:104D400021F4809146028D7F11C0863F21F480912D
:104D500046028B7F0BC0873F21F480914602877FFC
:104D600005C0883F31F4809146028F7E80934602D1
:104D700013C08D3F21F4809144028E7F0BC08E3F83
:104D800021F4809144028D7F05C08F3F29F48091EA
:104D900044028B7F809344028091470281110EC0B0
:104DA0008091480281110AC080914902811106C098
:104DB00080914A02811102C010924502089586E452
:104DC00092E00E9418160E947F23909343028093E2
:104DD000420208951F93CF93DF93809142029091F6
:104DE00043020E948B2340914502442321F02091ED
:104DF000080130E006C0209109015AE0259F90018A
:104E000011248217930708F46AC080914702109119
:104E10004802D0914902C0914A02811107C0111184
:104E200005C0D11103C0CC2309F459C04F3F19F07C
:104E30004F5F40934502181624F40E947125809319
:104E400047028091470287FF05C00E947125819526
:104E500080934702111624F40E9471258093480222
:104E60008091480287FF05C00E947125819580933B
:104E7000480220914702222379F0409148024423BE
:104E800059F055EB25039001112430934702450357
:104E9000C0011124909348021D1624F40E94B925E4
:104EA000809349028091490287FF05C00E94B9257D
:104EB0008195809349021C1624F40E94B9258093A1
:104EC0004A0280914A0287FF05C00E94B925819558
:104ED00080934A02DF91CF911F910C94DF26DF91DE
:104EE000CF911F910895E6E4F2E085E0DF011D9285
:104EF0008A95E9F7109245021092440208950E94A3
:104F00004022811102C00E9414220E9466228093D6
:104F1000AB02282F269530E02630310524F0817031
:104F20008A608093AB028091AB0280FF02C08695BD
:104F300001C080E00C94CD0B2091AB02322F36954E
:104F4000832F90E0059744F491E0930F990F822FFF
:104F50008170892B8093AB028091AB02816080933A
:104F6000AB020E946A228091AB0286950C94CD0B15
:104F70008091AB02982F969591F09158990F81707E
:104F8000892B8093AB028E7F91E009F490E08091B1
:104F9000AB0290FB80F98093AB020E946A22809161
:104FA000AB0286950C94CD0B8091AB02982F909517
:104FB00090FB80F98093AB02813019F483E08093F9
:104FC000AB028091AB020E946A228091AB0280FF0B
:104FD00002C0869501C080E00C94CD0B3091AB02ED
:104FE000232F26952F5F2F77822F90E03170069721
:104FF0002CF4220F232B2093AB0202C03093AB0280
:105000008091AB028E7F91E009F490E08091AB0239
:1050100090FB80F98093AB020E946A228091AB02E0
:1050200086950C94CD0B863008F085E0880F909122
:10503000AB029170982B9093AB029E7F21E009F414
:1050400020E08091AB0220FB80F98093AB020E94AC
:105050006A228091AB0286950C94CD0B80916B02F5
:1050600008950F931F93CF93DF9300D01F92CDB776
:10507000DEB78C010E94A72A823011F0843019F526
:1050800083E089831B830A838093E9008FEF9091EB
:10509000E800815095FD06C095ED9A95F1F7000066
:1050A0008111F5CF8091E80085FF0DC040E050E010
:1050B00063E070E0CE0101960E94C42A8091E8006E
:1050C0008E778093E8000F900F900F90DF91CF9133
:1050D0001F910F910895CF93DF9300D01F92CDB70A
:1050E000DEB72091B002243031F522E029838058C8
:1050F00091099B838A8383E08093E9008FEF9091ED
:10510000E800815095FD06C095ED9A95F1F70000F5
:105110008111F5CF8091E80085FF0DC040E050E09F
:1051200063E070E0CE0101960E94C42A8091E800FD
:105130008E778093E8000F900F900F90DF91CF91C2
:105140000895CF93DF93EC010E94A72A823011F0DB
:105150008430F9F482E08093E9008FEF9091E800C9
:10516000815095FD06C095ED9A95F1F700008111EB
:10517000F5CF8091E80085FF0CC040E050E065E08D
:1051800070E0CE010E94C42A8091E8008E7780935F
:10519000E800DF91CF910895CF93DF93EC010E9457
:1051A000A72A823019F0843009F047C08091140199
:1051B0008823E1F08091A90287FF18C084E08093E2
:1051C000E9008FEF9091E800815095FD06C095E1D0
:1051D0009A95F1F700008111F5CF8091E80085FFE5
:1051E0002CC040E050E060E270E017C081E08093A6
:1051F000E9008FEF9091E800815095FD06C095ED94
:105200009A95F1F700008111F5CF8091E80085FFB4
:1052100014C040E050E068E070E0CE010E94C42A73
:105220008091E8008E778093E80080E2FE01ABE495
:10523000B2E001900D928A95E1F7DF91CF91089548
:105240008091AF02811109C00E94562C0E94B32C9C
:105250008091E20084608093E20008951092AF0292
:105260000895089508950C94432342E061EC81E091
:105270000E94D02B42E061EC82E00E94D02B42E001
:1052800061EC83E00E94D02B42E261EC84E00C945C
:10529000D02B8091B202833009F455C030F48130B4
:1052A00071F0823009F48EC008958A3009F47AC012
:1052B0008B3009F460C0893009F09CC020C0809117
:1052C000B102813A09F096C08091E800877F80930F
:1052D000E8008091B5029091B602892B21F060E040
:1052E00080E090E003C060E28BE492E070E00E9416
:1052F0000D2B8091E8008B778093E80008958091D2
:10530000B102813209F076C08091B5029091B60267
:10531000009719F0039709F06DC08091E800877F2E
:105320008093E8008091E80082FD05C08091B00282
:105330008111F8CF5FC08091F10080936B02809162
:10534000E8008B7753C08091B102813A09F052C0D6
:105350008091B5029091B602892B09F04BC08091E3
:10536000E800877F8093E8008091E80080FFFCCF11
:105370008091140136C08091B1028132D9F58091BB
:10538000B5029091B602892BA9F58091E800877F3C
:105390008093E8000E94052C8091B3028093140151
:1053A0000C94B01B8091B102813221F58091E8000C
:1053B000877F8093E8000E94052C8091B40280933F
:1053C0006C0208958091B102813AA1F48091E800C5
:1053D000877F8093E8008091E80080FFFCCF809178
:1053E0006C028093F1008091E8008E778093E80052
:1053F0000C94052C089584B7877F84BF88E10FB68D
:10540000F89480936000109260000FBE80E8809353
:105410006100109261000E9450160E94562C0E945A
:10542000B32C8091E20084608093E20078940E9423
:10543000362F0E9454168AE091E00E94FC1580915C
:10544000B002853069F40E94FB228091AE0288236D
:10545000B1F30E942B23882391F30E94AE2AEFCF51
:105460000E945E160E948A15EACF0C94372A292FD3
:10547000332723303105A9F06CF42130310509F4CC
:1054800048C02230310509F049C08DE690E02AEE8F
:105490003EE048C021323105F9F02232310549F1B0
:1054A0003DC099278130910571F02CF4892BB1F51D
:1054B000E6EEFEE00DC08230910541F0039771F5F4
:1054C000E8ECFEE005C0ECEDFEE002C0EEECFEE034
:1054D000849190E09F0126C064307105F8F4FB01CF
:1054E000EE0FFF1FE95CFE4F2081318189E090E0E3
:1054F00019C06430710590F4FB01EE0FFF1FE15DF0
:10550000FE4F20813181FB01E55DFE4F808190E0FF
:1055100009C082E190E027E53FE004C080E090E030
:1055200020E030E0FA013183208308950895CF937D
:10553000C82F0E94962AC0936D02CF910895809142
:10554000B002843011F482E0089581E008958091E2
:105550006D02811102C00C949F2A089580E189BDDB
:1055600082E189BD09B400FEFDCF8091D8008F7D16
:105570008093D8008091E00082608093E000809169
:10558000E00081FDFCCF0895CF92DF92EF92FF9271
:105590000F931F93CF93DF937C018B01EA010E944D
:1055A000262C811131C0209731F088819981081B08
:1055B000190BE80EF91EC12CD12C0115110519F19A
:1055C0008091E80085FD14C08091E8008E7780937B
:1055D000E800209741F0888199818C0D9D1D998369
:1055E000888385E011C00E94262C882331F30CC0EB
:1055F000F70181917F018093F10001501109FFEFC4
:10560000CF1ADF0ADACF80E0DF91CF911F910F919F
:10561000FF90EF90DF90CF9008952091B7023091E6
:10562000B8022617370748F06115710539F4209143
:10563000E8002E772093E80001C0B901FC0120E0CA
:1056400061157105B9F18091B002882309F440C059
:10565000853009F43FC08091E80083FD3DC0809112
:10566000E80082FF06C08091E80082FF26C080E04B
:1056700008958091E80080FFE3CF2091F3008091AE
:10568000F20090E0922B6115710551F08830910580
:1056900038F421912093F100615071090196F3CF04
:1056A00021E0089709F020E08091E8008E77809350
:1056B000E800C6CF2111C7CFD6CF8091B002882392
:1056C00039F0853039F08091E80083FFCCCF04C0F9
:1056D00082E0089583E0089581E008952091B70263
:1056E0003091B8022617370748F06115710539F473
:1056F0002091E8002E772093E80001C0B901FC0159
:1057000020E061157105C1F18091B002882309F490
:1057100041C0853009F440C08091E80083FD3EC05F
:105720008091E80082FF06C08091E80082FF27C0D8
:1057300080E008958091E80080FFE3CF2091F3009E
:105740008091F20090E0922B6115710559F088303C
:10575000910540F424912093F10031966150710934
:105760000196F2CF21E0089709F020E08091E8004F
:105770008E778093E800C5CF2111C6CFD5CF809119
:10578000B002882339F0853039F08091E80083FF3A
:10579000CBCF04C082E0089583E0089581E00895AE
:1057A000982F973058F59093E900981739F0709139
:1057B000EC002091ED005091F00003C0242F762FD3
:1057C00050E021FF19C03091EB003E7F3093EB0099
:1057D0003091ED003D7F3093ED003091EB00316072
:1057E0003093EB007093EC002093ED005093F000A9
:1057F0002091EE0027FF07C09F5FD3CF8F7080936B
:10580000E90081E0089580E008958091B10287FD6C
:1058100005C08091E80080FF0EC012C08091E800B2
:1058200082FD05C08091B0028111F8CF089580916A
:10583000E8008B7708C08091B0028111EACF08950B
:105840008091E8008E778093E80008958091E400CD
:105850009091E50045E62091EC0020FF21C02091C9
:10586000E80020FD21C02091B002222389F02530DC
:1058700089F02091EB0025FD0FC02091E4003091CC
:10588000E5002817390739F3415041F0C901E3CF4A
:1058900082E0089583E0089581E0089584E008950A
:1058A0002091E80022FFDFCF80E008950E94C42C01
:1058B0000E94CC2CE0EEF0E0808181608083E8EDF6
:1058C000F0E080818F77808319BCA7EDB0E08C91E8
:1058D0008E7F8C9380818F7E80831092AF0208959B
:1058E0000F931F93CF93DF930E94C42C0E94CC2C64
:1058F000C8EDD0E088818F7788838881806888832D
:1059000088818F7D888319BC1092B0021092AC02FE
:105910001092AE021092AD0200EE10E0F80180810C
:105920008B7F808388818160888342E060E080E0B3
:105930000E94D02BE1EEF0E080818E7F8083E2EE4A
:10594000F0E0808181608083808188608083F801BD
:1059500080818E7F8083888180618883DF91CF9171
:105960001F910F910895E8EDF0E080818F7E808394
:10597000E7EDF0E080818160808384E082BF81E098
:105980008093AF020C94702CE8EDF0E080818E7F64
:1059900080831092E20008951092DA001092E100E4
:1059A00008951F920F920FB60F9211242F933F93D9
:1059B0004F935F936F937F938F939F93AF93BF9317
:1059C000EF93FF938091E10082FF0BC08091E20092
:1059D00082FF07C08091E1008B7F8093E1000E94ED
:1059E000352F8091DA0080FF1FC08091D80080FFA2
:1059F0001BC08091DA008E7F8093DA008091D900FD
:105A000080FF0DC080E189BD82E189BD09B400FE3F
:105A1000FDCF81E08093B0020E94202905C019BC0F
:105A20001092B0020E942E298091E10080FF19C0DF
:105A30008091E20080FF15C08091E2008E7F80930C
:105A4000E2008091E20080618093E2008091D800C2
:105A500080628093D80019BC85E08093B0020E94D8
:105A600032298091E10084FF30C08091E20084FF00
:105A70002CC080E189BD82E189BD09B400FEFDCF63
:105A80008091D8008F7D8093D8008091E1008F7E37
:105A90008093E1008091E2008F7E8093E20080910C
:105AA000E20081608093E2008091AC02882311F0D3
:105AB00084E007C08091E30087FF02C083E001C05B
:105AC00081E08093B0020E9433298091E10083FF3E
:105AD00029C08091E20083FF25C08091E100877F8B
