:100000000C942D080C9474080C9474080C947408C7
:100010000C9474080C9474080C9474080C94740870
:100020000C9474080C9474080C94E9280C94BB2963
:100030000C9459230C9474080C9474080C94740850
:100040000C9474080C9474080C9474080C94740840
:100050000C9474080C94C1230C9474080C947408C8
:100060000C9474080C9474080C9474080C94740820
:100070000C9474080C9474080C9474080C94740810
:100080000C9474080C9474080C9474080C94740800
:100090000C9474080C9474080C9474080C947408F0
:1000A0000C9474080C9474080C947408E109E30926
:1000B000EE09E509E709E909EB09ED09F009F2099B
:1000C000F409FF09F609F809FA09FC09FE09010A11
:1000D0004419441976197619FB1AFB1AFB1AFB1AF4
:1000E000B419FB1A551A551AC71AD01AFB1AF41A62
:1000F000621A621A621A621A621A621A621A621A20
:10010000621A621A621A621A621A621A621A621A0F
:10011000731A811A881A8F1A991A7E1B7E1B901BDC
:10012000901B871B901B901B901B7E1B7E1B8C1BA8
:10013000901B901B8C1B282A4F2A412B4F2A412BA6
:100140009B2ABE2A412B142B232B29003A003B006B
:100150003C003D003E003F004000410042004300A3
:1001600044004500480046004C0035001E001F00BA
:100170002000210022002300240025002600270063
:100180002D002E002A002A004A002B000000140037
:100190001A000800150017001C0018000C001200BF
:1001A00013002F00300032004B000051000004000B
:1001B0001600070009000A000B000D000E000F00DA
:1001C00033003400280000004E00E10064001D00F0
:1001D0001B00060019000500110010003600370052
:1001E00038000000E50052004D00E000E300000090
:1001F000E2002C0000002C0000002C000000E600B3
:100200000151E400500051004F00010001000100C5
:1002100001000100010001000100010001000100D6
:1002200001000100010001000100010001000100C6
:1002300001000100010001000100010001000100B6
:10024000010001000100005C010001000000C25C2F
:10025000C35CC55CC65CC75CC85CC95CCA5C0100A9
:100260000100010001000100010001000000010087
:100270000100010001000100010001000100010076
:100280000100010001000000010001000100010067
:100290000100BD5CBF5CBE5CC05C010001000100F0
:1002A000010000000100A9000100010001000000A0
:1002B0000100010000000100000001000000010039
:1002C0000100AE00AC00AA00AB000100013002301A
:1002D0000100010001000100010001000100010016
:1002E0000100010001000100010001000100010006
:1002F00001000100010001000100010001000100F6
:1003000001000100010001000100010000000100E6
:1003100001000100010001000100010001000100D5
:1003200001000100010001000100010000000100C6
:1003300001000100010001000100010001000100B5
:1003400001000100010000000100010001000100A6
:100350000100010001000100010001000100010095
:100360000100000001000100010001000100000087
:100370000100010000000100000001000000010078
:100380000100010001000100010001000100010065
:100390000100010001000100010001000100010055
:1003A0000100010001000100010001000100010045
:1003B0000100010001000100010001000100010035
:1003C0000100010001000100010001000000010026
:1003D0000100010001000100010001000100010015
:1003E0000100010001000100010001000000010006
:1003F00001000100010001000100010001000100F5
:1004000001000100010000000100010001000100E5
:1004100001000100010001000100010001000100D4
:1004200001000000010001000100010001000000C6
:1004300001000100000001000000010000000100B7
:1004400001000100010001000100010001000100A4
:100450000100010001000100010001000100010094
:100460000100010001000100010001000100010084
:100470000100010001000100010001000100010074
:100480000100010001000100010001000000010065
:100490000100010001000100010001000100010054
:1004A0000100010001000100010001000000010045
:1004B0000100010001000100010001000100010034
:1004C0000100010001000000010001000100010025
:1004D0000100010001000100010001000100010014
:1004E0000100000001000100010001000100000006
:1004F00001000100000001000000010000000100F7
:1005000001000100010001000100010001000100E3
:1005100001000100010001000100010001000100D3
:1005200001000100010001000100010001000100C3
:1005300001000100010001000100010001000100B3
:1005400001000100010001000100010000000100A4
:100550000100010001000100010001000100010093
:100560000100010001000100010001000000010084
:100570000100010001000100010001000100010073
:100580000100010001000000010001000100010064
:100590000100010001000100010001000100010053
:1005A0000100000001000100010001000100000045
:1005B0000100010000000100000001000000010036
:1005C0000100010001000100010001000100010023
:1005D0000100010001000100010001000100010013
:1005E0000100010001000100010001000100010003
:1005F00001000100010001000100010001000100F3
:1006000001000100010001000100010000000100E3
:1006100001000100010001000100010001000100D2
:1006200001000100010001000100010000000100C3
:1006300001000100010001000100010001000100B2
:1006400001000100010000000100010001000100A3
:100650000100010001000100010001000100010092
:100660000100000001000100010001000100000084
:100670000100010000000100000001000000010075
:100680000100010001000100010001000100010062
:100690000100010001000100010001000100010052
:1006A0000100010001000100010001000100010042
:1006B0000100010001000100010001000100010032
:1006C0000100010001000100010001000000010023
:1006D0000100010001000100010001000100010012
:1006E0000100010001000100010001000000010003
:1006F00001000100010001000100010001000100F2
:1007000001000100010000000100010001000100E2
:1007100001000100010001000100010001000100D1
:1007200001000000010001000100010001000000C3
:1007300001000100000001000000010000000100B4
:1007400001000100010001000100010001000100A1
:100750000100010001000100010001000100010091
:100760000100010001000100010001000100010081
:100770000100010001000100010001000100010071
:100780000100010001000100010001000000010062
:100790000100010001000100010001000100010051
:1007A0000100010001000100010001000000010042
:1007B0000100010001000100010001000100010031
:1007C0000100010001000000010001000100010022
:1007D0000100010001000100010001000100010011
:1007E0000100000001000100010001000100000003
:1007F00001000100000001000000010000000100F4
:1008000001000100010001000100010001000100E0
:1008100001000100010001000100010001000100D0
:1008200001000100010001000100010001000100C0
:1008300001000100010001000100010001000100B0
:1008400001000100010001000100010000000100A1
:100850000100010001000100010001000100010090
:100860000100010001000100010001000000010081
:100870000100010001000100010001000100010070
:100880000100010001000000010001000100010061
:100890000100010001000100010001000100010050
:1008A0000100000001000100010001000100000042
:1008B0000100010000000100000001000000010033
:1008C0000100010001000100010001000100010020
:1008D0000100010001000100010001000100010010
:1008E0000100010001000100010001000100010000
:1008F00001000100010001000100010001000100F0
:1009000001000100010001000100010000000100E0
:1009100001000100010001000100010001000100CF
:1009200001000100010001000100010000000100C0
:1009300001000100010001000100010001000100AF
:1009400001000100010000000100010001000100A0
:10095000010001000100010001000100010001008F
:100960000100000001000100010001000100000081
:100970000100010000000100000001000000010072
:10098000010001000100010001000100010001005F
:10099000010001000100010001000100010001004F
:1009A000010001000100010001000100010001003F
:1009B000010001000100010001000100010001002F
:1009C0000100010001000100010001000000010020
:1009D000010001000100010001000100010001000F
:1009E0000100010001000100010001000000010000
:1009F00001000100010001000100010001000100EF
:100A000001000100010000000100010001000100DF
:100A100001000100010001000100010001000100CE
:100A200001000000010001000100010001000000C0
:100A300001000100000001000000010000000100B1
:100A4000010001000100010001000100010001009E
:100A5000010001000100010001000100010001008E
:100A6000010001000100010001000100010001007E
:100A7000010001000100010001000100010001006E
:100A8000010001000100010001000100000001005F
:100A9000010001000100010001000100010001004E
:100AA000010001000100010001000100000001003F
:100AB000010001000100010001000100010001002E
:100AC000010001000100000001000100010001001F
:100AD000010001000100010001000100010001000E
:100AE0000100000001000100010001000100000000
:100AF00001000100000001000000010000000100F1
:100B000001000100010001000100010001000100DD
:100B100001000100010001000100010001000100CD
:100B200001000100010001000100010001000100BD
:100B300001000100010001000100010001000100AD
:100B4000010001000100010001000100000001009E
:100B5000010001000100010001000100010001008D
:100B6000010001000100010001000100000001007E
:100B7000010001000100010001000100010001006D
:100B8000010001000100000001000100010001005E
:100B9000010001000100010001000100010001004D
:100BA000010000000100010001000100010000003F
:100BB0000100010000000100000001000000010030
:100BC000010001000100010001000100010001001D
:100BD000010001000100010001000100010001000D
:100BE00001000100010001000100010001000100FD
:100BF00001000100010001000100010001000100ED
:100C000001000100010001000100010000000100DD
:100C100001000100010001000100010001000100CC
:100C200001000100010001000100010000000100BD
:100C300001000100010001000100010001000100AC
:100C4000010001000100000001000100010001009D
:100C5000010001000100010001000100010001008C
:100C6000010000000100010001000100010000007E
:100C7000010001000000010000000100000001006F
:100C8000010001000100010001000100010001005C
:100C9000010001000100010001000100010001004C
:100CA000010001000100010001000100010001003C
:100CB000010001000100010001000100010001002C
:100CC000010001000100010001000100000001001D
:100CD000010001000100010001000100010001000C
:100CE00001000100010001000100010000000100FD
:100CF00001000100010001000100010001000100EC
:100D000001000100010000000100010001000100DC
:100D100001000100010001000100010001000100CB
:100D200001000000010001000100010001000000BD
:100D300001000100000001000000010000000100AE
:100D40000100010001000100010000047F3F1F6459
:100D50003214643214783C1E1E140A052223252600
:100D600028292A2C2D2F3032333536383A3B3D3E58
:100D70004042434547494A4C4E5051535557595AA2
:100D80005C5E6062646668696B6D6F7173757779BC
:100D90007B7D7F81838587898A8C8E9092949698BB
:100DA0009A9C9E9FA1A3A5A7A8AAACAEAFB1B3B4CD
:100DB000B6B8B9BBBCBEBFC1C2C3C5C6C7C9CACB22
:100DC000CCCDCED0D1D2D2D3D4D5D6D7D7D8D9D9ED
:100DD000DADADBDBDBDCDCDCDCDCDDDDDDDDDCDC56
:100DE000DCDCDCDBDBDBDADAD9D9D8D7D7D6D5D473
:100DF000D3D2D2D1D0CECDCCCBCAC9C7C6C5C3C23F
:100E0000C1BFBEBCBBB9B8B6B4B3B1AFAEACAAA893
:100E1000A7A5A3A19F9E9C9A98969492908E8C8A47
:100E200089878583817F7D7B79777573716F6D6B22
:100E30006968666462605E5C5A5957555351504EFA
:100E40004C4A4947454342403E3D3B3A38363533AC
:100E500032302F2D2C2A292826252322FFAA7F5520
:100E6000400000000000000000000001010101013D
:100E70000101010102020202020202020303030352
:100E8000030303040404040405050505050606061A
:100E9000060607070707080808080909090A0A0AD1
:100EA0000B0B0B0C0C0C0D0D0D0E0E0E0F0F10106E
:100EB00010111112121313141415151616171718F2
:100EC0001819191A1A1B1C1C1D1D1E1F1F20212159
:100ED00022232324252526272828292A2B2C2C2D9C
:100EE0002E2F30313132333435363738393A3B3CB6
:100EF0003D3E3F404142434445464748494B4C4DA7
:100F00004E4F50525354555758595A5C5D5E60616C
:100F100063646567686A6B6C6E6F717274767779FB
:100F20007A7C7D7F8182848687898B8D8E90929456
:100F30009597999B9D9FA1A2A4A6A8AAACAEB0B27A
:100F4000B4B6B9BBBDBFC1C3C5C8CACCCED0D3D55A
:100F5000D7DADCDEE1E3E6E8EAEDEFF2F4F7F9FCFC
:100F6000FF040330000000140375006E0064006588
:100F700000660069006E006500640000000E0364F6
:100F8000007A007400650063006800000004030933
:100F90000409023B00020100A0FA09040000010359
:100FA0000101000921110100012240000705810310
:100FB00008000A09040100010300000009211101D1
:100FC0000001223B000705820320000A12011001E4
:100FD00000000008EDFE6060010001020301050150
:100FE0000906A1018505050719E029E71500250176
:100FF00095087501810205081901290595057501F6
:1010000091029501750391010507190029EF15005B
:10101000250195F075018102C005010906A10105B0
:101020000719E029E715002501950875018102954A
:1010300001750881010508190129059505750191BA
:10104000029501750391010507190029FF15002676
:10105000FF00950675088100C00011241FBECFEF68
:10106000DAE0DEBFCDBF04B603FE27C08091AA023E
:101070009091AB02A091AC02B091AD028730904B41
:10108000A740B04BD1F41092AA021092AB0210927A
:10109000AC021092AD0214BE84B7877F84BF0FB636
:1010A000F894A89580916000886180936000109208
:1010B00060000FBEE0E0F8E3099511E0A0E0B1E0C8
:1010C000ECE8F8E502C005900D92A835B107D9F714
:1010D00022E0A8E5B1E001C01D92AA3AB207E1F70B
:1010E0000E940B260C94442C0C9400000C947D0858
:1010F0000C947E0880E090E008950895089581E0C2
:10110000089581FF02C0229A01C022982A9808956A
:1011100081E008950C947F081F93CF93DF9300D054
:1011200000D01F92CDB7DEB749835A832091980132
:1011300089819A81211112C0662349F00E94A3205F
:10114000182F682F89819A810E94482003C00E942D
:101150007720182F69817A81812F04C00E94A320F3
:1011600069817A810F900F900F900F900F90DF910F
:10117000CF911F910C946F0BFC01408151816281D2
:10118000738184810C948C080C947808E82FE29584
:10119000EF70F0E032A1282F2F7081E090E001C0C5
:1011A000880F2A95EAF78095832382A30895CF922A
:1011B000DF92EF92FF92863030F4811105C090915A
:1011C00080009F7D04C085E09091800090629093A4
:1011D0008000282F30E0AFEFBFEF0E94D52B25E035
:1011E00030E040E050E00E94AD2B2C3784E138071E
:1011F0004105510530F4C90169E070E00E94852B7A
:1012000029C0DA01C9018A50974DAF4FBF4F6627F9
:10121000782F892F9A2F25EF38E241E050E00E9485
:10122000AD2B69017A01CA01B9010E94752B9B019E
:10123000AC01C701B6010E94752BBB27A92F982FBF
:10124000872F009721E0A207B10511F0BC0102C071
:101250006FEF7FEF70938B0060938A00FF90EF90A9
:10126000DF90CF900895269A86E30E94C60882E216
:101270008093800089E1809381008FEF9FEF9093AE
:101280008700809386000C9424240E94D32181112E
:1012900002C00E9456220E9433090C9476080C94D6
:1012A00081080C944F0908950E946E1B0E945309F7
:1012B0002FEF84E39CE0215080409040E1F700C094
:1012C00000000C94E7230F931F93CF93DF938C01BF
:1012D0000E94BC08EC01B8010E948A08882309F426
:1012E000F7C1B801CE010E94CD15882309F4F0C1E1
:1012F000CA3CFCE5DF0741F4F8018281882309F448
:10130000E7C10E940B12E4C1CB3C8CE5D80708F082
:1013100012C1C33C9CE5D90761F4F801828188239E
:1013200009F4D6C10E9423218272E1F00E94361492
:10133000CFC1C43CECE5DE07C0F0C63C9CE5D90754
:1013400009F4CAC008F0DCC0C43CFCE5DF0709F0C2
:10135000CBC0F8018281882309F4BAC10E942321FD
:10136000827221F30E942914B3C1C531FCE5DF0765
:1013700008F07BC0C2308CE5D80708F452C0F801F1
:101380008281882309F454C00E94D321811102C0B4
:101390000E9456220E94E62190E090939B02809347
:1013A0009A02FE01E350FC45E231F10530F4EA5ABD
:1013B000FF4F80919A020C94CF2B80919A0281600A
:1013C00027C0826025C0846023C0806121C0806204
:1013D0001FC080641DC080681BC08460886018C006
:1013E0008E7F16C08D7F14C08B7F12C08F7E10C081
:1013F0008F7D0EC08F7B0CC08F770AC08B7F877F5D
:1014000007C087FB222720F991E0922790FB87F9FC
:1014100080939A0280919A020E94EA210E946E1B98
:1014200057C1C1159CE5D90751F0C130DC4579F0B1
:10143000C801DF91CF911F910F910C948808F8019A
:101440008281882309F444C10E94540941C1F801F2
:101450008281882309F43CC180913A02982F9095AB
:1014600090FB80F980933A0233C1C631FCE5DF0777
:1014700039F50E942321282FF80182814091100123
:1014800050911101882379F02A7A91E009F490E0D3
:1014900090935801911102C069E201C065E3CA014D
:1014A0000E94BD220AC080915801811102C069E2E8
:1014B00001C065E3CA010E94C8220E946F2108C1D1
:1014C000C23CDC4509F0B4CFF8018281882309F4DD
:1014D000FFC00E944414FCC0F8018281882309F4F3
:1014E000F7C00E94CF11F4C0C53CDC4509F0A0CF85
:1014F000F8018281882309F4EBC00E94C211E8C080
:10150000F8018281C83CFCE5DF0731F4882309F447
:10151000DFC00E94ED11DCC0C93CDC4530F48823FB
:1015200009F4D6C00E94DE11D3C0882309F4D0C0CC
:101530000E94FC11CDC0C13DECE5DE0791F4F8013D
:101540008281882309F4C4C00E943D108F3028F0A6
:101550000E943D10843108F405CF8FE00E943914B9
:10156000B7C0C23DFCE5DF0708F05AC0CD3C8CE5B2
:10157000D80739F4F8018281882309F4A9C081E0F1
:10158000EDCFCE3C9CE5D907C0F4CB3CECE5DE07C3
:1015900041F4F8018281882309F49AC00E94451021
:1015A00097C0CC3CDC4509F043CFF8018281882309
:1015B00009F48EC00E9456108BC0F8018281CF3C86
:1015C000FCE5DF0771F4882309F482C00E943D1016
:1015D000863028F00E943D10883008F4C3CE86E0A3
:1015E000BDCFC03DDC4570F4882309F471C00E9472
:1015F0003D10823028F00E943D10853008F4B2CEB4
:1016000082E0ACCF882309F463C00E943D1089308A
:1016100028F00E943D108E3008F4A4CE89E09ECFC1
:10162000C53DECE5DE0739F4F8018281882309F431
:101630004FC083E293CFC63DFCE5DF0740F5F801DC
:101640008281C33DFCE5DF0729F4882309F440C00B
:1016500088E184CFC43DDC4568F48823C9F10E9449
:101660003D10853128F00E943D10873108F47ACE74
:1016700085E174CF882361F10E943D10893128F003
:101680000E943D10823208F46DCE89E167CFCD3DD6
:10169000ECE5DE0741F4F80182818823C9F082E09D
:1016A0000E94AC2615C0CE3DFCE5DF0739F4F801F9
:1016B0008281882369F00E9456220AC0CC3DDC4515
:1016C00009F0B6CEF8018281882311F080E0E8CFDE
:1016D00080E0DF91CF911F910F9108950895E72F3A
:1016E000F0E096E0899FE00DF11D112484E0EE0FFB
:1016F000FF1F8A95E1F7E60FF11DEE0FFF1FE65B76
:10170000FE4F859194910895880F991FFC01E65B27
:10171000F24F859194910895CF93DF930E946F0BC0
:101720000E947F0DEC01811521E5920708F042C06F
:10173000811560E5960708F031C1883E910500F5F6
:10174000803E910508F0D7C1883A910570F4853A3A
:10175000910508F0A6C08130910509F4CCC108F4C8
:101760007DC1049708F0C7C179C18F3B910508F48A
:10177000A3C0803C910508F471C1805C9109FDC053
:10178000C11580E3D80780F4C11590E2D90708F0AD
:10179000F2C0C03FD10508F461C1CF3FD10511F0BF
:1017A00008F0A9C1D065A7C1C11520E4D20708F08F
:1017B000F2C0E7C0811569E5960760F5C11588E5B7
:1017C000D80708F037C1C11594E5D90778F4C115D9
:1017D00023E5D20708F013C1C11562E5D60708F06A
:1017E000F8C0DC2FCC27C16FD06A85C1C11585E553
:1017F000D80708F41AC1C11596E5D90708F02EC11B
:101800008C2F0E94FC0D8F71C82FD0E0DC2FCC27CD
:10181000D06271C18D3B2CE5920709F416C1F0F43A
:10182000CB3B8CE5D80709F40AC108F00BC1C11500
:101830002AE5D20708F012C18C2F8F700E94FC0D90
:1018400094E0D695C7959A95E1F7CF70D0E0DC2F5C
:10185000CC27D06A8F70806EC82B4DC1803C9C45D0
:1018600009F4F9C0C13C8CE5D80760F4CE3B9CE597
:10187000D90709F4EDC0CF3BDC4509F0EFC0C0E06B
:10188000D2ED39C1CE0190568115904208F0E6C0E4
:101890008D2F8F710E94FC0DDD27D0628F71D82BA8
:1018A0002AC1853A910509F4DCC0863A910509F010
:1018B000DBC0C2E8D0E41FC1883A910509F4D7C063
:1018C000893A910509F4D6C08A3A910509F4D5C040
:1018D0008B3A910509F4D4C08C3A910509F4D3C030
:1018E0008B3B910509F4D2C08C3B910509F4D1C022
:1018F0008D3A910509F4D0C0803B910509F4CFC021
:101900008E3A910509F4CEC08F3A910509F4CDC005
:10191000813B910509F4CCC0823B910509F4CBC011
:10192000833B910509F4CAC0843B910509F4C9C001
:10193000853B910509F4C8C0863B910509F4C7C0F1
:10194000873B910509F4C6C0883B910509F4C5C0E1
:10195000893B910509F4C4C08D3B910509F4C3C0CE
:101960008E3B910509F4C2C08A3B910509F4C1C0C0
:10197000C0E0D4E4C0C0CE019F700E94840BEC0193
:10198000BAC0CE019927D3FF03C0EC01D86CB3C015
:10199000EC01D06CB0C0DF70D06AADC0837021E0C4
:1019A00030E002C0220F331F8A95E2F73C68CE0177
:1019B00074E0969587957A95E1F78370382BCF7010
:1019C000C695C69580E2C89FE0011124C22BD32B97
:1019D00092C04C2F4695469590E2499FA001112454
:1019E000C370DD2721E030E0C90102C0880F991FD4
:1019F000CA95E2F7EC01C42BD52BDC687CC04C2FD8
:101A00004695469580E2489FA0011124C370DD27CA
:101A100021E030E0C90102C0880F991FCA95E2F7A2
:101A2000EC01C42BD52BDA6866C0DC2FCC27C46F41
:101A3000D06A61C0DC2FCC27C06FD06A5CC0C0E028
:101A4000D4ED59C0C0E0D5ED56C0C0E0D1ED53C0D3
:101A5000C0E0D0ED50C0C0E0D3ED4DC0C0E0D0E05C
:101A60004AC0C1E8D0E447C0C3E8D0E444C0C2EEF5
:101A7000D4E441C0C9EED4E43EC0CAEED4E43BC0D5
:101A8000C5EBD4E438C0C6EBD4E435C0C3EBD4E432
:101A900032C0C4EBD4E42FC0C7EBD4E42CC0CCECF0
:101AA000D4E429C0CDECD4E426C0C3E8D5E423C0F7
:101AB000CAE8D5E420C0C2E9D5E41DC0C4E9D5E434
:101AC0001AC0C1E2D6E417C0C3E2D6E414C0C4E22F
:101AD000D6E411C0C5E2D6E40EC0C6E2D6E40BC01F
:101AE000C7E2D6E408C0CFE6D4E405C0C0E7D4E43A
:101AF00002C0CAE2D6E4CE01DF91CF9108958238C8
:101B0000910549F1B0F48133910509F458C048F4C6
:101B10008932910509F44EC08A32910509F454C006
:101B200008958533910509F440C08933910599F0F2
:101B30000895833E910529F138F4803E910591F096
:101B4000823E9105A1F00895863E9105F9F0873E09
:101B5000910531F1089520919A0220FD3AC021FDAE
:101B600038C0089580919A0280FD35C032C08091BE
:101B70009A0282FF32C080919A0284FD30C083EEC7
:101B800039C080919A0282FD28C0F5CF80919A02D7
:101B900083FF27C080919A0284FD21C087EE2AC06E
:101BA00080919A0283FD1DC0F5CF80919A0285FD38
:101BB0001AC01BC080919A0285FD17C014C0809185
:101BC0009A0286FD14C015C080919A0286FD11C04C
:101BD0000EC080EE0FC089E30DC082EE0BC080E026
:101BE00009C086EE07C089E205C085E303C08AE22A
:101BF00001C081E390E0089590919A0292FF0DC098
:101C0000282F2871283019F4877F846006C0282F78
:101C10002471243011F48B7F886093FF0DC0282F2E
:101C20002871283119F4877E846106C0282F247119
:101C3000243111F48B7E886194FD877E0895E82F0E
:101C4000F0E0EE0FFF1FE75AFE4F8081918108956B
:101C50000895ADE2B1E041E050E026E02A0F8D9119
:101C6000E82FE295EF70F0E031A18F70BA0102C069
:101C7000660F771F8A95E2F7CB01962F90959323F5
:101C800091A392A1892B82A32A13E9CFADE1B1E000
:101C900041E050E020E12A0F8D91E82FE295EF70AE
:101CA000F0E031A18F70BA0102C0660F771F8A95EC
:101CB000E2F7CB01962F9095932391A392A1892BC4
:101CC00082A32A13E9CFE5E6F1E0A9E5B1E011929C
:101CD00011921D921D9271E0E137F707C1F786E07E
:101CE0000E940B0F0C9445095F926F927F928F9226
:101CF0009F92AF92BF92CF92DF92EF92FF920F939B
:101D00001F93CF93DF930DE211E0A5E6B1E0612CC4
:101D1000EE24E394F12C5D018D909C901197119627
:101D20001C921E92E80189918E01E82FE295EF70D6
:101D3000F0E091A18F70A70101C0440F8A95EAF7E6
:101D4000892F842B81A382A1542E5094852182A3B4
:101D5000D0EADA95F1F78DE1C82E81E0D82E80E047
:101D600090E0E60179906E01272D22952F7030E0EA
:101D7000E90168A12D913C91119770E0D72DDF709A
:101D800002C075956795DA95E2F760FD08C0B70166
:101D9000082E02C0660F771F0A94E2F702C060E0C7
:101DA00070E0262B372B11963C932E9301968031B1
:101DB0009105B9F681A1D52DD823D1A382A1482BB5
:101DC00042A3129681E0F5012081318182169306AB
:101DD00009F480E0682AF1E0A137BF0709F09BCF42
:101DE000262D46E069E571E085E691E00E940C0F42
:101DF0000E94C408862DDF91CF911F910F91FF9013
:101E0000EF90DF90CF90BF90AF909F908F907F909A
:101E10006F905F9008950895FF920F931F93CF9353
:101E2000DF93F82E092F162FD72FC42F222349F026
:101E300081E0809373010E948B23909372018093C1
:101E40007101809173018823D9F080917101909183
:101E500072010E949723069798F0EF2DF02FA12F83
:101E6000BD2F80E090E04C2F50E08417950734F4AC
:101E7000219131912D933D930196F7CF10927301EB
:101E8000DF91CF911F910F91FF900895CF92DF9234
:101E9000EF92FF920F931F93CF93DF937B01282F35
:101EA000382FE82FF0E0F11006C0EF59F14F6491A0
:101EB000762F862F7BC00F2D10E046E0649FC00177
:101EC0001124CFEFD0E0BE010E94852BAB016BEA5D
:101ED0006403C001659F900D11248E0D911D8E0D20
:101EE000911D982F990F890FBE01601B710B6E9F7A
:101EF000D0016F9FB00D7E9FB00D11249B2F8F9D41
:101F0000B0011124672F77277E01E61AF70AEE9EAB
:101F1000B001EF9E700DFE9E700D11246E01C81A67
:101F2000D108C09E7001C19EF00CD09EF00C11240F
:101F30000F2D1127C01BD10BCE9F8001CF9F100DFD
:101F4000DE9F100D1124812F4230510591F04CF489
:101F500041155105E1F041305105B9F4822F272F89
:101F600016C04430510569F044F04630510579F00F
:101F70000CC0822F2B2F912F0AC02B2F932F872F2E
:101F800006C08B2F922F212F02C08B2F972FE22F6D
:101F9000F0E0EF59F14F7491E82FF0E0EF59F14F75
:101FA0006491E92FF0E0EF59F14F8491DF91CF91E7
:101FB0001F910F91FF90EF90DF90CF9008950895BB
:101FC000CF93DF93762FE901682F842F0E94460F6D
:101FD000798368838A83DF91CF910895453608F02D
:101FE00044E60C94E00F80916102282F269530E0A2
:101FF0002115310519F48170826005C02532310543
:1020000024F0817088648093610280916402853637
:1020100018F084E680936402089588E090E00C94C0
:10202000042CCF93DF9300D000D0CDB7DEB7AB0147
:10203000BC0149835A836B837C830E94F30F4981DF
:102040005A816B817C8188E090E00F900F900F9017
:102050000F90DF91CF910C94222CE1E6F2E083E027
:10206000808311828FEF828384E683831482608170
:102070007181828193810C9411108091610280FFA3
:1020800002C08695089580E00895809165028330AE
:1020900018F48F5F80936502609161027091620213
:1020A00080916302909164020C94111080916502FA
:1020B000882319F0815080936502609161027091CC
:1020C000620280916302909164020C9411106091FD
:1020D000040170E08091610280FF0AC08091780164
:1020E00023E0829FC00111248A599D4F0C945D15F5
:1020F0008091770190910301891780F7E82FF0E034
:102100009F01220F331FE20FF31FEA59FD4F118287
:10211000108212828F5FF0CF9091610290FF16C003
:102120009091770120910301921770F4E92FF0E06C
:10213000DF01AA0FBB1FEA0FFB1FEA59FD4F818386
:10214000608342839F5FF0CF0C9467100895CF9314
:10215000DF9300D01F92CDB7DEB79091610290FF60
:102160000AC09E012F5F3F4F0E94EE0F4B81698195
:102170008A810E948C100F900F900F90DF91CF9169
:102180000895CF93DF93EC01EC81F0E0E45AF24F35
:102190004491E1E6F2E0628181810E94A7108C8186
:1021A0008F5F8C83DF91CF910895CF93DF93EC0104
:1021B000E1E6F2E0438162818C810E94A7108C816C
:1021C0008F5F8C83DF91CF9108950F931F93CF93EF
:1021D000DF9300D01F92CDB7DEB78C0180917401E0
:1021E00081110AC09E012F5F3F4F44E66FEF0E94AE
:1021F000EE0F8A8180937401F8018481813051F05F
:1022000028F0823061F4409174010AC08091740119
:1022100040E007C06091740140E080E003C040E00E
:1022200080E060E00E948C10F801248130E0C90158
:10223000019663E070E00E94992B84830F900F90C9
:102240000F90DF91CF911F910F910895AF92BF92A0
:10225000CF92DF92EF92FF920F931F93CF93DF9372
:1022600000D01F92CDB7DEB7182FF62E042FE22E26
:102270009091610290FF6EC0E92FE695AE2FB0E01D
:10228000AD5CBE4F8C91809380019E7F923061F453
:102290009E012F5F3F4F812F0E94EE0F4B8169817E
:1022A0008A810E948C1044C0823019F4009164022B
:1022B0003FC0863019F4109162023AC08930D9F3D8
:1022C0008931B1F5E9518E2F8170D82EE695F0E075
:1022D000E45AF14FA590B490C12CBB246091020147
:1022E000C61620F5EC2DF0E0EA9DC001EB9D900DA7
:1022F000FA9D900D112470E00E94852B812FD11042
:1023000002C0860F01C0861B90917701E90FF11D75
:102310009F01220F331FE20FF31F9F012A593D4FE8
:10232000402F6F2D0E94EE0FC394D8CF0E946710EC
:1023300010936202F092630200936402EE2051F067
:1023400060916102709162028091630290916402D7
:102350000E9411100F900F900F90DF91CF911F915D
:102360000F91FF90EF90DF90CF90BF90AF900895C6
:10237000E1E6F2E09181282F4381628188E0890FB4
:102380000C94261181E00C94B811E1E6F2E0918101
:10239000282F4381628188EF890F0C94261181E0F8
:1023A0000C94C511E1E6F2E0628128E0620F08F4C6
:1023B0006FEF282F438181810C94261181E00C94CA
:1023C000D211E1E6F2E0628128E0621B08F460E0ED
:1023D000282F438181810C94261181E00C94E11116
:1023E000E1E6F2E0438128E0420F08F44FEF282FA6
:1023F000628181810C94261181E00C94F011E1E658
:10240000F2E0438128E0421B08F440E0282F62817B
:1024100081810C94261181E00C94FF1120E00C9432
:102420002611FF920F931F93CF93DF93EC01F12CB2
:102430000FEF10E060910201F616E8F420917701A9
:1024400030E02F0D311DC901880F991F280F391F4A
:102450002A593D4F70E0C8010E94992B962F8C811C
:102460004091640260916302F99E800D11240E94E4
:10247000EE0FF394DFCF0E9467109A818C8190FF5A
:1024800002C08F5F01C081508C83DF91CF911F917B
:102490000F91FF900895BF92CF92DF92EF92FF923B
:1024A0000F931F93CF93DF93FC01828180FF02C0C3
:1024B0000FEF01C001E010E0809102011817E0F574
:1024C000C12ED12C80917701E601C80FD11DCE011C
:1024D000880F991FC80FD91FCA59DD4F198218825A
:1024E0001A8234E0E32EF12CB12C809176018B0D11
:1024F00087FF03C090910201890F082E000C990BF1
:10250000C816D90691F4809164028E9DA0018F9D1A
:10251000500D112455954795559547959E0160910D
:102520006302809162020E94EE0FB00EF1E0EF1A9A
:10253000F108D9F61F5FC0CF0E9467108091760125
:10254000013031F4811102C080910201815007C035
:1025500090E001966091020170E00E94992B8093B7
:102560007601DF91CF911F910F91FF90EF90DF9057
:10257000CF90BF900895CF93809177019091030100
:10258000891770F4E82FF0E09F01220F331FE20F4C
:10259000F31FEA59FD4F1182108212828F5FF0CF34
:1025A000C0E060910201C617B8F5EC2FF0E070E0D2
:1025B000CF010E94992B40917701480F80917501BE
:1025C000082E000C990B50E0E817F907C4F0209191
:1025D0000101022E000C330B2E173F0784F09A01E5
:1025E000220F331F240F351F2A593D4F409164029B
:1025F00060916302809162020E94EE0F0BC0FA01AB
:10260000EE0FFF1F4E0F5F1FFA01EA59FD4F1182B7
:1026100010821282CF5FC5CF0E9467102091000107
:1026200080917501820F8093750190910101920F45
:102630009093010119165CF4082E000C990B40913F
:10264000020150E041505109841795071CF0219573
:1026500020930001CF9108950F931F93CF93DF93A1
:102660008C01FC0184819581019681709927958365
:102670008483C0E0D5E580910201C817F8F4209169
:10268000770130E02C0F311DC901880F991F280FE9
:10269000391F2A593D4F4C2F4695F8018481958169
:1026A000840F911D817040916402609163028D9F3F
:1026B000802D11240E94EE0FCF5FDDCFDF91CF91EF
:1026C0001F910F910C9467100F931F93CF93DF937B
:1026D000EC0100E010E080910201282F30E00217A9
:1026E000130724F5909177019801290F311DA90155
:1026F000440F551F240F351F2A593D4F869590E0F2
:102700004C81081719071CF4442331F002C0411111
:1027100003C04091640201C040E060916302809177
:1027200062020E94EE0F0F5F1F4FD5CF0E9467100D
:102730002C8130E02F5F3F4F217033272C83DF91B6
:10274000CF911F910F910895E1E6F2E080818E7F95
:10275000808360817181828193810E941110109227
:1027600081012FEF80E792E0215080409040E1F717
:1027700000C000000C946710E1E6F2E080818E7FDB
:102780008083109281012FEF80E792E021508040FA
:102790009040E1F700C000000C9467106091610266
:1027A000669570E04BE050E085E091E00E94EF2BF1
:1027B000892B19F481E0809381010E948B239093EF
:1027C0007A018093790108959091610290FF35C05C
:1027D0009170811102C0926006C0853210F0986439
:1027E00002C0880F982B90936102662351F060918C
:1027F00061027091620280916302909164020E9472
:10280000111060916102669570E04BE050E085E048
:1028100091E00E94EF2B892B19F01092810102C0E8
:102820000E94CE1381E080937C014091640260910C
:102830006302809162020C940E120895682F9091A9
:102840006102969581E0890F853208F081E00C9451
:10285000E41381E00C941E14682F90916102969508
:102860008FEF890F09F484E20C94E41381E00C9457
:102870002C1461E00C94E413E1E6F2E080818160C5
:10288000808386950C9439148091610280FD0C94AC
:10289000A4130C943C1460E00C94E41380917F0129
:1028A000811133C080913A02816080933A020E9484
:1028B000D321811104C00E9456220E942D100E9433
:1028C0000D10609361027093620280936302909393
:1028D00064026E7F61F40E942D100E940D106093BF
:1028E00061027093620280936302909364020E947B
:1028F000F30F109281018091610280FF03C08695E1
:102900000E944B1481E080937F010895E1E6F2E09C
:1029100080818160808386950C944B141092810194
:1029200008950F931F93CF93DF93809181018823A4
:1029300009F48CC080918001E0916102E695E81B6A
:10294000E0937B01823049F4F0E0E85AF24FE491E1
:10295000CE2FD0E001EC10E149C0863049F4F0E020
:10296000EB5AF24FE491CE2FD0E005ED10E13EC0DE
:10297000893051F4E695F0E0EE5AF24FE491CE2F13
:10298000D0E001E112E132C08F3051F4E695F0E081
:10299000E15BF24FE491CE2FD0E00BE412E126C0D0
:1029A000853149F4F0E0E45BF24FE491CE2FD0E0C2
:1029B0000BEB12E11BC0883181F0833239F4EAE479
:1029C000FDE0C591D49105EE10E110C0843251F4C0
:1029D000C4EFD1E004E613E109C0C8EED3E00CE295
:1029E00013E104C0C0EDD7E00FED1FE080917C0142
:1029F000882389F010927C010E948B239E012095F0
:102A00003095820F931F90937A01809379011092F1
:102A10007E0110927D018091790190917A010E944E
:102A200097238C179D0790F0E0917901F0917A013E
:102A3000CE0FDF1FD0937A01C093790189E791E02F
:102A4000F801DF91CF911F910F910994DF91CF9100
:102A50001F910F9108952EB1342F309523233EB14D
:102A6000432B3FB7F894FC01680F791FE617F7076F
:102A700089F0819198E04EB9000000C087FF2EB91F
:102A8000880F000000C000C000C02EB900C09A9599
:102A900091F7ECCF3FBF08952DB1242B2DB99B01A9
:102AA000220F331F620F731F0E942B1587EC90E0DB
:102AB0000197F1F700C00000089544E00C944C1514
:102AC0000F931F93CF93DF93C62FD42F022FFC01B8
:102AD00082818823C9F0609384010E948B239093A4
:102AE00083018093820180E28C0F883008F050C00F
:102AF000C77081E001C0880FCA95EAF7DF91CF91D6
:102B00001F910F910C94001910918401161330C07D
:102B100080918201909183010E949723883C9105C6
:102B200038F5C0E2CD0F1D17B9F080E2810F883073
:102B300040F4177081E001C0880F1A95EAF70E94EF
:102B40000719C83048F481E09D2F977001C0880FA5
:102B50009A95EAF70E940019802F0E94ED18C8305C
:102B6000B8F4D77081E001C0880FDA95EAF70AC09F
:102B700080E28C0F883060F4C77081E001C0880F5C
:102B8000CA95EAF7DF91CF911F910F910C94071925
:102B9000DF91CF911F910F9108959C01CB01203FB0
:102BA0004CE53407F9F078F4283DFCE53F07B9F02F
:102BB000293D4CE5340711F1273D3C4531F526E22E
:102BC00041EE61EE1EC0223FFCE53F0799F070F038
:102BD000233F3C45D1F427E245EE66EE12C027E2E2
:102BE00045EE0EC026E241EE60EE0BC027E245EE58
:102BF00064EE07C026E241EE62EE03C028E241E047
:102C000065EE0E94601580E00895FC0182818823B2
:102C100019F010928401089581E0089590938A013B
:102C2000809389010895E0918901F0918A0130979C
:102C300021F00190F081E02D099480E00895E09169
:102C40008901F0918A01309799F020911C0122238B
:102C500059F020919A0227FF07C0DC012C911196B0
:102C60002C93119725E02C930280F381E02D099499
:102C7000089520918701309188018217930771F0A0
:102C80009093880180938701E0918901F0918A01F6
:102C9000309721F00680F781E02D09940895209166
:102CA0008501309186018217930771F09093860118
:102CB00080938501E0918901F0918A01309721F09C
:102CC0000084F185E02D0994089585B7806885BF5B
:102CD00085B7806885BF0895089508950C946D1692
:102CE00008950C9470160E9465160E946C160C9440
:102CF0006E1681E008950E9482230E94290E0E9490
:102D00000B240E9424240E944E140C9471164F929E
:102D10005F927F928F929F92AF92BF92CF92DF92FB
:102D2000EF92FF920F931F93CF93DF93CDB7DEB750
:102D30002A970FB6F894DEBF0FBECDBF0E94740E67
:102D40000E947916811111C08FEF89838A831B82BB
:102D50000E948B238160782F9D838C8349815A81C7
:102D60006B818D810E94431757C09CE8C92E91E06A
:102D7000D92E00E010E0AA24A394B12C702E802F4D
:102D80000E941F0E4C01F601419051906F014826A0
:102D900059264114510431F40F5F1F4F06301105BD
:102DA00069F7D2CF80913A0281FD0E94280E20E07F
:102DB00030E07501022E02C0EE0CFF1C0A94E2F70F
:102DC000C70184219521892B09F12E837F828E20D2
:102DD0009F2091E0892809F490E098870E948B2336
:102DE0008160782F9A8789874E815F8168858A857F
:102DF0000E944317000F111FF801E457FE4F808116
:102E00009181E826F926F182E08206C02F5F3F4FCC
:102E10002031310571F6C0CF10918B010E9413163D
:102E20001817D9F00E94131680938B012A960FB6BB
:102E3000F894DEBF0FBECDBFDF91CF911F910F91F0
:102E4000FF90EF90DF90CF90BF90AF909F908F90CA
:102E50007F905F904F900C9451092A960FB6F8948A
:102E6000DEBF0FBECDBFDF91CF911F910F91FF90BD
:102E7000EF90DF90CF90BF90AF909F908F907F901A
:102E80005F904F900895CF93DF93CDB7DEB72B9728
:102E90000FB6F894DEBF0FBECDBF4F83588769874A
:102EA0007A878B87DE01119686E0FD0111928A9563
:102EB000E9F785E0FE01379601900D928A95E1F7DA
:102EC00049815A816B817C818D819E810E94181E6F
:102ED0002B960FB6F894DEBF0FBECDBFDF91CF911A
:102EE0000895FC01808191810E94E4200895882347
:102EF00009F413C1682F8238C1F40E94131681FDB2
:102F00000CC169E380911001909111010E94BD22D2
:102F10000E946F212FEF81EE94E02150804090407D
:102F2000E1F700C0000069E319C08338F9F40E949A
:102F3000131680FDF2C063E580911001909111019C
:102F40000E94BD220E946F212FEF81EE94E021505C
:102F500080409040E1F700C0000063E580911001DF
:102F6000909111010E94C8220C946F218438C1F401
:102F70000E94131682FDD1C067E4809110019091E8
:102F800011010E94BD220E946F212FEF81EE94E07B
:102F9000215080409040E1F700C0000067E4DECFA0
:102FA0008CEF860F813A38F48091100190911101D5
:102FB0000E94BD22D9CF80E2860F883048F4677026
:102FC00081E001C0880F6A95EAF70E942621CCCFE4
:102FD0008BE5860F833070F4653A29F0663A31F05C
:102FE00083E890E005C081E890E002C082E890E0CC
:102FF0000C94391688E5860F873108F08EC0683A40
:1030000009F445C0693A09F445C06A3A09F445C073
:103010006B3A09F445C06C3A09F445C06B3B09F4BE
:1030200045C06C3B09F445C06D3A09F445C0603BAE
:1030300009F445C06E3A09F445C06F3A09F445C039
:10304000613B09F445C0623B09F445C0633B09F4A8
:1030500045C0643B09F445C0653B09F445C0663B87
:1030600009F445C0673B09F445C0683B09F445C015
:10307000693B09F445C06D3B09F445C06E3B09F45A
:1030800045C06A3B09F445C080E090E044C082EE50
:1030900090E041C089EE90E03EC08AEE90E03BC0F7
:1030A00085EB90E038C086EB90E035C083EB90E094
:1030B00032C084EB90E02FC087EB90E02CC08CEC0A
:1030C00090E029C08DEC90E026C083E891E023C019
:1030D0008AE891E020C082E991E01DC084E991E096
:1030E0001AC081E292E017C083E292E014C084E249
:1030F00092E011C085E292E00EC086E292E00BC041
:1031000087E292E008C08FE690E005C080E790E09B
:1031100002C08AE292E00C944F160895882309F4C5
:103120005BC0682F823879F40E94131681FF54C067
:1031300069E380911001909111010E94BD220E94CB
:103140006F2169E310C08338B1F40E94131680FF29
:1031500043C063E580911001909111010E94BD224E
:103160000E946F2163E580911001909111010E94EE
:10317000C8220C946F21843879F40E94131682FFC0
:103180002BC067E480911001909111010E94BD2233
:103190000E946F2167E4E7CF8CEF860F813A18F326
:1031A00080E2860F883048F4677081E001C0880FA4
:1031B0006A95EAF70E942C21DCCF8BE5860F8330DD
:1031C00020F480E090E00C943916685A673120F4BE
:1031D00080E090E00C944F160895CF93C82F0E9482
:1031E0007717C93349F42FEF83EC99E021508040E1
:1031F0009040E1F700C000008C2FCF910C948E1806
:10320000882321F00E9426210C946F2108958823A1
:1032100021F00E942C210C946F2108954F925F920F
:103220006F927F92BF92CF92DF92EF92FF920F93B5
:103230001F93CF93DF937C01062FC72FFC011581CD
:1032400012951F70D281D1110E9443210E941C212E
:10325000882379F0DD2369F080E2800F883048F020
:1032600082E00E94BA210E941C2191E0B82EB9266A
:1032700001C0B12CCC2EC2948FE0C822D12CF60113
:10328000E859FF4F0C94CF2B8C2F807FCF70882371
:1032900011F0C295C07FDD2399F0CC2309F462C1FF
:1032A00080E2800F883010F0011104C08C2F0E9442
:1032B000262103C08C2F0E9436210E946F2152C10B
:1032C000802F0E948E18CC2309F495C180E2800FD4
:1032D000883010F0011104C08C2F0E942C2103C0F3
:1032E0008C2F0E943C210E946F2185C18C2F807FF2
:1032F000CF70803211F0C295C07F002319F00130E9
:10330000C9F022C0DD2371F0112341F0113031F4F6
:103310000E9456218C2B0E945C216DC10E94562177
:103320008C2BD8C0112319F0113009F464C10E940C
:10333000652118C0DD2321F0163008F05CC10EC0F5
:10334000153008F058C10EC0DD2351F0112331F0C3
:10335000F701858180FF06C18F7085838C2FBAC0ED
:10336000111111C18C2FBCC08C2F837009F04BC080
:10337000D1114DC1202F229526952770220F220FA3
:10338000602F6F70862F90E0A0E0B0E02C013D012F
:10339000022E04C0440C551C661C771C0A94D2F7FC
:1033A00004FF10C08FE090E0A0E0B0E004C0880F00
:1033B000991FAA1FBB1F2A95D2F780959095A095BB
:1033C000B09503C080E090E0DC01C695C695C3705F
:1033D000D0E0BC01CD016429752986299729C23026
:1033E000D10559F0C330D10559F0219719F00E9449
:1033F0005D1F0DC10E944B1F0AC10E946F1F07C1B4
:103400000E94491F04C1DD2319F08C2F817001C077
:103410008695882309F4FBC0202F229526952770D6
:10342000220F220F602F6F70862F90E0A0E0B0E097
:103430002C013D01022E04C0440C551C661C771C57
:103440000A94D2F704FF10C08FE090E0A0E0B0E053
:1034500004C0880F991FAA1FBB1F2A95D2F7809519
:103460009095A095B09503C080E090E0DC01C695F2
:10347000C695C370D0E0BC01CD01642975298629A9
:103480009729C230D10559F0C330D10559F02197A1
:1034900019F00E942320BBC00E941120B8C00E94D6
:1034A0003520B5C00E94841FB2C0802F90E0FC017F
:1034B000E05EF109E531F10508F050C0E858FF4F32
:1034C0000C94CF2B0F708C2F8F71DD2331F00E9465
:1034D000AA1F802F0E9400198EC00E94CB1F802F30
:1034E0000E94071988C0DD2341F0153008F083C021
:1034F0008C2F8F710E94F01F7EC0163008F07BC0A9
:10350000F7CFDD2339F08C2F8F710E94AA1F73C073
:10351000DD23C9F38C2F8F710E94CB1F6CC0DD237C
:1035200029F08C2F8F710E94951F65C00E94901FFB
:1035300062C0DD2349F0CF718C2F0E94AA1F63E087
:103540008C2F0E94A52157C081E00E94BA21123021
:1035500008F451C082E00E94BA214DC0DD2331F051
:10356000112389F2802F0E94771745C0112391F211
:10357000093349F4FFEF23EC89E0F150204080400B
:10358000E1F700C00000802F0E948E1834C04C2F3D
:103590004F70602FC7010E947A080E94BC1E3BC07A
:1035A000D11139C0CF70D0E0C230D10599F03CF4D0
:1035B000209769F02197F9F40E945E242CC0C43052
:1035C000D10571F054F02597B1F480E00AC00E9453
:1035D000412421C00E949D241EC00E94A4241BC01F
:1035E00085E00E94C72417C04C2F4F70602FC70181
:1035F0000E946E0B10C098E0C916D10441F05CF037
:10360000FAE0CF1AD10822E0C216D10420F40E94B9
:1036100013160E945109BB20F1F00E94182180FD71
:103620001AC0F70112820E9412210E94AA1FC7012C
:103630000E94391B0E941221DF91CF911F910F919F
:10364000FF90EF90DF90CF90BF907F906F905F9052
:103650004F900C94CB1FDF91CF911F910F91FF9052
:10366000EF90DF90CF90BF907F906F905F904F90E2
:1036700008950F931F93CF93DF93EC018881998175
:103680002B813C81232BB9F09F3F11F48F3F99F0A0
:10369000CE010E946309882371F0688179818A8153
:1036A0000E94EF208C010E9447200E94481FB80111
:1036B000CE010E940E19DF91CF911F910F910895B5
:1036C0000E9443210E9453210C946F21809110018C
:1036D000909111010E94D3220C94601B0E9433210F
:1036E0000C94661BE92FE295EF70F0E03297EE3014
:1036F000F105B0F4E357FF4F0C94CF2B803F91F0CE
:1037000018F4803E68F40EC0843F51F40BC0803E34
:1037100048F0813F29F406C093FB882780F908957B
:1037200080E0089581E008950E94E4200E94721BC9
:103730000895CF93DF9300D000D01F92CDB7DEB7AE
:103740000F900F900F900F900F90DF91CF910895F1
:10375000CF93DF9300D000D000D0CDB7DEB7269650
:103760000FB6F894DEBF0FBECDBFDF91CF910895A5
:103770001F93CF93DF93C091990116E080919A0136
:10378000C81799F0D0E01C9FF0011D9FF00D112487
:10379000E556FE4F4081518162817381848195811C
:1037A0000E94A81B2196C770E9CFDF91CF911F918E
:1037B00008954091CB015091CC016091CD01709161
:1037C000CE018091CF019091D0010C94A81B8091E3
:1037D000D00182958F7009F054C08091CD0188236B
:1037E00009F44FC080919901A0919A016091CB0199
:1037F0007091CC014091CE015091CF01B6E08A1773
:1038000009F43FC090E041155105C1F17F3F11F42B
:103810006F3FA1F1B89FF001B99FF00D1124E5565B
:10382000FE4F218172132AC02081621327C022819A
:10383000211124C0238134812417350710F421502D
:103840003109241B350B283C3105C0F42091D001EF
:103850002F7020612093D00126E0289FF001299F3E
:10386000F00D1124E056FE4F80818F7080618083BF
:103870008BEC91E00E94391B0C94B81B0196877069
:10388000BECF0895CF92DF92EF92FF920F931F93D6
:10389000CF93DF93CDB7DEB762970FB6F894DEBF54
:1038A0000FBECDBF8C0185E0F801DE011D960190B1
:1038B0000D928A95E1F7D8014C9111965C91119780
:1038C00012966C9112971396CD90DC9014973091CC
:1038D000CB017091CC018091CE019091CF010097E6
:1038E00009F46BC17F3F19F43F3F09F466C1E090D2
:1038F000CD01EE2009F4C0C02091D001C816D90630
:1039000028F0F601E81BF90BCF0104C080959095D3
:103910008C0D9D1DFF24F394883C910578F0F12CCB
:10392000207F09F0C6C07C2DD98AC88A89890E9467
:10393000991B8BEC91E00E94391BB1C0822F807FD4
:1039400009F046C0751314C0341312C0611110C0C1
:103950002F7020612093D0010E94D91B8BEC91E045
:103960000E94391B8091D001D80115968C932EC0EE
:10397000CD2819F15F3F11F44F3FF9F0F62E611198
:103980001CC08091990120919A0136E0821709F4B8
:103990005AC090E0389FF001399FF00D1124E55690
:1039A000FE4F7181571306C07081471303C07281A7
:1039B000711103C001968770E9CFF62E662309F4D2
:1039C00027C18091D00181608093D001F12C20C16A
:1039D000751308C0341306C0611104C08091D00172
:1039E000D801C3C04D875E878D859E856A8B0E94F6
:1039F000941B6A898823E1F16623D1F12091D001DB
:103A0000822F82958F7090E0029774F08091CB01A5
:103A10009091CC0198878F831986DB86CA862C8784
:103A2000CE0107960E94391B86E0F801ABECB1E0AD
:103A300001900D928A95E1F70E94E71B0E94D91B25
:103A4000FF24F394E5C04D875E878D859E850E9497
:103A5000E420292F22952F7030E0223031050CF020
:103A6000CBC09F7009F0C5C0805E883008F4D0C01C
:103A7000C8010E94391BE4CFC816D90608F453C008
:103A8000F601E81BF90BCF01883C910508F450C002
:103A9000F12C7C2DD98AC88A89890E94991BEBEC6C
:103AA000F1E086E0DF011D928A95E9F70E94D91BBB
:103AB000AFC0751314C0341312C0611110C08091CF
:103AC000D001F8018583C8010E94391B86E0EBEC28
:103AD000F1E0DF011D928A95E9F7FE2C99C04D8730
:103AE0005E878D859E856A8B0E94941B6A898823D8
:103AF00009F4BECF662309F4BBCF2091D001822FF9
:103B000082958F7090E002970CF48ECF8091CB015C
:103B10009091CC019A8389831B82DD82CC822E8393
:103B2000CE0101967FCF809590958C0D9D1DACCFD9
:103B3000F62E662309F49CCF75132EC034132CC0C7
:103B40002091D00120FD1FC0822F82958F70D9F067
:103B5000D80115962C9315978F3049F08F5F982FC9
:103B60009295907F822F8F70892B15968C93C80128
:103B70000E94391B86E0F801ABECB1E001900D9298
:103B80008A95E1F793CF86E0F801ABECB1E00190C4
:103B90000D928A95E1F73CC04D875E878D859E85A5
:103BA0000E94941B811140CF8091D001816080934D
:103BB000D001C8010E94391B2BC0662309F458CFDD
:103BC0004D875E878D859E850E94941BF82E8823E5
:103BD00009F44ECF86E0F801ABECB1E001900D9214
:103BE0008A95E1F78BEC91E00E9471170E94E71B28
:103BF0005DCF811139CF0CC0243031050CF038CFA6
:103C00009F7009F431CFF8019581907F09F02CCF96
:103C10008F2D62960FB6F894DEBF0FBECDBFDF9139
:103C2000CF911F910F91FF90EF90DF90CF9008956B
:103C30001F93CF93DF93CDB7DEB72C970FB6F894D1
:103C4000DEBF0FBECDBF4F83588769877A878B87CA
:103C50009C87CE0107960E94421C882369F08F81C1
:103C600098852A853B85232BF1F19F3F09F063C09E
:103C70008F3F09F060C037C086E0FE013796DE0155
:103C8000119601900D928A95E1F76F817885EA850A
:103C9000FB85309741F17F3F11F46F3F21F1209177
:103CA0009A0130E0C90101968770992740919901E6
:103CB00050E08417950709F447C069837A83FD8330
:103CC000EC8396E0929FD001939FB00D1124A556EE
:103CD000BE4FFE01319601900D929A95E1F78093C7
:103CE0009A010E94B81B16E08091990190919A0167
:103CF0008917C1F1189FC001112485569E4F0E945B
:103D0000421C882379F1E09199011E9FF001112452
:103D1000E556FE4F40815181628173818481958196
:103D20000E94A81B8091990190E0019687709927C5
:103D300080939901D9CF4F81588569857A858B8584
:103D40009C850E94A81BCFCF0E946E1B10929A01E7
:103D500010929901EBECF1E086E0DF011D928A956B
:103D6000E9F7C1CF2C960FB6F894DEBF0FBECDBFDA
:103D7000DF91CF911F910895EF92FF920F931F93C0
:103D8000CF93DF938C01892B09F46CC0F12CEE24C6
:103D9000E394E8012196F8018491843740F484305B
:103DA00008F051C0813081F0823019F15BC0853755
:103DB00009F444C0A8F19CE7980F903708F052C06E
:103DC0008F770E948E1841C00E5F1F4FFE01C49175
:103DD00080E28C0F883048F4C7708E2D01C0880FA8
:103DE000CA95EAF70E94462114C08C2F0E947717CB
:103DF0002DC00E5F1F4FFE01C49180E28C0F8830F2
:103E000058F4C7708E2D01C0880FCA95EAF70E943A
:103E10004C210E946F211AC08C2F0E948E1816C050
:103E20000E5F1F4FFE01C491CC2381F08FE99FE00C
:103E30000197F1F700C00000C150F6CF0E5F1F4F91
:103E4000FE01F49003C00E9477178E018F2D882306
:103E500009F49FCFEFE9FFE03197F1F700C00000D0
:103E60008150F5CFDF91CF911F910F91FF90EF908F
:103E7000089508950C94391F0E943A1F609311020F
:103E80007093120280931302909314020C94601B9F
:103E900008950C943C1F0F931F93009111021091F1
:103EA00012022091130230911402602B712B822B8D
:103EB000932B1F910F910C943C1F0F931F93009114
:103EC000110210911202209113023091140260230A
:103ED0007123822393231F910F910C943C1F0F9306
:103EE0001F93009111021091120220911302309140
:103EF000140260277127822793271F910F910C943A
:103F00003C1F08950C94811F0E94821F60930D0234
:103F100070930E0280930F02909310020C94601B1A
:103F200060E070E0CB010C94841F0F931F9341E07D
:103F300050E060E070E08A019B0104C0000F111F97
:103F4000221F331F8A95D2F7C901B8011F910F9123
:103F50000C94841F0F931F9341E050E060E070E0E9
:103F600004C0440F551F661F771F8A95D2F78091B2
:103F70000D0290910E02A0910F02B09110028A01E1
:103F80009B01082B192B2A2B3B2BC901B8011F9130
:103F90000F910C94841F0F931F9341E050E060E059
:103FA00070E004C0440F551F661F771F8A95D2F733
:103FB000409550956095709580910D0290910E02FC
:103FC000A0910F02B09110028A019B0108231923CE
:103FD0002A233B23C901B8011F910F910C94841F20
:103FE0000F931F9341E050E060E070E004C0440F85
:103FF000551F661F771F8A95D2F780910D02909109
:104000000E02A0910F02B09110028A019B010827B5
:1040100019272A273B27C901B8011F910F910C943A
:10402000841F0F931F9300910D0210910E02209197
:104030000F0230911002602B712B822B932B1F915A
:104040000F910C94841F0F931F9300910D021091F8
:104050000E0220910F0230911002602371238223FF
:1040600093231F910F910C94841F0F931F93009122
:104070000D0210910E0220910F0230911002602764
:104080007127822793271F910F910C94841F089505
:1040900020E1929F800D1124A82FA695A695A695A4
:1040A000877051E001C0550F8A95EAF785E0A89F17
:1040B000D001112420E030E070E0F901EA0FFB1F8D
:1040C000EF52FE4F4081CB01022E02C0969587959C
:1040D0000A94E2F7817099278195842785238427A4
:1040E00080832F5F3F4F2530310539F7089520E158
:1040F000929F800D1124682F669566956695982F7E
:10410000977085E0689FB001112440E050E080E0A6
:10411000FA01E60FF71FEF52FE4F208130E0092E23
:1041200002C0369527950A94E2F721703327042EB2
:1041300001C0220F0A94EAF7822B4F5F5F4F453090
:10414000510531F70895BF92CF92DF92EF92FF921F
:104150000F931F93CF93DF938C01C0901102D090E7
:104160001202E0901302F090140280910D029091DF
:104170000E02A0910F02B0911002C82AD92AEA2A91
:10418000FB2ACFE1D0E0D701C6010C2E04C0B695C2
:10419000A795979587950A94D2F780FF07C0BC2E04
:1041A000B8018C2F0E948C0B019719F4219758F7B6
:1041B000B12C8B2DDF91CF911F910F91FF90EF903C
:1041C000DF90CF90BF900895CF93DF93EC010E94D2
:1041D000A320BE010E948C0BDF91CF9108951F9305
:1041E000CF93DF93EB0190919801992321F0CB01BC
:1041F0000E94E42013C0882349F0CB010E94A32031
:10420000182F682FCE010E94482004C0CB010E94C5
:104210007720182FBE01812F0E948C0BDF91CF9148
:104220001F9108958091150285958595859508952E
:10423000809115028770089590911502977081E022
:1042400009F480E00895809139020895909139022F
:10425000892B8093390208958095909139028923A2
:10426000809339020895109239020895909138028E
:10427000892B809338020895809590913802892384
:104280008093380208951092380208959091370271
:10429000892B809337020895809590913702892366
:1042A0008093370208951092370208958091160284
:1042B000089508950C94592190911602981721F0B1
:1042C000809316020C945A21089580911602882337
:1042D00029F01092160280E00C945A210895E09182
:1042E0001001F0911101809139028083E091100159
:1042F000F0911101908180913802892B8083E091A7
:104300001001F0911101908180913702892B8083F7
:1043100080911602882381F0E0911001F091110143
:104320009081892B808380911001909111010E94CE
:10433000582281110E9465218091100190911101F4
:104340000C941F1608950C94A22198E0899F900167
:104350001124262B209315020E94AA1F809115027A
:104360008595859585950C94A3211092150280E082
:104370000C94A3212091150280958223809315022D
:10438000982F977079F430E0482F082E000C550BC9
:104390002417350739F08595859585950E94CB1FA3
:1043A0000C94B521089580E090E00E940A2C21E051
:1043B0008D3E9E4F09F020E0822F089582E090E02C
:1043C0000C94FC2B83E090E00C94FC2B84E090E0B8
:1043D0000C94FC2B682F84E090E00C94102C86E069
:1043E00090E00C94FC2B682F86E090E00C94102C4D
:1043F000AB01BC018FE090E00C94222CAB01BC011E
:1044000083E190E00C94222C60E070E0CB010C94EE
:10441000FE2160E070E0CB010E94F8210C940422A0
:104420006DEE7EEF80E090E00E942E2C60E082E056
:1044300090E00E94102C60E083E090E00E94102C3D
:104440001092110210921202109213021092140292
:1044500060E084E090E00E94102C60E085E090E055
:104460000E94102C60E086E090E00E94102C6FEF1C
:1044700087E090E00E94102C40E050E0BA0188E014
:1044800090E00E94222C60E08DE090E00E94102CD1
:1044900040E050E0BA0188E190E00E94222C60E008
:1044A00087E190E00E94102C0C9409220C941022B9
:1044B000FC01329680911C01882331F080919A0290
:1044C00087FF02C09EE101C096E080E0915028F095
:1044D00021912223D9F38F5FF9CF08959C01FC012C
:1044E00032969FEF80E04191461789F09F3F19F483
:1044F000411101C0982F8F5F8630A9F79F3F39F097
:10450000F901E90FF11D97FDFA9562830895089569
:10451000FC01329608962081261301C01082319644
:10452000E817F907C1F70895262F269526952695B1
:104530002E3168F4FC01E20FF11D677021E030E0DC
:1045400001C0220F6A95EAF78281282B2283089501
:10455000262F2695269526952E3170F4FC01E20F24
:10456000F11D677021E030E001C0220F6A95EAF783
:104570002095828128232283089520911C012223E3
:1045800029F020919A0227FD0C9494220C946E221B
:1045900020911C01222329F020919A0227FD0C94DE
:1045A000A8220C94882220911C01FC01329622231F
:1045B00031F080919A0287FF02C08EE101C086E04F
:1045C000DF011D928A95E9F7089508950C94E5227C
:1045D0000E94E6228091A102843009F43CC010922E
:1045E0003B0220E488E190E00FB6F894A895809310
:1045F00060000FBE2093600080E00E94D70880E03A
:104600000E9451090E948E1480913C0281110AC0BF
:1046100081E080933C0280916102817080933D0231
:104620000E94BC130E94E62283B7817F846083BF0F
:1046300083B7816083BF7894889583B78E7F83BF6B
:104640000FB6F894A895809160008861809360000F
:10465000109260000FBE089508950895CF930E94B0
:104660002C230E94740E0E942D23C0E08C2F0E94E8
:104670001F0E892B29F4CF5FC630C1F780E001C03F
:1046800081E0CF91089508950C9443230E946E1BFE
:104690000E9424240E9413160E94510910923C0289
:1046A00080913D0281110E9486140E94CE130C94C9
:1046B00044231F920F920FB60F9211248F939F9352
:1046C000AF93BF9380913B02811113C080919602FA
:1046D00090919702A0919802B09199024196A11DE4
:1046E000B11D8093960290939702A0939802B09385
:1046F0009902BF91AF919F918F910F900FBE0F9034
:104700001F90189582E084BD93E095BD9AEF97BD08
:1047100080936E0008952FB7F8948091960290913F
:104720009702A0919802B09199022FBF0895CF925D
:10473000DF92EF92FF920F931F932FB7F89440915F
:1047400096025091970260919802709199022FBF42
:104750006A017B01EE24FF248C0120E030E0C016CA
:10476000D106E206F30610F4415051099A01281BC4
:10477000390BC9011F910F91FF90EF90DF90CF90FF
:10478000089578941F920F920FB60F9211248F9371
:104790009F93AF93BF938091960290919702A091BF
:1047A0009802B09199020196A11DB11D80939602C5
:1047B00090939702A0939802B0939902BF91AF9102
:1047C0009F918F910F900FBE0F901F90189581E0D1
:1047D0008093E00080E28093D8001092C9008FE1BE
:1047E0009EE40197F1F700C0000087E090EBDC0148
:1047F0008093AA029093AB02A093AC02B093AD0257
:104800009CE088E10FB6F894A895809360000FBEF5
:1048100090936000FFCF0E94D321811102C00E94BB
:1048200056220E94DE2180933A020E94E62190E007
:1048300090939B0280939A020E94E221682F70E07D
:1048400080E090E00C94491F0E94D321811102C0A6
:104850000E9456220E94EF2180939C02282F2695C9
:1048600030E02630310524F081708A6080939C020C
:1048700080919C0280FF02C0869501C080E00C946C
:10488000D70820919C02822F8695482F50E0453012
:10489000510544F48F5F982F990F822F8170892BD7
:1048A00080939C0280919C02816080939C020E9474
:1048B000F32180919C0286950C94D70880919C02EC
:1048C000982F969591F09158990F8170892B80932C
:1048D0009C028E7F91E009F490E080919C0290FB15
:1048E00080F980939C020E94F32180919C0286951E
:1048F0000C94D70880919C0280FD11C08160809348
:104900009C02813019F483E080939C0280919C0288
:104910000E94F32180919C0286950C94D7080895FB
:1049200080919C0280FF08C08E7F80939C020E9431
:10493000F32180E00C94D708089580919C0280FDBB
:104940000C9490240C947A2490919C02892F869543
:104950008F5F8F779170863028F4880F892B809332
:104960009C0202C090939C0280919C028E7F91E0F9
:1049700009F490E080919C0290FB80F980939C0266
:104980000E94F32180919C0286950C94D708863072
:1049900008F085E0880F90919C029170892B80939C
:1049A0009C028E7F91E009F490E080919C0290FB44
:1049B00080F980939C020E94F32180919C0286954D
:1049C0000C94D70880915E02089508950895089583
:1049D000CF93DF93EC010E94BC26823011F084302B
:1049E000D9F580911C01882339F080919A0287FFC4
:1049F00003C060E282E002C068E081E08093E900E9
:104A00008FEF9091E800815095FD06C095ED9A9545
:104A1000F1F700008111F5CF8091E80085FF1CC0FF
:104A200080911C01811105C040E050E068E070E019
:104A300003C070E040E050E0CE010E94D926809192
:104A4000E8008E778093E80080E2FE01AEE3B2E0FA
:104A500001900D928A95E1F7DF91CF9108958091B1
:104A6000A002811109C00E946E280E94CB2880916B
:104A7000E20084608093E20008951092A0020895FD
:104A8000089508950C94462342E061EC81E00E9471
:104A9000E82742E261EC82E00C94E8278091A302CF
:104AA000833009F460C030F4813071F0823009F451
:104AB00099C008958A3009F485C08B3009F46BC021
:104AC000893009F0A7C020C08091A202813A09F084
:104AD000A1C08091E800877F8093E8008091A602C2
:104AE0009091A702892B21F460E28EE392E003C04B
:104AF00060E080E090E070E00E9424278091E80070
:104B00008B778093E80008958091A202813209F0AA
:104B100081C08091A6029091A702029708F07AC006
:104B20008091E800877F8093E8008091E80082FD13
:104B300005C08091A1028111F8CF6CC02091F300D3
:104B40008091F20090E0922B029729F48091F1007D
:104B50008B7F813021F48091F10080935E028091FF
:104B6000E8008B7753C08091A202813A09F052C0CD
:104B70008091A6029091A702892B09F04BC08091E9
:104B8000E800877F8093E8008091E80080FFFCCFF9
:104B900080911C0136C08091A2028132D9F58091AA
:104BA000A6029091A702892BA9F58091E800877F42
:104BB0008093E8000E941D288091A40280931C012C
:104BC0000C946E1B8091A202813221F58091E80045
:104BD000877F8093E8000E941D288091A502809322
:104BE0005F0208958091A202813AA1F48091E800C9
:104BF000877F8093E8008091E80080FFFCCF809160
:104C00005F028093F1008091E8008E778093E80046
:104C10000C941D28089584B7877F84BF0FB6F8943D
:104C2000A895809160008861809360001092600078
:104C30000FBE80E880936100109261000E9473169D
:104C40000E946E280E94CB288091E20084608093AD
:104C5000E20078940E945A2B0E947B1682E191E038
:104C60000E940E168091A102853069F40E94E8220C
:104C700080919F028823B1F30E942E23882391F311
:104C80000E94C326EFCF0E9487160E949114EACF9C
:104C90000C944A26292F332723303105C9F064F4B8
:104CA0002130310581F02230310509F04CC08BE311
:104CB00090E021E93FE04BC02132310521F1223261
:104CC000310589F140C082E190E02CEC3FE03FC02B
:104CD00099278130910571F02CF4892BA1F5EDE82D
:104CE000FFE00DC08230910541F0039761F5E1E6E8
:104CF000FFE005C0EDE7FFE002C0E7E6FFE08491DA
:104D000090E09F0124C06115710541F0613071058B
:104D1000D1F489E090E02CEB3FE019C089E090E00D
:104D200023EA3FE014C06115710541F0613071055F
:104D300051F48BE390E02EED3FE009C080E490E079
:104D400029E130E104C080E090E020E030E0FA01A9
:104D50003183208308950895CF93C82F0E94AB26F6
:104D6000C0936002CF9108958091A102843011F028
:104D700081E0089582E0089580916002811102C06F
:104D80000C94B426089580E189BD82E189BD09B4FF
:104D900000FEFDCF8091D8008F7D8093D800809158
:104DA000E00082608093E0008091E00081FDFCCF14
:104DB0000895CF92DF92EF92FF920F931F93CF93BC
:104DC000DF93EC018B016A010E943C28811133C002
:104DD000C114D10439F0F60180819181081B190BAF
:104DE000C80FD91FE12CF12C0115110519F1809183
:104DF000E80085FD16C08091E8008E778093E8007A
:104E0000C114D10449F0F60180819181E80EF91EA8
:104E1000F182E08285E00FC00E943C28882321F3C4
:104E20000AC089918093F10001501109FFEFEF1A38
:104E3000FF0ADACF80E0DF91CF911F910F91FF90B1
:104E4000EF90DF90CF9008952091A8023091A902B1
:104E50002617370748F06115710539F42091E800ED
:104E60002E772093E80001C0B90140E0611571057B
:104E7000A9F12091A102222309F443C0253009F4AD
:104E800042C02091E80023FD40C02091E80022FDAF
:104E900032C02091E80020FFE9CF4091F30020913B
:104EA000F20030E0342BFC01CF016115710559F09F
:104EB0002830310540F481918093F10061507109EF
:104EC0002F5F3F4FF1CF41E02830310509F040E03E
:104ED0002091E8002E772093E800C8CF4111C9CF78
:104EE0000AC08091A102882361F0853061F0809131
:104EF000E80083FD0AC08091E80082FFF2CF80E0E5
:104F0000089582E0089583E0089581E00895209156
:104F1000A8023091A9022617370748F061157105DC
:104F200039F42091E8002E772093E80001C0B90100
:104F3000FC0120E06115710591F18091A1028823A7
:104F400009F440C0853009F43FC08091E80083FD3A
:104F50003DC08091E80082FD2FC08091E80080FF75
:104F6000E9CF2091F3008091F20090E0922B61153F
:104F7000710559F08830910540F424912093F10097
:104F80003196615071090196F2CF21E0089709F03E
:104F900020E08091E8008E778093E800CBCF21114C
:104FA000CCCF0AC08091A102882361F0853061F0E6
:104FB0008091E80083FD0AC08091E80082FFF2CF73
:104FC00080E0089582E0089583E0089581E00895E7
:104FD000982F973058F59093E900981739F0709111
:104FE000EC002091ED005091F00003C0242F762FAB
:104FF00050E021FF19C03091EB003E7F3093EB0071
:105000003091ED003D7F3093ED003091EB00316049
:105010003093EB007093EC002093ED005093F00080
:105020002091EE0027FF07C09F5FD3CF8F70809342
:10503000E90081E0089580E008958091A20287FF51
:1050400011C08091E80082FD05C08091A10281110C
:10505000F8CF11C08091E8008B770BC08091A1023E
:10506000882349F08091E80080FFF8CF8091E80024
:105070008E778093E80008952091E4003091E50058
:1050800095E64091EC00842F817040FF22C0809112
:10509000E80080FD1CC08091A102882391F085303A
:1050A00091F08091EB0085FD10C04091E40050919B
:1050B000E5004217530729F39A01915011F784E054
:1050C000089582E0089583E0089581E0089580E0E6
:1050D00008954091E80042FFDECF08950E94DC2849
:1050E0000E94E428E0EEF0E0808181608083E8EDBA
:1050F000F0E080818F77808319BCA7EDB0E08C91C0
:105100008E7F8C9380818F7E80831092A002089581
:105110000F931F93CF93DF930E94DC280E94E42813
:10512000C8EDD0E088818F77888388818068888304
:1051300088818F7D888319BC1092A10210929D02F4
:1051400010929F0210929E0200EE10E0F801808102
:105150008B7F808388818160888342E060E080E08B
:105160000E94E827E1EEF0E080818E7F8083E2EE0E
:10517000F0E0808181608083808188608083F80195
:1051800080818E7F8083888180618883DF91CF9149
:105190001F910F910895E8EDF0E080818F7E80836C
:1051A000E7EDF0E080818160808384E082BF81E070
:1051B0008093A0020C948828E8EDF0E080818E7F37
:1051C00080831092E20008951092DA001092E100BC
:1051D00008951F920F920FB60F9211242F933F93B1
:1051E0004F935F936F937F938F939F93AF93BF93EF
:1051F000EF93FF938091E10082FF0BC08091E2006A
:1052000082FF07C08091E1008B7F8093E1000E94C4
:10521000592B8091DA0080FF1FC08091D80080FF59
:105220001BC08091DA008E7F8093DA008091D900D4
:1052300080FF0DC080E189BD82E189BD09B400FE17
:10524000FDCF81E08093A1020E942F2505C019BCEB
:105250001092A1020E943D258091E10080FF19C0BB
:105260008091E20080FF15C08091E2008E7F8093E4
:10527000E2008091E20080618093E2008091D8009A
:1052800080628093D80019BC85E08093A1020E94BF
:1052900041258091E10084FF30C08091E20084FFCD
:1052A0002CC080E189BD82E189BD09B400FEFDCF3B
:1052B0008091D8008F7D8093D8008091E1008F7E0F
:1052C0008093E1008091E2008F7E8093E2008091E4
:1052D000E20081608093E20080919D02882311F0BA
:1052E00084E007C08091E30087FD02C081E001C037
:1052F00083E08093A1020E9442258091E10083FF18
:1053000029C08091E20083FF25C08091E100877F62
:105310008093E10082E08093A10210929D0280912F
:10532000E1008E7F8093E1008091E2008E7F809388
:10533000E2008091E20080618093E20042E060E060
:1053400080E00E94E8278091F00088608093F00060
:105350000E944025FF91EF91BF91AF919F918F9156
:105360007F916F915F914F913F912F910F900FBE61
:105370000F901F9018951F920F920FB60F92112445
:105380002F933F934F935F936F937F938F939F934D
:10539000AF93BF93CF93DF93EF93FF93C091E90057
:1053A000CF708091EC00D82FD17080FDD0E81092A2
:1053B000E9008091F000877F8093F00078940E944C
:1053C000FF291092E9008091F00088608093F0003E
:1053D000CD2BCF70C093E900FF91EF91DF91CF917A
:1053E000BF91AF919F918F917F916F915F914F91FD
:1053F0003F912F910F900FBE0F901F9018951F9304
:10540000CF93DF93CDB7DEB7AA970FB6F894DEBF80
:105410000FBECDBFE2EAF2E088E08E0F9091F1007E
:1054200091938E13FBCF0E944E258091E80083FF5D
:1054300028C18091A2029091A302492F50E04A30E6
:10544000510508F01EC1FA01E556FF4F0C94CF2B11
:10545000803821F0823809F014C108C080919E0282
:1054600090919F02992389F082600FC08091A602DB
:105470008F70873008F005C18093E9008091EB00C0
:1054800085FB882780F91092E9009091E800977FCA
:105490009093E8008093F1001092F100D0C0282F83
:1054A0002D7F09F0EEC0882319F0823061F0E9C049
:1054B0008091A402813009F0E4C0933009F080E0CB
:1054C00080939F022EC08091A40281112AC08091F6
:1054D000A6028F702FEF280F263008F0D2C08093DD
:1054E000E9002091EB0020FF1CC0933021F4809153
:1054F000EB00806214C09091EB0090619093EB0000
:1055000021E030E0A90102C0440F551F8A95E2F75F
:105510004093EA001092EA008091EB00886080934B
:10552000EB001092E9008091E800877F8093E8000B
:105530000E941D28A6C08111A4C01091A4021F774B
:105540008091E3008078812B8093E3008091E800D4
:10555000877F8093E8000E941D288091E80080FFEB
:10556000FCCF8091E30080688093E300111102C0BA
:1055700082E001C083E08093A10283C08058823022
:1055800008F07FC08091A4029091A5028C3D53E069
:10559000950779F583E08A838AE289834FB7F89487
:1055A000DE01139620E03EE051E2E32FF0E050935D
:1055B0005700E49120FF03C0E295EF703F5FEF706A
:1055C0008E2F90E0EA3010F0C79601C0C0968D9300
:1055D0009D932F5F243149F74FBF8091E800877F6B
:1055E0008093E8006AE270E0CE0101960E942427D1
:1055F00015C06091A6027091A702AE014F5F5F4F88
:105600000E944826BC01892BE1F19091E800977F28
:105610009093E80089819A810E9487278091E80011
:105620008B778093E8002DC0803859F58091E80091
:10563000877F8093E80080919D028093F1008091A4
:10564000E8008E7773CF81111CC09091A402923034
:10565000C0F48091E800877F8093E80090939D02DA
:105660000E941D2880919D02811106C08091E30057
:1056700087FD02C081E001C084E08093A1020E9406
:1056800044258091E80083FF0AC08091E800877F6D
:105690008093E8008091EB0080628093EB00AA96F3
:1056A0000FB6F894DEBF0FBECDBFDF91CF911F9133
:1056B00008950895CF938091A1028823A1F0C0910D
:1056C000E900CF709091EC00892F817090FD80E807
:1056D000C82B1092E9008091E80083FD0E94FF2909
:1056E000CF70C093E900CF910895DB018F939F9312
:1056F0000E94E42BBF91AF91A29F800D911DA39FAB
:10570000900DB29F900D11240895AA1BBB1B51E16F
:1057100007C0AA1FBB1FA617B70710F0A61BB70B21
:10572000881F991F5A95A9F780959095BC01CD01C6
:10573000089597FB072E16F4009407D077FD09D043
:105740000E94852B07FC05D03EF4909581959F4FD4
:105750000895709561957F4F0895A1E21A2EAA1BB6
:10576000BB1BFD010DC0AA1FBB1FEE1FFF1FA21711
:10577000B307E407F50720F0A21BB30BE40BF50B0E
:10578000661F771F881F991F1A9469F76095709597
:10579000809590959B01AC01BD01CF010895EE0F5E
:1057A000FF1F0590F491E02D0994A29FB001B39FD3
:1057B000C001A39F700D811D1124911DB29F700D1A
:1057C000811D1124911D08950E94D52BA59F900D38
:1057D000B49F900DA49F800D911D11240895FC018C
:1057E0004150504030F001900616D1F73197CF016B
:1057F0000895882799270895F999FECF92BD81BD14
:10580000F89A992780B50895A6E1B0E044E050E009
:105810000C94362CA8E1B0E042E050E00C94362C19
:10582000262FF999FECF92BD81BDF89A019700B459
:10583000021639F01FBA20BD0FB6F894FA9AF99AF9
:105840000FBE08950396272F0E94112C0E94102C42
:10585000252F0E94112C242F0C94112C0196272FF8
:105860000E94112C0C94102CDC01CB01FC01F99945
:10587000FECF06C0F2BDE1BDF89A319600B40D929C
:0C58800041505040B8F70895F894FFCF55
:10588C00010210101001191A1B1C1D1E1F202122B1
:10589C001702E224E824E524E624E72401F0F1C60B
:1058AC006766F59431303534979633F4F6909192CF
:1058BC00939537000102020202060606090909093E
:1058CC0009090F0F0F0F0F0F1515151819191919A5
:0858DC001919191919192324E7
:00000001FF
